{"@account-abstraction/contracts/core/EntryPoint.sol":{"EntryPoint":{"abi":[{"inputs":[{"internalType":"uint256","name":"preOpGas","type":"uint256"},{"internalType":"uint256","name":"paid","type":"uint256"},{"internalType":"uint48","name":"validAfter","type":"uint48"},{"internalType":"uint48","name":"validUntil","type":"uint48"},{"internalType":"bool","name":"targetSuccess","type":"bool"},{"internalType":"bytes","name":"targetResult","type":"bytes"}],"name":"ExecutionResult","type":"error"},{"inputs":[{"internalType":"uint256","name":"opIndex","type":"uint256"},{"internalType":"string","name":"reason","type":"string"}],"name":"FailedOp","type":"error"},{"inputs":[{"internalType":"address","name":"sender","type":"address"}],"name":"SenderAddressResult","type":"error"},{"inputs":[{"internalType":"address","name":"aggregator","type":"address"}],"name":"SignatureValidationFailed","type":"error"},{"inputs":[{"components":[{"internalType":"uint256","name":"preOpGas","type":"uint256"},{"internalType":"uint256","name":"prefund","type":"uint256"},{"internalType":"bool","name":"sigFailed","type":"bool"},{"internalType":"uint48","name":"validAfter","type":"uint48"},{"internalType":"uint48","name":"validUntil","type":"uint48"},{"internalType":"bytes","name":"paymasterContext","type":"bytes"}],"internalType":"struct IEntryPoint.ReturnInfo","name":"returnInfo","type":"tuple"},{"components":[{"internalType":"uint256","name":"stake","type":"uint256"},{"internalType":"uint256","name":"unstakeDelaySec","type":"uint256"}],"internalType":"struct IStakeManager.StakeInfo","name":"senderInfo","type":"tuple"},{"components":[{"internalType":"uint256","name":"stake","type":"uint256"},{"internalType":"uint256","name":"unstakeDelaySec","type":"uint256"}],"internalType":"struct IStakeManager.StakeInfo","name":"factoryInfo","type":"tuple"},{"components":[{"internalType":"uint256","name":"stake","type":"uint256"},{"internalType":"uint256","name":"unstakeDelaySec","type":"uint256"}],"internalType":"struct IStakeManager.StakeInfo","name":"paymasterInfo","type":"tuple"}],"name":"ValidationResult","type":"error"},{"inputs":[{"components":[{"internalType":"uint256","name":"preOpGas","type":"uint256"},{"internalType":"uint256","name":"prefund","type":"uint256"},{"internalType":"bool","name":"sigFailed","type":"bool"},{"internalType":"uint48","name":"validAfter","type":"uint48"},{"internalType":"uint48","name":"validUntil","type":"uint48"},{"internalType":"bytes","name":"paymasterContext","type":"bytes"}],"internalType":"struct IEntryPoint.ReturnInfo","name":"returnInfo","type":"tuple"},{"components":[{"internalType":"uint256","name":"stake","type":"uint256"},{"internalType":"uint256","name":"unstakeDelaySec","type":"uint256"}],"internalType":"struct IStakeManager.StakeInfo","name":"senderInfo","type":"tuple"},{"components":[{"internalType":"uint256","name":"stake","type":"uint256"},{"internalType":"uint256","name":"unstakeDelaySec","type":"uint256"}],"internalType":"struct IStakeManager.StakeInfo","name":"factoryInfo","type":"tuple"},{"components":[{"internalType":"uint256","name":"stake","type":"uint256"},{"internalType":"uint256","name":"unstakeDelaySec","type":"uint256"}],"internalType":"struct IStakeManager.StakeInfo","name":"paymasterInfo","type":"tuple"},{"components":[{"internalType":"address","name":"aggregator","type":"address"},{"components":[{"internalType":"uint256","name":"stake","type":"uint256"},{"internalType":"uint256","name":"unstakeDelaySec","type":"uint256"}],"internalType":"struct IStakeManager.StakeInfo","name":"stakeInfo","type":"tuple"}],"internalType":"struct IEntryPoint.AggregatorStakeInfo","name":"aggregatorInfo","type":"tuple"}],"name":"ValidationResultWithAggregation","type":"error"},{"anonymous":false,"inputs":[{"indexed":true,"internalType":"bytes32","name":"userOpHash","type":"bytes32"},{"indexed":true,"internalType":"address","name":"sender","type":"address"},{"indexed":false,"internalType":"address","name":"factory","type":"address"},{"indexed":false,"internalType":"address","name":"paymaster","type":"address"}],"name":"AccountDeployed","type":"event"},{"anonymous":false,"inputs":[],"name":"BeforeExecution","type":"event"},{"anonymous":false,"inputs":[{"indexed":true,"internalType":"address","name":"account","type":"address"},{"indexed":false,"internalType":"uint256","name":"totalDeposit","type":"uint256"}],"name":"Deposited","type":"event"},{"anonymous":false,"inputs":[{"indexed":true,"internalType":"address","name":"aggregator","type":"address"}],"name":"SignatureAggregatorChanged","type":"event"},{"anonymous":false,"inputs":[{"indexed":true,"internalType":"address","name":"account","type":"address"},{"indexed":false,"internalType":"uint256","name":"totalStaked","type":"uint256"},{"indexed":false,"internalType":"uint256","name":"unstakeDelaySec","type":"uint256"}],"name":"StakeLocked","type":"event"},{"anonymous":false,"inputs":[{"indexed":true,"internalType":"address","name":"account","type":"address"},{"indexed":false,"internalType":"uint256","name":"withdrawTime","type":"uint256"}],"name":"StakeUnlocked","type":"event"},{"anonymous":false,"inputs":[{"indexed":true,"internalType":"address","name":"account","type":"address"},{"indexed":false,"internalType":"address","name":"withdrawAddress","type":"address"},{"indexed":false,"internalType":"uint256","name":"amount","type":"uint256"}],"name":"StakeWithdrawn","type":"event"},{"anonymous":false,"inputs":[{"indexed":true,"internalType":"bytes32","name":"userOpHash","type":"bytes32"},{"indexed":true,"internalType":"address","name":"sender","type":"address"},{"indexed":true,"internalType":"address","name":"paymaster","type":"address"},{"indexed":false,"internalType":"uint256","name":"nonce","type":"uint256"},{"indexed":false,"internalType":"bool","name":"success","type":"bool"},{"indexed":false,"internalType":"uint256","name":"actualGasCost","type":"uint256"},{"indexed":false,"internalType":"uint256","name":"actualGasUsed","type":"uint256"}],"name":"UserOperationEvent","type":"event"},{"anonymous":false,"inputs":[{"indexed":true,"internalType":"bytes32","name":"userOpHash","type":"bytes32"},{"indexed":true,"internalType":"address","name":"sender","type":"address"},{"indexed":false,"internalType":"uint256","name":"nonce","type":"uint256"},{"indexed":false,"internalType":"bytes","name":"revertReason","type":"bytes"}],"name":"UserOperationRevertReason","type":"event"},{"anonymous":false,"inputs":[{"indexed":true,"internalType":"address","name":"account","type":"address"},{"indexed":false,"internalType":"address","name":"withdrawAddress","type":"address"},{"indexed":false,"internalType":"uint256","name":"amount","type":"uint256"}],"name":"Withdrawn","type":"event"},{"inputs":[],"name":"SIG_VALIDATION_FAILED","outputs":[{"internalType":"uint256","name":"","type":"uint256"}],"stateMutability":"view","type":"function"},{"inputs":[{"internalType":"bytes","name":"initCode","type":"bytes"},{"internalType":"address","name":"sender","type":"address"},{"internalType":"bytes","name":"paymasterAndData","type":"bytes"}],"name":"_validateSenderAndPaymaster","outputs":[],"stateMutability":"view","type":"function"},{"inputs":[{"internalType":"uint32","name":"unstakeDelaySec","type":"uint32"}],"name":"addStake","outputs":[],"stateMutability":"payable","type":"function"},{"inputs":[{"internalType":"address","name":"account","type":"address"}],"name":"balanceOf","outputs":[{"internalType":"uint256","name":"","type":"uint256"}],"stateMutability":"view","type":"function"},{"inputs":[{"internalType":"address","name":"account","type":"address"}],"name":"depositTo","outputs":[],"stateMutability":"payable","type":"function"},{"inputs":[{"internalType":"address","name":"","type":"address"}],"name":"deposits","outputs":[{"internalType":"uint112","name":"deposit","type":"uint112"},{"internalType":"bool","name":"staked","type":"bool"},{"internalType":"uint112","name":"stake","type":"uint112"},{"internalType":"uint32","name":"unstakeDelaySec","type":"uint32"},{"internalType":"uint48","name":"withdrawTime","type":"uint48"}],"stateMutability":"view","type":"function"},{"inputs":[{"internalType":"address","name":"account","type":"address"}],"name":"getDepositInfo","outputs":[{"components":[{"internalType":"uint112","name":"deposit","type":"uint112"},{"internalType":"bool","name":"staked","type":"bool"},{"internalType":"uint112","name":"stake","type":"uint112"},{"internalType":"uint32","name":"unstakeDelaySec","type":"uint32"},{"internalType":"uint48","name":"withdrawTime","type":"uint48"}],"internalType":"struct IStakeManager.DepositInfo","name":"info","type":"tuple"}],"stateMutability":"view","type":"function"},{"inputs":[{"internalType":"address","name":"sender","type":"address"},{"internalType":"uint192","name":"key","type":"uint192"}],"name":"getNonce","outputs":[{"internalType":"uint256","name":"nonce","type":"uint256"}],"stateMutability":"view","type":"function"},{"inputs":[{"internalType":"bytes","name":"initCode","type":"bytes"}],"name":"getSenderAddress","outputs":[],"stateMutability":"nonpayable","type":"function"},{"inputs":[{"components":[{"internalType":"address","name":"sender","type":"address"},{"internalType":"uint256","name":"nonce","type":"uint256"},{"internalType":"bytes","name":"initCode","type":"bytes"},{"internalType":"bytes","name":"callData","type":"bytes"},{"internalType":"uint256","name":"callGasLimit","type":"uint256"},{"internalType":"uint256","name":"verificationGasLimit","type":"uint256"},{"internalType":"uint256","name":"preVerificationGas","type":"uint256"},{"internalType":"uint256","name":"maxFeePerGas","type":"uint256"},{"internalType":"uint256","name":"maxPriorityFeePerGas","type":"uint256"},{"internalType":"bytes","name":"paymasterAndData","type":"bytes"},{"internalType":"bytes","name":"signature","type":"bytes"}],"internalType":"struct UserOperation","name":"userOp","type":"tuple"}],"name":"getUserOpHash","outputs":[{"internalType":"bytes32","name":"","type":"bytes32"}],"stateMutability":"view","type":"function"},{"inputs":[{"components":[{"components":[{"internalType":"address","name":"sender","type":"address"},{"internalType":"uint256","name":"nonce","type":"uint256"},{"internalType":"bytes","name":"initCode","type":"bytes"},{"internalType":"bytes","name":"callData","type":"bytes"},{"internalType":"uint256","name":"callGasLimit","type":"uint256"},{"internalType":"uint256","name":"verificationGasLimit","type":"uint256"},{"internalType":"uint256","name":"preVerificationGas","type":"uint256"},{"internalType":"uint256","name":"maxFeePerGas","type":"uint256"},{"internalType":"uint256","name":"maxPriorityFeePerGas","type":"uint256"},{"internalType":"bytes","name":"paymasterAndData","type":"bytes"},{"internalType":"bytes","name":"signature","type":"bytes"}],"internalType":"struct UserOperation[]","name":"userOps","type":"tuple[]"},{"internalType":"contract IAggregator","name":"aggregator","type":"address"},{"internalType":"bytes","name":"signature","type":"bytes"}],"internalType":"struct IEntryPoint.UserOpsPerAggregator[]","name":"opsPerAggregator","type":"tuple[]"},{"internalType":"address payable","name":"beneficiary","type":"address"}],"name":"handleAggregatedOps","outputs":[],"stateMutability":"nonpayable","type":"function"},{"inputs":[{"components":[{"internalType":"address","name":"sender","type":"address"},{"internalType":"uint256","name":"nonce","type":"uint256"},{"internalType":"bytes","name":"initCode","type":"bytes"},{"internalType":"bytes","name":"callData","type":"bytes"},{"internalType":"uint256","name":"callGasLimit","type":"uint256"},{"internalType":"uint256","name":"verificationGasLimit","type":"uint256"},{"internalType":"uint256","name":"preVerificationGas","type":"uint256"},{"internalType":"uint256","name":"maxFeePerGas","type":"uint256"},{"internalType":"uint256","name":"maxPriorityFeePerGas","type":"uint256"},{"internalType":"bytes","name":"paymasterAndData","type":"bytes"},{"internalType":"bytes","name":"signature","type":"bytes"}],"internalType":"struct UserOperation[]","name":"ops","type":"tuple[]"},{"internalType":"address payable","name":"beneficiary","type":"address"}],"name":"handleOps","outputs":[],"stateMutability":"nonpayable","type":"function"},{"inputs":[{"internalType":"uint192","name":"key","type":"uint192"}],"name":"incrementNonce","outputs":[],"stateMutability":"nonpayable","type":"function"},{"inputs":[{"internalType":"bytes","name":"callData","type":"bytes"},{"components":[{"components":[{"internalType":"address","name":"sender","type":"address"},{"internalType":"uint256","name":"nonce","type":"uint256"},{"internalType":"uint256","name":"callGasLimit","type":"uint256"},{"internalType":"uint256","name":"verificationGasLimit","type":"uint256"},{"internalType":"uint256","name":"preVerificationGas","type":"uint256"},{"internalType":"address","name":"paymaster","type":"address"},{"internalType":"uint256","name":"maxFeePerGas","type":"uint256"},{"internalType":"uint256","name":"maxPriorityFeePerGas","type":"uint256"}],"internalType":"struct EntryPoint.MemoryUserOp","name":"mUserOp","type":"tuple"},{"internalType":"bytes32","name":"userOpHash","type":"bytes32"},{"internalType":"uint256","name":"prefund","type":"uint256"},{"internalType":"uint256","name":"contextOffset","type":"uint256"},{"internalType":"uint256","name":"preOpGas","type":"uint256"}],"internalType":"struct EntryPoint.UserOpInfo","name":"opInfo","type":"tuple"},{"internalType":"bytes","name":"context","type":"bytes"}],"name":"innerHandleOp","outputs":[{"internalType":"uint256","name":"actualGasCost","type":"uint256"}],"stateMutability":"nonpayable","type":"function"},{"inputs":[{"internalType":"address","name":"","type":"address"},{"internalType":"uint192","name":"","type":"uint192"}],"name":"nonceSequenceNumber","outputs":[{"internalType":"uint256","name":"","type":"uint256"}],"stateMutability":"view","type":"function"},{"inputs":[{"components":[{"internalType":"address","name":"sender","type":"address"},{"internalType":"uint256","name":"nonce","type":"uint256"},{"internalType":"bytes","name":"initCode","type":"bytes"},{"internalType":"bytes","name":"callData","type":"bytes"},{"internalType":"uint256","name":"callGasLimit","type":"uint256"},{"internalType":"uint256","name":"verificationGasLimit","type":"uint256"},{"internalType":"uint256","name":"preVerificationGas","type":"uint256"},{"internalType":"uint256","name":"maxFeePerGas","type":"uint256"},{"internalType":"uint256","name":"maxPriorityFeePerGas","type":"uint256"},{"internalType":"bytes","name":"paymasterAndData","type":"bytes"},{"internalType":"bytes","name":"signature","type":"bytes"}],"internalType":"struct UserOperation","name":"op","type":"tuple"},{"internalType":"address","name":"target","type":"address"},{"internalType":"bytes","name":"targetCallData","type":"bytes"}],"name":"simulateHandleOp","outputs":[],"stateMutability":"nonpayable","type":"function"},{"inputs":[{"components":[{"internalType":"address","name":"sender","type":"address"},{"internalType":"uint256","name":"nonce","type":"uint256"},{"internalType":"bytes","name":"initCode","type":"bytes"},{"internalType":"bytes","name":"callData","type":"bytes"},{"internalType":"uint256","name":"callGasLimit","type":"uint256"},{"internalType":"uint256","name":"verificationGasLimit","type":"uint256"},{"internalType":"uint256","name":"preVerificationGas","type":"uint256"},{"internalType":"uint256","name":"maxFeePerGas","type":"uint256"},{"internalType":"uint256","name":"maxPriorityFeePerGas","type":"uint256"},{"internalType":"bytes","name":"paymasterAndData","type":"bytes"},{"internalType":"bytes","name":"signature","type":"bytes"}],"internalType":"struct UserOperation","name":"userOp","type":"tuple"}],"name":"simulateValidation","outputs":[],"stateMutability":"nonpayable","type":"function"},{"inputs":[],"name":"unlockStake","outputs":[],"stateMutability":"nonpayable","type":"function"},{"inputs":[{"internalType":"address payable","name":"withdrawAddress","type":"address"}],"name":"withdrawStake","outputs":[],"stateMutability":"nonpayable","type":"function"},{"inputs":[{"internalType":"address payable","name":"withdrawAddress","type":"address"},{"internalType":"uint256","name":"withdrawAmount","type":"uint256"}],"name":"withdrawTo","outputs":[],"stateMutability":"nonpayable","type":"function"},{"stateMutability":"payable","type":"receive"}],"evm":{"bytecode":{"linkReferences":{},"object":"60a0604052604051620000129062000055565b604051809103906000f0801580156200002f573d6000803e3d6000fd5b506001600160a01b03166080523480156200004957600080fd5b50600160025562000063565b610220806200430483390190565b60805161427e6200008660003960008181611373015261308f015261427e6000f3fe6080604052600436106101635760003560e01c80638f41ec5a116100c0578063bb9fe6bf11610074578063d6383f9411610059578063d6383f94146104af578063ee219423146104cf578063fc7e286d146104ef57600080fd5b8063bb9fe6bf1461047a578063c23a5cea1461048f57600080fd5b80639b249f69116100a55780639b249f6914610427578063a619353114610447578063b760faf91461046757600080fd5b80638f41ec5a146103f2578063957122ab1461040757600080fd5b8063205c2878116101175780634b1d7cf5116100fc5780634b1d7cf5146102765780635287ce121461029657806370a08231146103b357600080fd5b8063205c28781461023657806335567e1a1461025657600080fd5b80631b2e01b8116101485780631b2e01b8146101ab5780631d732756146101f65780631fad948c1461021657600080fd5b80630396cb60146101785780630bd28e3b1461018b57600080fd5b3661017357610171336105a4565b005b600080fd5b610171610186366004613362565b61060b565b34801561019757600080fd5b506101716101a63660046133b5565b6108c9565b3480156101b757600080fd5b506101e36101c63660046133f0565b600160209081526000928352604080842090915290825290205481565b6040519081526020015b60405180910390f35b34801561020257600080fd5b506101e36102113660046135ef565b610911565b34801561022257600080fd5b506101716102313660046136fa565b610a9d565b34801561024257600080fd5b50610171610251366004613751565b610c1a565b34801561026257600080fd5b506101e36102713660046133f0565b610da8565b34801561028257600080fd5b506101716102913660046136fa565b610dff565b3480156102a257600080fd5b5061035b6102b136600461377d565b6040805160a081018252600080825260208201819052918101829052606081018290526080810191909152506001600160a01b031660009081526020818152604091829020825160a08101845281546001600160701b038082168352600160701b820460ff16151594830194909452600160781b90049092169282019290925260019091015463ffffffff81166060830152640100000000900465ffffffffffff16608082015290565b6040805182516001600160701b03908116825260208085015115159083015283830151169181019190915260608083015163ffffffff169082015260809182015165ffffffffffff169181019190915260a0016101ed565b3480156103bf57600080fd5b506101e36103ce36600461377d565b6001600160a01b03166000908152602081905260409020546001600160701b031690565b3480156103fe57600080fd5b506101e3600181565b34801561041357600080fd5b5061017161042236600461379a565b61125c565b34801561043357600080fd5b5061017161044236600461381f565b611359565b34801561045357600080fd5b506101e361046236600461387a565b61142d565b61017161047536600461377d565b6105a4565b34801561048657600080fd5b5061017161146f565b34801561049b57600080fd5b506101716104aa36600461377d565b6115c2565b3480156104bb57600080fd5b506101716104ca3660046138af565b611818565b3480156104db57600080fd5b506101716104ea36600461387a565b61192c565b3480156104fb57600080fd5b5061055e61050a36600461377d565b600060208190529081526040902080546001909101546001600160701b0380831692600160701b810460ff1692600160781b9091049091169063ffffffff811690640100000000900465ffffffffffff1685565b604080516001600160701b0396871681529415156020860152929094169183019190915263ffffffff16606082015265ffffffffffff909116608082015260a0016101ed565b6105ae8134611c00565b6001600160a01b03811660008181526020818152604091829020805492516001600160701b03909316835292917f2da466a7b24304f47e87fa2e1e5a81b9831ce54fec19055ce277ca2f39ba42c491015b60405180910390a25050565b33600090815260208190526040902063ffffffff82166106725760405162461bcd60e51b815260206004820152601a60248201527f6d757374207370656369667920756e7374616b652064656c617900000000000060448201526064015b60405180910390fd5b600181015463ffffffff90811690831610156106d05760405162461bcd60e51b815260206004820152601c60248201527f63616e6e6f7420646563726561736520756e7374616b652074696d65000000006044820152606401610669565b80546000906106f0903490600160781b90046001600160701b0316613927565b9050600081116107425760405162461bcd60e51b815260206004820152601260248201527f6e6f207374616b652073706563696669656400000000000000000000000000006044820152606401610669565b6001600160701b038111156107995760405162461bcd60e51b815260206004820152600e60248201527f7374616b65206f766572666c6f770000000000000000000000000000000000006044820152606401610669565b6040805160a08101825283546001600160701b0390811682526001602080840182815286841685870190815263ffffffff808b16606088019081526000608089018181523380835296829052908a902098518954955194518916600160781b027fffffff0000000000000000000000000000ffffffffffffffffffffffffffffff951515600160701b026effffffffffffffffffffffffffffff199097169190991617949094179290921695909517865551949092018054925165ffffffffffff166401000000000269ffffffffffffffffffff19909316949093169390931717905590517fa5ae833d0bb1dcd632d98a8b70973e8516812898e19bf27b70071ebc8dc52c01906108bc908490879091825263ffffffff16602082015260400190565b60405180910390a2505050565b33600090815260016020908152604080832077ffffffffffffffffffffffffffffffffffffffffffffffff8516845290915281208054916109098361393a565b919050555050565b6000805a90503330146109665760405162461bcd60e51b815260206004820152601760248201527f4141393220696e7465726e616c2063616c6c206f6e6c790000000000000000006044820152606401610669565b8451604081015160608201518101611388015a10156109a9577fdeaddead0000000000000000000000000000000000000000000000000000000060005260206000fd5b875160009015610a3d5760006109c6846000015160008c86611cb0565b905080610a3b5760006109da610800611cc8565b805190915015610a355784600001516001600160a01b03168a602001517f1c4fada7374c0a9ee8841fc38afe82932dc0f8e69012e927f061a8bae611a201876020015184604051610a2c9291906139a3565b60405180910390a35b60019250505b505b600088608001515a8603019050610a8f6000838b8b8b8080601f016020809104026020016040519081016040528093929190818152602001838380828437600092019190915250889250611cf4915050565b9a9950505050505050505050565b610aa5611ff6565b8160008167ffffffffffffffff811115610ac157610ac1613425565b604051908082528060200260200182016040528015610afa57816020015b610ae76132d8565b815260200190600190039081610adf5790505b50905060005b82811015610b73576000828281518110610b1c57610b1c6139bc565b60200260200101519050600080610b57848a8a87818110610b3f57610b3f6139bc565b9050602002810190610b5191906139d2565b8561204d565b91509150610b688483836000612238565b505050600101610b00565b506040516000907fbb47ee3e183a558b1a2ff0874b079f3fc5478b7454eacf2bfc5af2ff5878f972908290a160005b83811015610bfd57610bf181888884818110610bc057610bc06139bc565b9050602002810190610bd291906139d2565b858481518110610be457610be46139bc565b6020026020010151612402565b90910190600101610ba2565b50610c088482612550565b505050610c156001600255565b505050565b33600090815260208190526040902080546001600160701b0316821115610c835760405162461bcd60e51b815260206004820152601960248201527f576974686472617720616d6f756e7420746f6f206c61726765000000000000006044820152606401610669565b8054610c999083906001600160701b03166139f3565b81546dffffffffffffffffffffffffffff19166001600160701b0391909116178155604080516001600160a01b03851681526020810184905233917fd1c19fbcd4551a5edfb66d43d2e337c04837afda3482b42bdf569a8fccdae5fb910160405180910390a26000836001600160a01b03168360405160006040518083038185875af1925050503d8060008114610d4c576040519150601f19603f3d011682016040523d82523d6000602084013e610d51565b606091505b5050905080610da25760405162461bcd60e51b815260206004820152601260248201527f6661696c656420746f20776974686472617700000000000000000000000000006044820152606401610669565b50505050565b6001600160a01b038216600090815260016020908152604080832077ffffffffffffffffffffffffffffffffffffffffffffffff8516845290915290819020549082901b67ffffffffffffffff1916175b92915050565b610e07611ff6565b816000805b82811015610f945736868683818110610e2757610e276139bc565b9050602002810190610e399190613a06565b9050366000610e488380613a1c565b90925090506000610e5f604085016020860161377d565b90506000196001600160a01b03821601610ebb5760405162461bcd60e51b815260206004820152601760248201527f4141393620696e76616c69642061676772656761746f720000000000000000006044820152606401610669565b6001600160a01b03811615610f71576001600160a01b03811663e3563a4f8484610ee86040890189613a66565b6040518563ffffffff1660e01b8152600401610f079493929190613c13565b60006040518083038186803b158015610f1f57600080fd5b505afa925050508015610f30575060015b610f71576040517f86a9f7500000000000000000000000000000000000000000000000000000000081526001600160a01b0382166004820152602401610669565b610f7b8287613927565b9550505050508080610f8c9061393a565b915050610e0c565b5060008167ffffffffffffffff811115610fb057610fb0613425565b604051908082528060200260200182016040528015610fe957816020015b610fd66132d8565b815260200190600190039081610fce5790505b506040519091507fbb47ee3e183a558b1a2ff0874b079f3fc5478b7454eacf2bfc5af2ff5878f97290600090a16000805b848110156110fe5736888883818110611035576110356139bc565b90506020028101906110479190613a06565b90503660006110568380613a1c565b9092509050600061106d604085016020860161377d565b90508160005b818110156110e557600089898151811061108f5761108f6139bc565b602002602001015190506000806110b28b898987818110610b3f57610b3f6139bc565b915091506110c284838389612238565b8a6110cc8161393a565b9b505050505080806110dd9061393a565b915050611073565b50505050505080806110f69061393a565b91505061101a565b50600080915060005b858110156112175736898983818110611122576111226139bc565b90506020028101906111349190613a06565b9050611146604082016020830161377d565b6001600160a01b03167f575ff3acadd5ab348fe1855e217e0f3678f8d767d7494c9f9fefbee2e17cca4d60405160405180910390a23660006111888380613a1c565b90925090508060005b818110156111ff576111d3888585848181106111af576111af6139bc565b90506020028101906111c191906139d2565b8b8b81518110610be457610be46139bc565b6111dd9088613927565b9650876111e98161393a565b98505080806111f79061393a565b915050611191565b5050505050808061120f9061393a565b915050611107565b506040516000907f575ff3acadd5ab348fe1855e217e0f3678f8d767d7494c9f9fefbee2e17cca4d908290a261124d8682612550565b5050505050610c156001600255565b8315801561127257506001600160a01b0383163b155b156112bf5760405162461bcd60e51b815260206004820152601960248201527f41413230206163636f756e74206e6f74206465706c6f796564000000000000006044820152606401610669565b601481106113375760006112d66014828486613c90565b6112df91613cba565b60601c9050803b6000036113355760405162461bcd60e51b815260206004820152601b60248201527f41413330207061796d6173746572206e6f74206465706c6f79656400000000006044820152606401610669565b505b60405162461bcd60e51b81526020600482015260006024820152604401610669565b604051632b870d1b60e11b81526000906001600160a01b037f0000000000000000000000000000000000000000000000000000000000000000169063570e1a36906113aa9086908690600401613cef565b6020604051808303816000875af11580156113c9573d6000803e3d6000fd5b505050506040513d601f19601f820116820180604052508101906113ed9190613d03565b6040517f6ca7b8060000000000000000000000000000000000000000000000000000000081526001600160a01b0382166004820152909150602401610669565b600061143882612649565b6040805160208101929092523090820152466060820152608001604051602081830303815290604052805190602001209050919050565b3360009081526020819052604081206001810154909163ffffffff90911690036114db5760405162461bcd60e51b815260206004820152600a60248201527f6e6f74207374616b6564000000000000000000000000000000000000000000006044820152606401610669565b8054600160701b900460ff166115335760405162461bcd60e51b815260206004820152601160248201527f616c726561647920756e7374616b696e670000000000000000000000000000006044820152606401610669565b600181015460009061154b9063ffffffff1642613d20565b60018301805469ffffffffffff00000000191664010000000065ffffffffffff84169081029190911790915583546eff00000000000000000000000000001916845560405190815290915033907ffa9b3c14cc825c412c9ed81b3ba365a5b459439403f18829e572ed53a4180f0a906020016105ff565b3360009081526020819052604090208054600160781b90046001600160701b0316806116305760405162461bcd60e51b815260206004820152601460248201527f4e6f207374616b6520746f2077697468647261770000000000000000000000006044820152606401610669565b6001820154640100000000900465ffffffffffff166116915760405162461bcd60e51b815260206004820152601d60248201527f6d7573742063616c6c20756e6c6f636b5374616b6528292066697273740000006044820152606401610669565b60018201544264010000000090910465ffffffffffff1611156116f65760405162461bcd60e51b815260206004820152601b60248201527f5374616b65207769746864726177616c206973206e6f742064756500000000006044820152606401610669565b60018201805469ffffffffffffffffffff1916905581547fffffff0000000000000000000000000000ffffffffffffffffffffffffffffff168255604080516001600160a01b03851681526020810183905233917fb7c918e0e249f999e965cafeb6c664271b3f4317d296461500e71da39f0cbda3910160405180910390a26000836001600160a01b03168260405160006040518083038185875af1925050503d80600081146117c2576040519150601f19603f3d011682016040523d82523d6000602084013e6117c7565b606091505b5050905080610da25760405162461bcd60e51b815260206004820152601860248201527f6661696c656420746f207769746864726177207374616b6500000000000000006044820152606401610669565b6118206132d8565b61182985612662565b6000806118386000888561204d565b915091506000611848838361273c565b905061185343600052565b600061186160008a87612402565b905061186c43600052565b600060606001600160a01b038a16156118e257896001600160a01b03168989604051611899929190613d46565b6000604051808303816000865af19150503d80600081146118d6576040519150601f19603f3d011682016040523d82523d6000602084013e6118db565b606091505b5090925090505b8660800151838560200151866040015185856040517f8b7ac98000000000000000000000000000000000000000000000000000000000815260040161066996959493929190613d56565b6119346132d8565b61193d82612662565b60008061194c6000858561204d565b845160a00151604080518082018252600080825260208083018281526001600160a01b03958616835282825284832080546001600160701b03600160781b918290048116875260019283015463ffffffff9081169094528d51518851808a018a5287815280870188815291909a168752868652888720805493909304909116895291015490911690528351808501909452818452830152939550919350903660006119fa60408a018a613a66565b909250905060006014821015611a11576000611a2c565b611a1f601460008486613c90565b611a2891613cba565b60601c5b604080518082018252600080825260208083018281526001600160a01b0386168352908290529290208054600160781b90046001600160701b031682526001015463ffffffff1690915290915093505050506000611a8a868661273c565b9050600081600001519050600060016001600160a01b0316826001600160a01b031614905060006040518060c001604052808b6080015181526020018b6040015181526020018315158152602001856020015165ffffffffffff168152602001856040015165ffffffffffff168152602001611b078c6060015190565b905290506001600160a01b03831615801590611b2d57506001600160a01b038316600114155b15611bc6576040805180820182526001600160a01b0385168082528251808401845260008082526020808301828152938252818152908590208054600160781b90046001600160701b031683526001015463ffffffff169092529082015290517ffaecb4e4000000000000000000000000000000000000000000000000000000008152610669908390899089908c908690600401613df8565b808686896040517fe0cff05f0000000000000000000000000000000000000000000000000000000081526004016106699493929190613e78565b6001600160a01b03821660009081526020819052604081208054909190611c319084906001600160701b0316613927565b90506001600160701b03811115611c8a5760405162461bcd60e51b815260206004820152601060248201527f6465706f736974206f766572666c6f77000000000000000000000000000000006044820152606401610669565b81546dffffffffffffffffffffffffffff19166001600160701b03919091161790555050565b6000806000845160208601878987f195945050505050565b60603d82811115611cd65750815b604051602082018101604052818152816000602083013e9392505050565b6000805a855190915060009081611d0a82612808565b60a08301519091506001600160a01b038116611d295782519350611edb565b809350600088511115611edb57868202955060028a6002811115611d4f57611d4f613ecf565b14611dc157606083015160405163a9a2340960e01b81526001600160a01b0383169163a9a2340991611d89908e908d908c90600401613ee5565b600060405180830381600088803b158015611da357600080fd5b5087f1158015611db7573d6000803e3d6000fd5b5050505050611edb565b606083015160405163a9a2340960e01b81526001600160a01b0383169163a9a2340991611df6908e908d908c90600401613ee5565b600060405180830381600088803b158015611e1057600080fd5b5087f193505050508015611e22575060015b611edb57611e2e613f2c565b806308c379a003611e875750611e42613f48565b80611e4d5750611e89565b8b81604051602001611e5f9190613fd2565b60408051601f1981840301815290829052631101335b60e11b825261066992916004016139a3565b505b8a604051631101335b60e11b81526004016106699181526040602082018190526012908201527f4141353020706f73744f70207265766572740000000000000000000000000000606082015260800190565b5a85038701965081870295508589604001511015611f44578a604051631101335b60e11b815260040161066991815260406020808301829052908201527f414135312070726566756e642062656c6f772061637475616c476173436f7374606082015260800190565b6040890151869003611f568582611c00565b6000808c6002811115611f6b57611f6b613ecf565b1490508460a001516001600160a01b031685600001516001600160a01b03168c602001517f49628fd1471006c1482da88028e9ce4dbb080b815c9b0344d39e5a8e6ec1419f8860200151858d8f604051611fde949392919093845291151560208401526040830152606082015260800190565b60405180910390a45050505050505095945050505050565b60028054036120475760405162461bcd60e51b815260206004820152601f60248201527f5265656e7472616e637947756172643a207265656e7472616e742063616c6c006044820152606401610669565b60028055565b60008060005a84519091506120628682612838565b61206b8661142d565b6020860152604081015160608201516080830151171760e087013517610100870135176effffffffffffffffffffffffffffff8111156120ed5760405162461bcd60e51b815260206004820152601860248201527f41413934206761732076616c756573206f766572666c6f7700000000000000006044820152606401610669565b6000806120f984612931565b90506121078a8a8a8461297e565b8551602087015191995091935061211e9190612bdd565b6121745789604051631101335b60e11b8152600401610669918152604060208201819052601a908201527f4141323520696e76616c6964206163636f756e74206e6f6e6365000000000000606082015260800190565b61217d43600052565b60a08401516060906001600160a01b0316156121a5576121a08b8b8b8587612c2b565b975090505b60005a87039050808b60a00135101561220a578b604051631101335b60e11b8152600401610669918152604060208201819052601e908201527f41413430206f76657220766572696669636174696f6e4761734c696d69740000606082015260800190565b60408a018390528160608b015260c08b01355a8803018a608001818152505050505050505050935093915050565b60008061224485612e55565b91509150816001600160a01b0316836001600160a01b0316146122b35785604051631101335b60e11b81526004016106699181526040602082018190526014908201527f41413234207369676e6174757265206572726f72000000000000000000000000606082015260800190565b801561230b5785604051631101335b60e11b81526004016106699181526040602082018190526017908201527f414132322065787069726564206f72206e6f7420647565000000000000000000606082015260800190565b600061231685612e55565b925090506001600160a01b0381161561237b5786604051631101335b60e11b81526004016106699181526040602082018190526014908201527f41413334207369676e6174757265206572726f72000000000000000000000000606082015260800190565b81156123f95786604051631101335b60e11b81526004016106699181526040602082018190526021908201527f41413332207061796d61737465722065787069726564206f72206e6f7420647560608201527f6500000000000000000000000000000000000000000000000000000000000000608082015260a00190565b50505050505050565b6000805a90506000612415846060015190565b905030631d73275661242a6060880188613a66565b87856040518563ffffffff1660e01b815260040161244b9493929190614017565b6020604051808303816000875af1925050508015612486575060408051601f3d908101601f19168201909252612483918101906140cb565b60015b61254457600060206000803e506000517f2152215300000000000000000000000000000000000000000000000000000000810161250f5786604051631101335b60e11b8152600401610669918152604060208201819052600f908201527f41413935206f7574206f66206761730000000000000000000000000000000000606082015260800190565b600085608001515a61252190866139f3565b61252b9190613927565b905061253b886002888685611cf4565b94505050612547565b92505b50509392505050565b6001600160a01b0382166125a65760405162461bcd60e51b815260206004820152601860248201527f4141393020696e76616c69642062656e656669636961727900000000000000006044820152606401610669565b6000826001600160a01b03168260405160006040518083038185875af1925050503d80600081146125f3576040519150601f19603f3d011682016040523d82523d6000602084013e6125f8565b606091505b5050905080610c155760405162461bcd60e51b815260206004820152601f60248201527f41413931206661696c65642073656e6420746f2062656e6566696369617279006044820152606401610669565b600061265482612ea8565b805190602001209050919050565b3063957122ab6126756040840184613a66565b612682602086018661377d565b612690610120870187613a66565b6040518663ffffffff1660e01b81526004016126b09594939291906140e4565b60006040518083038186803b1580156126c857600080fd5b505afa9250505080156126d9575060015b612739576126e5613f2c565b806308c379a00361272d57506126f9613f48565b80612704575061272f565b80511561272957600081604051631101335b60e11b81526004016106699291906139a3565b5050565b505b3d6000803e3d6000fd5b50565b604080516060810182526000808252602082018190529181018290529061276284612f7b565b9050600061276f84612f7b565b82519091506001600160a01b038116612786575080515b602080840151604080860151928501519085015191929165ffffffffffff80831690851610156127b4578193505b8065ffffffffffff168365ffffffffffff1611156127d0578092505b5050604080516060810182526001600160a01b03909416845265ffffffffffff92831660208501529116908201529250505092915050565b60c081015160e082015160009190808203612824575092915050565b61283082488301612fec565b949350505050565b612845602083018361377d565b6001600160a01b0316815260208083013590820152608080830135604083015260a0830135606083015260c0808401359183019190915260e08084013591830191909152610100830135908201523660006128a4610120850185613a66565b909250905080156129245760148110156129005760405162461bcd60e51b815260206004820152601d60248201527f4141393320696e76616c6964207061796d6173746572416e64446174610000006044820152606401610669565b61290e601460008385613c90565b61291791613cba565b60601c60a0840152610da2565b600060a084015250505050565b60a081015160009081906001600160a01b031661294f576001612952565b60035b60ff16905060008360800151828560600151028560400151010190508360c00151810292505050919050565b60008060005a85518051919250906129a3898861299e60408c018c613a66565b613004565b60a08201516129b143600052565b60006001600160a01b0382166129f9576001600160a01b0383166000908152602081905260409020546001600160701b03168881116129f2578089036129f5565b60005b9150505b606084015160208a01516040517f3a871cdd0000000000000000000000000000000000000000000000000000000081526001600160a01b03861692633a871cdd929091612a4c918f91879060040161411a565b60206040518083038160008887f193505050508015612a88575060408051601f3d908101601f19168201909252612a85918101906140cb565b60015b612b1957612a94613f2c565b806308c379a003612ac55750612aa8613f48565b80612ab35750612ac7565b8b81604051602001611e5f919061413f565b505b8a604051631101335b60e11b81526004016106699181526040602082018190526016908201527f4141323320726576657274656420286f72204f4f472900000000000000000000606082015260800190565b95506001600160a01b038216612bca576001600160a01b038316600090815260208190526040902080546001600160701b0316808a1115612ba6578c604051631101335b60e11b81526004016106699181526040602082018190526017908201527f41413231206469646e2774207061792070726566756e64000000000000000000606082015260800190565b81546dffffffffffffffffffffffffffff1916908a90036001600160701b03161790555b5a85039650505050505094509492505050565b6001600160a01b038216600090815260016020908152604080832084821c808552925282208054849167ffffffffffffffff8316919085612c1d8361393a565b909155501495945050505050565b82516060818101519091600091848111612c875760405162461bcd60e51b815260206004820152601f60248201527f4141343120746f6f206c6974746c6520766572696669636174696f6e476173006044820152606401610669565b60a08201516001600160a01b038116600090815260208190526040902080548784039291906001600160701b031689811015612d0f578c604051631101335b60e11b8152600401610669918152604060208201819052601e908201527f41413331207061796d6173746572206465706f73697420746f6f206c6f770000606082015260800190565b8981038260000160006101000a8154816001600160701b0302191690836001600160701b03160217905550826001600160a01b031663f465c77e858e8e602001518e6040518563ffffffff1660e01b8152600401612d6f9392919061411a565b60006040518083038160008887f193505050508015612db057506040513d6000823e601f3d908101601f19168201604052612dad9190810190614184565b60015b612e4157612dbc613f2c565b806308c379a003612ded5750612dd0613f48565b80612ddb5750612def565b8d81604051602001611e5f9190614210565b505b8c604051631101335b60e11b81526004016106699181526040602082018190526016908201527f4141333320726576657274656420286f72204f4f472900000000000000000000606082015260800190565b909e909d509b505050505050505050505050565b60008082600003612e6b57506000928392509050565b6000612e7684612f7b565b9050806040015165ffffffffffff16421180612e9d5750806020015165ffffffffffff1642105b905194909350915050565b6060813560208301356000612ec8612ec36040870187613a66565b6132c5565b90506000612edc612ec36060880188613a66565b9050608086013560a087013560c088013560e08901356101008a01356000612f0b612ec36101208e018e613a66565b604080516001600160a01b039c909c1660208d01528b81019a909a5260608b019890985250608089019590955260a088019390935260c087019190915260e08601526101008501526101208401526101408084019190915281518084039091018152610160909201905292915050565b60408051606081018252600080825260208201819052918101919091528160a081901c65ffffffffffff8116600003612fb7575065ffffffffffff5b604080516060810182526001600160a01b03909316835260d09490941c602083015265ffffffffffff16928101929092525090565b6000818310612ffb5781612ffd565b825b9392505050565b8015610da2578251516001600160a01b0381163b1561306f5784604051631101335b60e11b8152600401610669918152604060208201819052601f908201527f414131302073656e64657220616c726561647920636f6e737472756374656400606082015260800190565b835160600151604051632b870d1b60e11b81526000916001600160a01b037f0000000000000000000000000000000000000000000000000000000000000000169163570e1a3691906130c79088908890600401613cef565b60206040518083038160008887f11580156130e6573d6000803e3d6000fd5b50505050506040513d601f19601f8201168201806040525081019061310b9190613d03565b90506001600160a01b03811661316d5785604051631101335b60e11b8152600401610669918152604060208201819052601b908201527f4141313320696e6974436f6465206661696c6564206f72204f4f470000000000606082015260800190565b816001600160a01b0316816001600160a01b0316146131d75785604051631101335b60e11b815260040161066991815260406020808301829052908201527f4141313420696e6974436f6465206d7573742072657475726e2073656e646572606082015260800190565b806001600160a01b03163b60000361323a5785604051631101335b60e11b815260040161066991815260406020808301829052908201527f4141313520696e6974436f6465206d757374206372656174652073656e646572606082015260800190565b60006132496014828688613c90565b61325291613cba565b60601c9050826001600160a01b031686602001517fd51a9c61267aa6196961883ecf5ff2da6619c37dac0fa92122513fb32c032d2d83896000015160a001516040516132b49291906001600160a01b0392831681529116602082015260400190565b60405180910390a350505050505050565b6000604051828085833790209392505050565b6040518060a0016040528061333d60405180610100016040528060006001600160a01b031681526020016000815260200160008152602001600081526020016000815260200160006001600160a01b0316815260200160008152602001600081525090565b8152602001600080191681526020016000815260200160008152602001600081525090565b60006020828403121561337457600080fd5b813563ffffffff81168114612ffd57600080fd5b803577ffffffffffffffffffffffffffffffffffffffffffffffff811681146133b057600080fd5b919050565b6000602082840312156133c757600080fd5b612ffd82613388565b6001600160a01b038116811461273957600080fd5b80356133b0816133d0565b6000806040838503121561340357600080fd5b823561340e816133d0565b915061341c60208401613388565b90509250929050565b634e487b7160e01b600052604160045260246000fd5b60a0810181811067ffffffffffffffff8211171561345b5761345b613425565b60405250565b610100810181811067ffffffffffffffff8211171561345b5761345b613425565b601f8201601f1916810167ffffffffffffffff811182821017156134a8576134a8613425565b6040525050565b600067ffffffffffffffff8211156134c9576134c9613425565b50601f01601f191660200190565b60008183036101808112156134eb57600080fd5b6040516134f78161343b565b8092506101008083121561350a57600080fd5b604051925061351883613461565b613521856133e5565b83526020850135602084015260408501356040840152606085013560608401526080850135608084015261355760a086016133e5565b60a084015260c085013560c084015260e085013560e084015282825280850135602083015250610120840135604082015261014084013560608201526101608401356080820152505092915050565b60008083601f8401126135b857600080fd5b50813567ffffffffffffffff8111156135d057600080fd5b6020830191508360208285010111156135e857600080fd5b9250929050565b6000806000806101c0858703121561360657600080fd5b843567ffffffffffffffff8082111561361e57600080fd5b818701915087601f83011261363257600080fd5b813561363d816134af565b60405161364a8282613482565b8281528a602084870101111561365f57600080fd5b8260208601602083013760006020848301015280985050505061368588602089016134d7565b94506101a087013591508082111561369c57600080fd5b506136a9878288016135a6565b95989497509550505050565b60008083601f8401126136c757600080fd5b50813567ffffffffffffffff8111156136df57600080fd5b6020830191508360208260051b85010111156135e857600080fd5b60008060006040848603121561370f57600080fd5b833567ffffffffffffffff81111561372657600080fd5b613732868287016136b5565b9094509250506020840135613746816133d0565b809150509250925092565b6000806040838503121561376457600080fd5b823561376f816133d0565b946020939093013593505050565b60006020828403121561378f57600080fd5b8135612ffd816133d0565b6000806000806000606086880312156137b257600080fd5b853567ffffffffffffffff808211156137ca57600080fd5b6137d689838a016135a6565b9097509550602088013591506137eb826133d0565b9093506040870135908082111561380157600080fd5b5061380e888289016135a6565b969995985093965092949392505050565b6000806020838503121561383257600080fd5b823567ffffffffffffffff81111561384957600080fd5b613855858286016135a6565b90969095509350505050565b6000610160828403121561387457600080fd5b50919050565b60006020828403121561388c57600080fd5b813567ffffffffffffffff8111156138a357600080fd5b61283084828501613861565b600080600080606085870312156138c557600080fd5b843567ffffffffffffffff808211156138dd57600080fd5b6138e988838901613861565b9550602087013591506138fb826133d0565b9093506040860135908082111561369c57600080fd5b634e487b7160e01b600052601160045260246000fd5b80820180821115610df957610df9613911565b60006001820161394c5761394c613911565b5060010190565b60005b8381101561396e578181015183820152602001613956565b50506000910152565b6000815180845261398f816020860160208601613953565b601f01601f19169290920160200192915050565b8281526040602082015260006128306040830184613977565b634e487b7160e01b600052603260045260246000fd5b6000823561015e198336030181126139e957600080fd5b9190910192915050565b81810381811115610df957610df9613911565b60008235605e198336030181126139e957600080fd5b6000808335601e19843603018112613a3357600080fd5b83018035915067ffffffffffffffff821115613a4e57600080fd5b6020019150600581901b36038213156135e857600080fd5b6000808335601e19843603018112613a7d57600080fd5b83018035915067ffffffffffffffff821115613a9857600080fd5b6020019150368190038213156135e857600080fd5b6000808335601e19843603018112613ac457600080fd5b830160208101925035905067ffffffffffffffff811115613ae457600080fd5b8036038213156135e857600080fd5b81835281816020850137506000828201602090810191909152601f909101601f19169091010190565b6000610160613b3b84613b2e856133e5565b6001600160a01b03169052565b60208301356020850152613b526040840184613aad565b826040870152613b658387018284613af3565b92505050613b766060840184613aad565b8583036060870152613b89838284613af3565b925050506080830135608085015260a083013560a085015260c083013560c085015260e083013560e0850152610100808401358186015250610120613bd081850185613aad565b86840383880152613be2848284613af3565b9350505050610140613bf681850185613aad565b86840383880152613c08848284613af3565b979650505050505050565b6040808252810184905260006060600586901b830181019083018783805b89811015613c7957868503605f190184528235368c900361015e19018112613c57578283fd5b613c63868d8301613b1c565b9550506020938401939290920191600101613c31565b505050508281036020840152613c08818587613af3565b60008085851115613ca057600080fd5b83861115613cad57600080fd5b5050820193919092039150565b6bffffffffffffffffffffffff198135818116916014851015613ce75780818660140360031b1b83161692505b505092915050565b602081526000612830602083018486613af3565b600060208284031215613d1557600080fd5b8151612ffd816133d0565b65ffffffffffff818116838216019080821115613d3f57613d3f613911565b5092915050565b8183823760009101908152919050565b868152856020820152600065ffffffffffff8087166040840152808616606084015250831515608083015260c060a0830152613d9560c0830184613977565b98975050505050505050565b80518252602081015160208301526040810151151560408301526000606082015165ffffffffffff8082166060860152806080850151166080860152505060a082015160c060a085015261283060c0850182613977565b6000610140808352613e0c81840189613da1565b915050613e26602083018780518252602090810151910152565b845160608301526020948501516080830152835160a08301529284015160c082015281516001600160a01b031660e0820152908301518051610100830152909201516101209092019190915292915050565b60e081526000613e8b60e0830187613da1565b9050613ea4602083018680518252602090810151910152565b8351606083015260208401516080830152825160a0830152602083015160c083015295945050505050565b634e487b7160e01b600052602160045260246000fd5b600060038510613f0557634e487b7160e01b600052602160045260246000fd5b84825260606020830152613f1c6060830185613977565b9050826040830152949350505050565b600060033d1115613f455760046000803e5060005160e01c5b90565b600060443d1015613f565790565b6040516003193d81016004833e81513d67ffffffffffffffff8160248401118184111715613f8657505050505090565b8285019150815181811115613f9e5750505050505090565b843d8701016020828501011115613fb85750505050505090565b613fc760208286010187613482565b509095945050505050565b7f4141353020706f73744f702072657665727465643a200000000000000000000081526000825161400a816016850160208701613953565b9190910160160192915050565b60006101c080835261402c8184018789613af3565b905084516001600160a01b03808251166020860152602082015160408601526040820151606086015260608201516080860152608082015160a08601528060a08301511660c08601525060c081015160e085015260e08101516101008501525060208501516101208401526040850151610140840152606085015161016084015260808501516101808401528281036101a0840152613c088185613977565b6000602082840312156140dd57600080fd5b5051919050565b6060815260006140f8606083018789613af3565b6001600160a01b03861660208401528281036040840152613d95818587613af3565b60608152600061412d6060830186613b1c565b60208301949094525060400152919050565b7f414132332072657665727465643a20000000000000000000000000000000000081526000825161417781600f850160208701613953565b91909101600f0192915050565b6000806040838503121561419757600080fd5b825167ffffffffffffffff8111156141ae57600080fd5b8301601f810185136141bf57600080fd5b80516141ca816134af565b6040516141d78282613482565b8281528760208486010111156141ec57600080fd5b6141fd836020830160208701613953565b6020969096015195979596505050505050565b7f414133332072657665727465643a20000000000000000000000000000000000081526000825161417781600f85016020870161395356fea2646970667358221220e1d460ab6e1531c6c3f4396897a65b44c3c7bc19ae84cda8584292c62cde1c5164736f6c63430008130033608060405234801561001057600080fd5b50610200806100206000396000f3fe608060405234801561001057600080fd5b506004361061002b5760003560e01c8063570e1a3614610030575b600080fd5b61004361003e3660046100f9565b61006c565b60405173ffffffffffffffffffffffffffffffffffffffff909116815260200160405180910390f35b60008061007c601482858761016b565b61008591610195565b60601c90506000610099846014818861016b565b8080601f016020809104026020016040519081016040528093929190818152602001838380828437600092018290525084519495509360209350849250905082850182875af190506000519350806100f057600093505b50505092915050565b6000806020838503121561010c57600080fd5b823567ffffffffffffffff8082111561012457600080fd5b818501915085601f83011261013857600080fd5b81358181111561014757600080fd5b86602082850101111561015957600080fd5b60209290920196919550909350505050565b6000808585111561017b57600080fd5b8386111561018857600080fd5b5050820193919092039150565b6bffffffffffffffffffffffff1981358181169160148510156101c25780818660140360031b1b83161692505b50509291505056fea2646970667358221220c79eae76cff7de1382b1236d4f9efecc81eee206eb9634936fe9760371f74abc64736f6c63430008130033","opcodes":"PUSH1 0xA0 PUSH1 0x40 MSTORE PUSH1 0x40 MLOAD PUSH3 0x12 SWAP1 PUSH3 0x55 JUMP JUMPDEST PUSH1 0x40 MLOAD DUP1 SWAP2 SUB SWAP1 PUSH1 0x0 CREATE DUP1 ISZERO DUP1 ISZERO PUSH3 0x2F JUMPI RETURNDATASIZE PUSH1 0x0 DUP1 RETURNDATACOPY RETURNDATASIZE PUSH1 0x0 REVERT JUMPDEST POP PUSH1 0x1 PUSH1 0x1 PUSH1 0xA0 SHL SUB AND PUSH1 0x80 MSTORE CALLVALUE DUP1 ISZERO PUSH3 0x49 JUMPI PUSH1 0x0 DUP1 REVERT JUMPDEST POP PUSH1 0x1 PUSH1 0x2 SSTORE PUSH3 0x63 JUMP JUMPDEST PUSH2 0x220 DUP1 PUSH3 0x4304 DUP4 CODECOPY ADD SWAP1 JUMP JUMPDEST PUSH1 0x80 MLOAD PUSH2 0x427E PUSH3 0x86 PUSH1 0x0 CODECOPY PUSH1 0x0 DUP2 DUP2 PUSH2 0x1373 ADD MSTORE PUSH2 0x308F ADD MSTORE PUSH2 0x427E PUSH1 0x0 RETURN INVALID PUSH1 0x80 PUSH1 0x40 MSTORE PUSH1 0x4 CALLDATASIZE LT PUSH2 0x163 JUMPI PUSH1 0x0 CALLDATALOAD PUSH1 0xE0 SHR DUP1 PUSH4 0x8F41EC5A GT PUSH2 0xC0 JUMPI DUP1 PUSH4 0xBB9FE6BF GT PUSH2 0x74 JUMPI DUP1 PUSH4 0xD6383F94 GT PUSH2 0x59 JUMPI DUP1 PUSH4 0xD6383F94 EQ PUSH2 0x4AF JUMPI DUP1 PUSH4 0xEE219423 EQ PUSH2 0x4CF JUMPI DUP1 PUSH4 0xFC7E286D EQ PUSH2 0x4EF JUMPI PUSH1 0x0 DUP1 REVERT JUMPDEST DUP1 PUSH4 0xBB9FE6BF EQ PUSH2 0x47A JUMPI DUP1 PUSH4 0xC23A5CEA EQ PUSH2 0x48F JUMPI PUSH1 0x0 DUP1 REVERT JUMPDEST DUP1 PUSH4 0x9B249F69 GT PUSH2 0xA5 JUMPI DUP1 PUSH4 0x9B249F69 EQ PUSH2 0x427 JUMPI DUP1 PUSH4 0xA6193531 EQ PUSH2 0x447 JUMPI DUP1 PUSH4 0xB760FAF9 EQ PUSH2 0x467 JUMPI PUSH1 0x0 DUP1 REVERT JUMPDEST DUP1 PUSH4 0x8F41EC5A EQ PUSH2 0x3F2 JUMPI DUP1 PUSH4 0x957122AB EQ PUSH2 0x407 JUMPI PUSH1 0x0 DUP1 REVERT JUMPDEST DUP1 PUSH4 0x205C2878 GT PUSH2 0x117 JUMPI DUP1 PUSH4 0x4B1D7CF5 GT PUSH2 0xFC JUMPI DUP1 PUSH4 0x4B1D7CF5 EQ PUSH2 0x276 JUMPI DUP1 PUSH4 0x5287CE12 EQ PUSH2 0x296 JUMPI DUP1 PUSH4 0x70A08231 EQ PUSH2 0x3B3 JUMPI PUSH1 0x0 DUP1 REVERT JUMPDEST DUP1 PUSH4 0x205C2878 EQ PUSH2 0x236 JUMPI DUP1 PUSH4 0x35567E1A EQ PUSH2 0x256 JUMPI PUSH1 0x0 DUP1 REVERT JUMPDEST DUP1 PUSH4 0x1B2E01B8 GT PUSH2 0x148 JUMPI DUP1 PUSH4 0x1B2E01B8 EQ PUSH2 0x1AB JUMPI DUP1 PUSH4 0x1D732756 EQ PUSH2 0x1F6 JUMPI DUP1 PUSH4 0x1FAD948C EQ PUSH2 0x216 JUMPI PUSH1 0x0 DUP1 REVERT JUMPDEST DUP1 PUSH4 0x396CB60 EQ PUSH2 0x178 JUMPI DUP1 PUSH4 0xBD28E3B EQ PUSH2 0x18B JUMPI PUSH1 0x0 DUP1 REVERT JUMPDEST CALLDATASIZE PUSH2 0x173 JUMPI PUSH2 0x171 CALLER PUSH2 0x5A4 JUMP JUMPDEST STOP JUMPDEST PUSH1 0x0 DUP1 REVERT JUMPDEST PUSH2 0x171 PUSH2 0x186 CALLDATASIZE PUSH1 0x4 PUSH2 0x3362 JUMP JUMPDEST PUSH2 0x60B JUMP JUMPDEST CALLVALUE DUP1 ISZERO PUSH2 0x197 JUMPI PUSH1 0x0 DUP1 REVERT JUMPDEST POP PUSH2 0x171 PUSH2 0x1A6 CALLDATASIZE PUSH1 0x4 PUSH2 0x33B5 JUMP JUMPDEST PUSH2 0x8C9 JUMP JUMPDEST CALLVALUE DUP1 ISZERO PUSH2 0x1B7 JUMPI PUSH1 0x0 DUP1 REVERT JUMPDEST POP PUSH2 0x1E3 PUSH2 0x1C6 CALLDATASIZE PUSH1 0x4 PUSH2 0x33F0 JUMP JUMPDEST PUSH1 0x1 PUSH1 0x20 SWAP1 DUP2 MSTORE PUSH1 0x0 SWAP3 DUP4 MSTORE PUSH1 0x40 DUP1 DUP5 KECCAK256 SWAP1 SWAP2 MSTORE SWAP1 DUP3 MSTORE SWAP1 KECCAK256 SLOAD DUP2 JUMP JUMPDEST PUSH1 0x40 MLOAD SWAP1 DUP2 MSTORE PUSH1 0x20 ADD JUMPDEST PUSH1 0x40 MLOAD DUP1 SWAP2 SUB SWAP1 RETURN JUMPDEST CALLVALUE DUP1 ISZERO PUSH2 0x202 JUMPI PUSH1 0x0 DUP1 REVERT JUMPDEST POP PUSH2 0x1E3 PUSH2 0x211 CALLDATASIZE PUSH1 0x4 PUSH2 0x35EF JUMP JUMPDEST PUSH2 0x911 JUMP JUMPDEST CALLVALUE DUP1 ISZERO PUSH2 0x222 JUMPI PUSH1 0x0 DUP1 REVERT JUMPDEST POP PUSH2 0x171 PUSH2 0x231 CALLDATASIZE PUSH1 0x4 PUSH2 0x36FA JUMP JUMPDEST PUSH2 0xA9D JUMP JUMPDEST CALLVALUE DUP1 ISZERO PUSH2 0x242 JUMPI PUSH1 0x0 DUP1 REVERT JUMPDEST POP PUSH2 0x171 PUSH2 0x251 CALLDATASIZE PUSH1 0x4 PUSH2 0x3751 JUMP JUMPDEST PUSH2 0xC1A JUMP JUMPDEST CALLVALUE DUP1 ISZERO PUSH2 0x262 JUMPI PUSH1 0x0 DUP1 REVERT JUMPDEST POP PUSH2 0x1E3 PUSH2 0x271 CALLDATASIZE PUSH1 0x4 PUSH2 0x33F0 JUMP JUMPDEST PUSH2 0xDA8 JUMP JUMPDEST CALLVALUE DUP1 ISZERO PUSH2 0x282 JUMPI PUSH1 0x0 DUP1 REVERT JUMPDEST POP PUSH2 0x171 PUSH2 0x291 CALLDATASIZE PUSH1 0x4 PUSH2 0x36FA JUMP JUMPDEST PUSH2 0xDFF JUMP JUMPDEST CALLVALUE DUP1 ISZERO PUSH2 0x2A2 JUMPI PUSH1 0x0 DUP1 REVERT JUMPDEST POP PUSH2 0x35B PUSH2 0x2B1 CALLDATASIZE PUSH1 0x4 PUSH2 0x377D JUMP JUMPDEST PUSH1 0x40 DUP1 MLOAD PUSH1 0xA0 DUP2 ADD DUP3 MSTORE PUSH1 0x0 DUP1 DUP3 MSTORE PUSH1 0x20 DUP3 ADD DUP2 SWAP1 MSTORE SWAP2 DUP2 ADD DUP3 SWAP1 MSTORE PUSH1 0x60 DUP2 ADD DUP3 SWAP1 MSTORE PUSH1 0x80 DUP2 ADD SWAP2 SWAP1 SWAP2 MSTORE POP PUSH1 0x1 PUSH1 0x1 PUSH1 0xA0 SHL SUB AND PUSH1 0x0 SWAP1 DUP2 MSTORE PUSH1 0x20 DUP2 DUP2 MSTORE PUSH1 0x40 SWAP2 DUP3 SWAP1 KECCAK256 DUP3 MLOAD PUSH1 0xA0 DUP2 ADD DUP5 MSTORE DUP2 SLOAD PUSH1 0x1 PUSH1 0x1 PUSH1 0x70 SHL SUB DUP1 DUP3 AND DUP4 MSTORE PUSH1 0x1 PUSH1 0x70 SHL DUP3 DIV PUSH1 0xFF AND ISZERO ISZERO SWAP5 DUP4 ADD SWAP5 SWAP1 SWAP5 MSTORE PUSH1 0x1 PUSH1 0x78 SHL SWAP1 DIV SWAP1 SWAP3 AND SWAP3 DUP3 ADD SWAP3 SWAP1 SWAP3 MSTORE PUSH1 0x1 SWAP1 SWAP2 ADD SLOAD PUSH4 0xFFFFFFFF DUP2 AND PUSH1 0x60 DUP4 ADD MSTORE PUSH5 0x100000000 SWAP1 DIV PUSH6 0xFFFFFFFFFFFF AND PUSH1 0x80 DUP3 ADD MSTORE SWAP1 JUMP JUMPDEST PUSH1 0x40 DUP1 MLOAD DUP3 MLOAD PUSH1 0x1 PUSH1 0x1 PUSH1 0x70 SHL SUB SWAP1 DUP2 AND DUP3 MSTORE PUSH1 0x20 DUP1 DUP6 ADD MLOAD ISZERO ISZERO SWAP1 DUP4 ADD MSTORE DUP4 DUP4 ADD MLOAD AND SWAP2 DUP2 ADD SWAP2 SWAP1 SWAP2 MSTORE PUSH1 0x60 DUP1 DUP4 ADD MLOAD PUSH4 0xFFFFFFFF AND SWAP1 DUP3 ADD MSTORE PUSH1 0x80 SWAP2 DUP3 ADD MLOAD PUSH6 0xFFFFFFFFFFFF AND SWAP2 DUP2 ADD SWAP2 SWAP1 SWAP2 MSTORE PUSH1 0xA0 ADD PUSH2 0x1ED JUMP JUMPDEST CALLVALUE DUP1 ISZERO PUSH2 0x3BF JUMPI PUSH1 0x0 DUP1 REVERT JUMPDEST POP PUSH2 0x1E3 PUSH2 0x3CE CALLDATASIZE PUSH1 0x4 PUSH2 0x377D JUMP JUMPDEST PUSH1 0x1 PUSH1 0x1 PUSH1 0xA0 SHL SUB AND PUSH1 0x0 SWAP1 DUP2 MSTORE PUSH1 0x20 DUP2 SWAP1 MSTORE PUSH1 0x40 SWAP1 KECCAK256 SLOAD PUSH1 0x1 PUSH1 0x1 PUSH1 0x70 SHL SUB AND SWAP1 JUMP JUMPDEST CALLVALUE DUP1 ISZERO PUSH2 0x3FE JUMPI PUSH1 0x0 DUP1 REVERT JUMPDEST POP PUSH2 0x1E3 PUSH1 0x1 DUP2 JUMP JUMPDEST CALLVALUE DUP1 ISZERO PUSH2 0x413 JUMPI PUSH1 0x0 DUP1 REVERT JUMPDEST POP PUSH2 0x171 PUSH2 0x422 CALLDATASIZE PUSH1 0x4 PUSH2 0x379A JUMP JUMPDEST PUSH2 0x125C JUMP JUMPDEST CALLVALUE DUP1 ISZERO PUSH2 0x433 JUMPI PUSH1 0x0 DUP1 REVERT JUMPDEST POP PUSH2 0x171 PUSH2 0x442 CALLDATASIZE PUSH1 0x4 PUSH2 0x381F JUMP JUMPDEST PUSH2 0x1359 JUMP JUMPDEST CALLVALUE DUP1 ISZERO PUSH2 0x453 JUMPI PUSH1 0x0 DUP1 REVERT JUMPDEST POP PUSH2 0x1E3 PUSH2 0x462 CALLDATASIZE PUSH1 0x4 PUSH2 0x387A JUMP JUMPDEST PUSH2 0x142D JUMP JUMPDEST PUSH2 0x171 PUSH2 0x475 CALLDATASIZE PUSH1 0x4 PUSH2 0x377D JUMP JUMPDEST PUSH2 0x5A4 JUMP JUMPDEST CALLVALUE DUP1 ISZERO PUSH2 0x486 JUMPI PUSH1 0x0 DUP1 REVERT JUMPDEST POP PUSH2 0x171 PUSH2 0x146F JUMP JUMPDEST CALLVALUE DUP1 ISZERO PUSH2 0x49B JUMPI PUSH1 0x0 DUP1 REVERT JUMPDEST POP PUSH2 0x171 PUSH2 0x4AA CALLDATASIZE PUSH1 0x4 PUSH2 0x377D JUMP JUMPDEST PUSH2 0x15C2 JUMP JUMPDEST CALLVALUE DUP1 ISZERO PUSH2 0x4BB JUMPI PUSH1 0x0 DUP1 REVERT JUMPDEST POP PUSH2 0x171 PUSH2 0x4CA CALLDATASIZE PUSH1 0x4 PUSH2 0x38AF JUMP JUMPDEST PUSH2 0x1818 JUMP JUMPDEST CALLVALUE DUP1 ISZERO PUSH2 0x4DB JUMPI PUSH1 0x0 DUP1 REVERT JUMPDEST POP PUSH2 0x171 PUSH2 0x4EA CALLDATASIZE PUSH1 0x4 PUSH2 0x387A JUMP JUMPDEST PUSH2 0x192C JUMP JUMPDEST CALLVALUE DUP1 ISZERO PUSH2 0x4FB JUMPI PUSH1 0x0 DUP1 REVERT JUMPDEST POP PUSH2 0x55E PUSH2 0x50A CALLDATASIZE PUSH1 0x4 PUSH2 0x377D JUMP JUMPDEST PUSH1 0x0 PUSH1 0x20 DUP2 SWAP1 MSTORE SWAP1 DUP2 MSTORE PUSH1 0x40 SWAP1 KECCAK256 DUP1 SLOAD PUSH1 0x1 SWAP1 SWAP2 ADD SLOAD PUSH1 0x1 PUSH1 0x1 PUSH1 0x70 SHL SUB DUP1 DUP4 AND SWAP3 PUSH1 0x1 PUSH1 0x70 SHL DUP2 DIV PUSH1 0xFF AND SWAP3 PUSH1 0x1 PUSH1 0x78 SHL SWAP1 SWAP2 DIV SWAP1 SWAP2 AND SWAP1 PUSH4 0xFFFFFFFF DUP2 AND SWAP1 PUSH5 0x100000000 SWAP1 DIV PUSH6 0xFFFFFFFFFFFF AND DUP6 JUMP JUMPDEST PUSH1 0x40 DUP1 MLOAD PUSH1 0x1 PUSH1 0x1 PUSH1 0x70 SHL SUB SWAP7 DUP8 AND DUP2 MSTORE SWAP5 ISZERO ISZERO PUSH1 0x20 DUP7 ADD MSTORE SWAP3 SWAP1 SWAP5 AND SWAP2 DUP4 ADD SWAP2 SWAP1 SWAP2 MSTORE PUSH4 0xFFFFFFFF AND PUSH1 0x60 DUP3 ADD MSTORE PUSH6 0xFFFFFFFFFFFF SWAP1 SWAP2 AND PUSH1 0x80 DUP3 ADD MSTORE PUSH1 0xA0 ADD PUSH2 0x1ED JUMP JUMPDEST PUSH2 0x5AE DUP2 CALLVALUE PUSH2 0x1C00 JUMP JUMPDEST PUSH1 0x1 PUSH1 0x1 PUSH1 0xA0 SHL SUB DUP2 AND PUSH1 0x0 DUP2 DUP2 MSTORE PUSH1 0x20 DUP2 DUP2 MSTORE PUSH1 0x40 SWAP2 DUP3 SWAP1 KECCAK256 DUP1 SLOAD SWAP3 MLOAD PUSH1 0x1 PUSH1 0x1 PUSH1 0x70 SHL SUB SWAP1 SWAP4 AND DUP4 MSTORE SWAP3 SWAP2 PUSH32 0x2DA466A7B24304F47E87FA2E1E5A81B9831CE54FEC19055CE277CA2F39BA42C4 SWAP2 ADD JUMPDEST PUSH1 0x40 MLOAD DUP1 SWAP2 SUB SWAP1 LOG2 POP POP JUMP JUMPDEST CALLER PUSH1 0x0 SWAP1 DUP2 MSTORE PUSH1 0x20 DUP2 SWAP1 MSTORE PUSH1 0x40 SWAP1 KECCAK256 PUSH4 0xFFFFFFFF DUP3 AND PUSH2 0x672 JUMPI PUSH1 0x40 MLOAD PUSH3 0x461BCD PUSH1 0xE5 SHL DUP2 MSTORE PUSH1 0x20 PUSH1 0x4 DUP3 ADD MSTORE PUSH1 0x1A PUSH1 0x24 DUP3 ADD MSTORE PUSH32 0x6D757374207370656369667920756E7374616B652064656C6179000000000000 PUSH1 0x44 DUP3 ADD MSTORE PUSH1 0x64 ADD JUMPDEST PUSH1 0x40 MLOAD DUP1 SWAP2 SUB SWAP1 REVERT JUMPDEST PUSH1 0x1 DUP2 ADD SLOAD PUSH4 0xFFFFFFFF SWAP1 DUP2 AND SWAP1 DUP4 AND LT ISZERO PUSH2 0x6D0 JUMPI PUSH1 0x40 MLOAD PUSH3 0x461BCD PUSH1 0xE5 SHL DUP2 MSTORE PUSH1 0x20 PUSH1 0x4 DUP3 ADD MSTORE PUSH1 0x1C PUSH1 0x24 DUP3 ADD MSTORE PUSH32 0x63616E6E6F7420646563726561736520756E7374616B652074696D6500000000 PUSH1 0x44 DUP3 ADD MSTORE PUSH1 0x64 ADD PUSH2 0x669 JUMP JUMPDEST DUP1 SLOAD PUSH1 0x0 SWAP1 PUSH2 0x6F0 SWAP1 CALLVALUE SWAP1 PUSH1 0x1 PUSH1 0x78 SHL SWAP1 DIV PUSH1 0x1 PUSH1 0x1 PUSH1 0x70 SHL SUB AND PUSH2 0x3927 JUMP JUMPDEST SWAP1 POP PUSH1 0x0 DUP2 GT PUSH2 0x742 JUMPI PUSH1 0x40 MLOAD PUSH3 0x461BCD PUSH1 0xE5 SHL DUP2 MSTORE PUSH1 0x20 PUSH1 0x4 DUP3 ADD MSTORE PUSH1 0x12 PUSH1 0x24 DUP3 ADD MSTORE PUSH32 0x6E6F207374616B65207370656369666965640000000000000000000000000000 PUSH1 0x44 DUP3 ADD MSTORE PUSH1 0x64 ADD PUSH2 0x669 JUMP JUMPDEST PUSH1 0x1 PUSH1 0x1 PUSH1 0x70 SHL SUB DUP2 GT ISZERO PUSH2 0x799 JUMPI PUSH1 0x40 MLOAD PUSH3 0x461BCD PUSH1 0xE5 SHL DUP2 MSTORE PUSH1 0x20 PUSH1 0x4 DUP3 ADD MSTORE PUSH1 0xE PUSH1 0x24 DUP3 ADD MSTORE PUSH32 0x7374616B65206F766572666C6F77000000000000000000000000000000000000 PUSH1 0x44 DUP3 ADD MSTORE PUSH1 0x64 ADD PUSH2 0x669 JUMP JUMPDEST PUSH1 0x40 DUP1 MLOAD PUSH1 0xA0 DUP2 ADD DUP3 MSTORE DUP4 SLOAD PUSH1 0x1 PUSH1 0x1 PUSH1 0x70 SHL SUB SWAP1 DUP2 AND DUP3 MSTORE PUSH1 0x1 PUSH1 0x20 DUP1 DUP5 ADD DUP3 DUP2 MSTORE DUP7 DUP5 AND DUP6 DUP8 ADD SWAP1 DUP2 MSTORE PUSH4 0xFFFFFFFF DUP1 DUP12 AND PUSH1 0x60 DUP9 ADD SWAP1 DUP2 MSTORE PUSH1 0x0 PUSH1 0x80 DUP10 ADD DUP2 DUP2 MSTORE CALLER DUP1 DUP4 MSTORE SWAP7 DUP3 SWAP1 MSTORE SWAP1 DUP11 SWAP1 KECCAK256 SWAP9 MLOAD DUP10 SLOAD SWAP6 MLOAD SWAP5 MLOAD DUP10 AND PUSH1 0x1 PUSH1 0x78 SHL MUL PUSH32 0xFFFFFF0000000000000000000000000000FFFFFFFFFFFFFFFFFFFFFFFFFFFFFF SWAP6 ISZERO ISZERO PUSH1 0x1 PUSH1 0x70 SHL MUL PUSH15 0xFFFFFFFFFFFFFFFFFFFFFFFFFFFFFF NOT SWAP1 SWAP8 AND SWAP2 SWAP1 SWAP10 AND OR SWAP5 SWAP1 SWAP5 OR SWAP3 SWAP1 SWAP3 AND SWAP6 SWAP1 SWAP6 OR DUP7 SSTORE MLOAD SWAP5 SWAP1 SWAP3 ADD DUP1 SLOAD SWAP3 MLOAD PUSH6 0xFFFFFFFFFFFF AND PUSH5 0x100000000 MUL PUSH10 0xFFFFFFFFFFFFFFFFFFFF NOT SWAP1 SWAP4 AND SWAP5 SWAP1 SWAP4 AND SWAP4 SWAP1 SWAP4 OR OR SWAP1 SSTORE SWAP1 MLOAD PUSH32 0xA5AE833D0BB1DCD632D98A8B70973E8516812898E19BF27B70071EBC8DC52C01 SWAP1 PUSH2 0x8BC SWAP1 DUP5 SWAP1 DUP8 SWAP1 SWAP2 DUP3 MSTORE PUSH4 0xFFFFFFFF AND PUSH1 0x20 DUP3 ADD MSTORE PUSH1 0x40 ADD SWAP1 JUMP JUMPDEST PUSH1 0x40 MLOAD DUP1 SWAP2 SUB SWAP1 LOG2 POP POP POP JUMP JUMPDEST CALLER PUSH1 0x0 SWAP1 DUP2 MSTORE PUSH1 0x1 PUSH1 0x20 SWAP1 DUP2 MSTORE PUSH1 0x40 DUP1 DUP4 KECCAK256 PUSH24 0xFFFFFFFFFFFFFFFFFFFFFFFFFFFFFFFFFFFFFFFFFFFFFFFF DUP6 AND DUP5 MSTORE SWAP1 SWAP2 MSTORE DUP2 KECCAK256 DUP1 SLOAD SWAP2 PUSH2 0x909 DUP4 PUSH2 0x393A JUMP JUMPDEST SWAP2 SWAP1 POP SSTORE POP POP JUMP JUMPDEST PUSH1 0x0 DUP1 GAS SWAP1 POP CALLER ADDRESS EQ PUSH2 0x966 JUMPI PUSH1 0x40 MLOAD PUSH3 0x461BCD PUSH1 0xE5 SHL DUP2 MSTORE PUSH1 0x20 PUSH1 0x4 DUP3 ADD MSTORE PUSH1 0x17 PUSH1 0x24 DUP3 ADD MSTORE PUSH32 0x4141393220696E7465726E616C2063616C6C206F6E6C79000000000000000000 PUSH1 0x44 DUP3 ADD MSTORE PUSH1 0x64 ADD PUSH2 0x669 JUMP JUMPDEST DUP5 MLOAD PUSH1 0x40 DUP2 ADD MLOAD PUSH1 0x60 DUP3 ADD MLOAD DUP2 ADD PUSH2 0x1388 ADD GAS LT ISZERO PUSH2 0x9A9 JUMPI PUSH32 0xDEADDEAD00000000000000000000000000000000000000000000000000000000 PUSH1 0x0 MSTORE PUSH1 0x20 PUSH1 0x0 REVERT JUMPDEST DUP8 MLOAD PUSH1 0x0 SWAP1 ISZERO PUSH2 0xA3D JUMPI PUSH1 0x0 PUSH2 0x9C6 DUP5 PUSH1 0x0 ADD MLOAD PUSH1 0x0 DUP13 DUP7 PUSH2 0x1CB0 JUMP JUMPDEST SWAP1 POP DUP1 PUSH2 0xA3B JUMPI PUSH1 0x0 PUSH2 0x9DA PUSH2 0x800 PUSH2 0x1CC8 JUMP JUMPDEST DUP1 MLOAD SWAP1 SWAP2 POP ISZERO PUSH2 0xA35 JUMPI DUP5 PUSH1 0x0 ADD MLOAD PUSH1 0x1 PUSH1 0x1 PUSH1 0xA0 SHL SUB AND DUP11 PUSH1 0x20 ADD MLOAD PUSH32 0x1C4FADA7374C0A9EE8841FC38AFE82932DC0F8E69012E927F061A8BAE611A201 DUP8 PUSH1 0x20 ADD MLOAD DUP5 PUSH1 0x40 MLOAD PUSH2 0xA2C SWAP3 SWAP2 SWAP1 PUSH2 0x39A3 JUMP JUMPDEST PUSH1 0x40 MLOAD DUP1 SWAP2 SUB SWAP1 LOG3 JUMPDEST PUSH1 0x1 SWAP3 POP POP JUMPDEST POP JUMPDEST PUSH1 0x0 DUP9 PUSH1 0x80 ADD MLOAD GAS DUP7 SUB ADD SWAP1 POP PUSH2 0xA8F PUSH1 0x0 DUP4 DUP12 DUP12 DUP12 DUP1 DUP1 PUSH1 0x1F ADD PUSH1 0x20 DUP1 SWAP2 DIV MUL PUSH1 0x20 ADD PUSH1 0x40 MLOAD SWAP1 DUP2 ADD PUSH1 0x40 MSTORE DUP1 SWAP4 SWAP3 SWAP2 SWAP1 DUP2 DUP2 MSTORE PUSH1 0x20 ADD DUP4 DUP4 DUP1 DUP3 DUP5 CALLDATACOPY PUSH1 0x0 SWAP3 ADD SWAP2 SWAP1 SWAP2 MSTORE POP DUP9 SWAP3 POP PUSH2 0x1CF4 SWAP2 POP POP JUMP JUMPDEST SWAP11 SWAP10 POP POP POP POP POP POP POP POP POP POP JUMP JUMPDEST PUSH2 0xAA5 PUSH2 0x1FF6 JUMP JUMPDEST DUP2 PUSH1 0x0 DUP2 PUSH8 0xFFFFFFFFFFFFFFFF DUP2 GT ISZERO PUSH2 0xAC1 JUMPI PUSH2 0xAC1 PUSH2 0x3425 JUMP JUMPDEST PUSH1 0x40 MLOAD SWAP1 DUP1 DUP3 MSTORE DUP1 PUSH1 0x20 MUL PUSH1 0x20 ADD DUP3 ADD PUSH1 0x40 MSTORE DUP1 ISZERO PUSH2 0xAFA JUMPI DUP2 PUSH1 0x20 ADD JUMPDEST PUSH2 0xAE7 PUSH2 0x32D8 JUMP JUMPDEST DUP2 MSTORE PUSH1 0x20 ADD SWAP1 PUSH1 0x1 SWAP1 SUB SWAP1 DUP2 PUSH2 0xADF JUMPI SWAP1 POP JUMPDEST POP SWAP1 POP PUSH1 0x0 JUMPDEST DUP3 DUP2 LT ISZERO PUSH2 0xB73 JUMPI PUSH1 0x0 DUP3 DUP3 DUP2 MLOAD DUP2 LT PUSH2 0xB1C JUMPI PUSH2 0xB1C PUSH2 0x39BC JUMP JUMPDEST PUSH1 0x20 MUL PUSH1 0x20 ADD ADD MLOAD SWAP1 POP PUSH1 0x0 DUP1 PUSH2 0xB57 DUP5 DUP11 DUP11 DUP8 DUP2 DUP2 LT PUSH2 0xB3F JUMPI PUSH2 0xB3F PUSH2 0x39BC JUMP JUMPDEST SWAP1 POP PUSH1 0x20 MUL DUP2 ADD SWAP1 PUSH2 0xB51 SWAP2 SWAP1 PUSH2 0x39D2 JUMP JUMPDEST DUP6 PUSH2 0x204D JUMP JUMPDEST SWAP2 POP SWAP2 POP PUSH2 0xB68 DUP5 DUP4 DUP4 PUSH1 0x0 PUSH2 0x2238 JUMP JUMPDEST POP POP POP PUSH1 0x1 ADD PUSH2 0xB00 JUMP JUMPDEST POP PUSH1 0x40 MLOAD PUSH1 0x0 SWAP1 PUSH32 0xBB47EE3E183A558B1A2FF0874B079F3FC5478B7454EACF2BFC5AF2FF5878F972 SWAP1 DUP3 SWAP1 LOG1 PUSH1 0x0 JUMPDEST DUP4 DUP2 LT ISZERO PUSH2 0xBFD JUMPI PUSH2 0xBF1 DUP2 DUP9 DUP9 DUP5 DUP2 DUP2 LT PUSH2 0xBC0 JUMPI PUSH2 0xBC0 PUSH2 0x39BC JUMP JUMPDEST SWAP1 POP PUSH1 0x20 MUL DUP2 ADD SWAP1 PUSH2 0xBD2 SWAP2 SWAP1 PUSH2 0x39D2 JUMP JUMPDEST DUP6 DUP5 DUP2 MLOAD DUP2 LT PUSH2 0xBE4 JUMPI PUSH2 0xBE4 PUSH2 0x39BC JUMP JUMPDEST PUSH1 0x20 MUL PUSH1 0x20 ADD ADD MLOAD PUSH2 0x2402 JUMP JUMPDEST SWAP1 SWAP2 ADD SWAP1 PUSH1 0x1 ADD PUSH2 0xBA2 JUMP JUMPDEST POP PUSH2 0xC08 DUP5 DUP3 PUSH2 0x2550 JUMP JUMPDEST POP POP POP PUSH2 0xC15 PUSH1 0x1 PUSH1 0x2 SSTORE JUMP JUMPDEST POP POP POP JUMP JUMPDEST CALLER PUSH1 0x0 SWAP1 DUP2 MSTORE PUSH1 0x20 DUP2 SWAP1 MSTORE PUSH1 0x40 SWAP1 KECCAK256 DUP1 SLOAD PUSH1 0x1 PUSH1 0x1 PUSH1 0x70 SHL SUB AND DUP3 GT ISZERO PUSH2 0xC83 JUMPI PUSH1 0x40 MLOAD PUSH3 0x461BCD PUSH1 0xE5 SHL DUP2 MSTORE PUSH1 0x20 PUSH1 0x4 DUP3 ADD MSTORE PUSH1 0x19 PUSH1 0x24 DUP3 ADD MSTORE PUSH32 0x576974686472617720616D6F756E7420746F6F206C6172676500000000000000 PUSH1 0x44 DUP3 ADD MSTORE PUSH1 0x64 ADD PUSH2 0x669 JUMP JUMPDEST DUP1 SLOAD PUSH2 0xC99 SWAP1 DUP4 SWAP1 PUSH1 0x1 PUSH1 0x1 PUSH1 0x70 SHL SUB AND PUSH2 0x39F3 JUMP JUMPDEST DUP2 SLOAD PUSH14 0xFFFFFFFFFFFFFFFFFFFFFFFFFFFF NOT AND PUSH1 0x1 PUSH1 0x1 PUSH1 0x70 SHL SUB SWAP2 SWAP1 SWAP2 AND OR DUP2 SSTORE PUSH1 0x40 DUP1 MLOAD PUSH1 0x1 PUSH1 0x1 PUSH1 0xA0 SHL SUB DUP6 AND DUP2 MSTORE PUSH1 0x20 DUP2 ADD DUP5 SWAP1 MSTORE CALLER SWAP2 PUSH32 0xD1C19FBCD4551A5EDFB66D43D2E337C04837AFDA3482B42BDF569A8FCCDAE5FB SWAP2 ADD PUSH1 0x40 MLOAD DUP1 SWAP2 SUB SWAP1 LOG2 PUSH1 0x0 DUP4 PUSH1 0x1 PUSH1 0x1 PUSH1 0xA0 SHL SUB AND DUP4 PUSH1 0x40 MLOAD PUSH1 0x0 PUSH1 0x40 MLOAD DUP1 DUP4 SUB DUP2 DUP6 DUP8 GAS CALL SWAP3 POP POP POP RETURNDATASIZE DUP1 PUSH1 0x0 DUP2 EQ PUSH2 0xD4C JUMPI PUSH1 0x40 MLOAD SWAP2 POP PUSH1 0x1F NOT PUSH1 0x3F RETURNDATASIZE ADD AND DUP3 ADD PUSH1 0x40 MSTORE RETURNDATASIZE DUP3 MSTORE RETURNDATASIZE PUSH1 0x0 PUSH1 0x20 DUP5 ADD RETURNDATACOPY PUSH2 0xD51 JUMP JUMPDEST PUSH1 0x60 SWAP2 POP JUMPDEST POP POP SWAP1 POP DUP1 PUSH2 0xDA2 JUMPI PUSH1 0x40 MLOAD PUSH3 0x461BCD PUSH1 0xE5 SHL DUP2 MSTORE PUSH1 0x20 PUSH1 0x4 DUP3 ADD MSTORE PUSH1 0x12 PUSH1 0x24 DUP3 ADD MSTORE PUSH32 0x6661696C656420746F2077697468647261770000000000000000000000000000 PUSH1 0x44 DUP3 ADD MSTORE PUSH1 0x64 ADD PUSH2 0x669 JUMP JUMPDEST POP POP POP POP JUMP JUMPDEST PUSH1 0x1 PUSH1 0x1 PUSH1 0xA0 SHL SUB DUP3 AND PUSH1 0x0 SWAP1 DUP2 MSTORE PUSH1 0x1 PUSH1 0x20 SWAP1 DUP2 MSTORE PUSH1 0x40 DUP1 DUP4 KECCAK256 PUSH24 0xFFFFFFFFFFFFFFFFFFFFFFFFFFFFFFFFFFFFFFFFFFFFFFFF DUP6 AND DUP5 MSTORE SWAP1 SWAP2 MSTORE SWAP1 DUP2 SWAP1 KECCAK256 SLOAD SWAP1 DUP3 SWAP1 SHL PUSH8 0xFFFFFFFFFFFFFFFF NOT AND OR JUMPDEST SWAP3 SWAP2 POP POP JUMP JUMPDEST PUSH2 0xE07 PUSH2 0x1FF6 JUMP JUMPDEST DUP2 PUSH1 0x0 DUP1 JUMPDEST DUP3 DUP2 LT ISZERO PUSH2 0xF94 JUMPI CALLDATASIZE DUP7 DUP7 DUP4 DUP2 DUP2 LT PUSH2 0xE27 JUMPI PUSH2 0xE27 PUSH2 0x39BC JUMP JUMPDEST SWAP1 POP PUSH1 0x20 MUL DUP2 ADD SWAP1 PUSH2 0xE39 SWAP2 SWAP1 PUSH2 0x3A06 JUMP JUMPDEST SWAP1 POP CALLDATASIZE PUSH1 0x0 PUSH2 0xE48 DUP4 DUP1 PUSH2 0x3A1C JUMP JUMPDEST SWAP1 SWAP3 POP SWAP1 POP PUSH1 0x0 PUSH2 0xE5F PUSH1 0x40 DUP6 ADD PUSH1 0x20 DUP7 ADD PUSH2 0x377D JUMP JUMPDEST SWAP1 POP PUSH1 0x0 NOT PUSH1 0x1 PUSH1 0x1 PUSH1 0xA0 SHL SUB DUP3 AND ADD PUSH2 0xEBB JUMPI PUSH1 0x40 MLOAD PUSH3 0x461BCD PUSH1 0xE5 SHL DUP2 MSTORE PUSH1 0x20 PUSH1 0x4 DUP3 ADD MSTORE PUSH1 0x17 PUSH1 0x24 DUP3 ADD MSTORE PUSH32 0x4141393620696E76616C69642061676772656761746F72000000000000000000 PUSH1 0x44 DUP3 ADD MSTORE PUSH1 0x64 ADD PUSH2 0x669 JUMP JUMPDEST PUSH1 0x1 PUSH1 0x1 PUSH1 0xA0 SHL SUB DUP2 AND ISZERO PUSH2 0xF71 JUMPI PUSH1 0x1 PUSH1 0x1 PUSH1 0xA0 SHL SUB DUP2 AND PUSH4 0xE3563A4F DUP5 DUP5 PUSH2 0xEE8 PUSH1 0x40 DUP10 ADD DUP10 PUSH2 0x3A66 JUMP JUMPDEST PUSH1 0x40 MLOAD DUP6 PUSH4 0xFFFFFFFF AND PUSH1 0xE0 SHL DUP2 MSTORE PUSH1 0x4 ADD PUSH2 0xF07 SWAP5 SWAP4 SWAP3 SWAP2 SWAP1 PUSH2 0x3C13 JUMP JUMPDEST PUSH1 0x0 PUSH1 0x40 MLOAD DUP1 DUP4 SUB DUP2 DUP7 DUP1 EXTCODESIZE ISZERO DUP1 ISZERO PUSH2 0xF1F JUMPI PUSH1 0x0 DUP1 REVERT JUMPDEST POP GAS STATICCALL SWAP3 POP POP POP DUP1 ISZERO PUSH2 0xF30 JUMPI POP PUSH1 0x1 JUMPDEST PUSH2 0xF71 JUMPI PUSH1 0x40 MLOAD PUSH32 0x86A9F75000000000000000000000000000000000000000000000000000000000 DUP2 MSTORE PUSH1 0x1 PUSH1 0x1 PUSH1 0xA0 SHL SUB DUP3 AND PUSH1 0x4 DUP3 ADD MSTORE PUSH1 0x24 ADD PUSH2 0x669 JUMP JUMPDEST PUSH2 0xF7B DUP3 DUP8 PUSH2 0x3927 JUMP JUMPDEST SWAP6 POP POP POP POP POP DUP1 DUP1 PUSH2 0xF8C SWAP1 PUSH2 0x393A JUMP JUMPDEST SWAP2 POP POP PUSH2 0xE0C JUMP JUMPDEST POP PUSH1 0x0 DUP2 PUSH8 0xFFFFFFFFFFFFFFFF DUP2 GT ISZERO PUSH2 0xFB0 JUMPI PUSH2 0xFB0 PUSH2 0x3425 JUMP JUMPDEST PUSH1 0x40 MLOAD SWAP1 DUP1 DUP3 MSTORE DUP1 PUSH1 0x20 MUL PUSH1 0x20 ADD DUP3 ADD PUSH1 0x40 MSTORE DUP1 ISZERO PUSH2 0xFE9 JUMPI DUP2 PUSH1 0x20 ADD JUMPDEST PUSH2 0xFD6 PUSH2 0x32D8 JUMP JUMPDEST DUP2 MSTORE PUSH1 0x20 ADD SWAP1 PUSH1 0x1 SWAP1 SUB SWAP1 DUP2 PUSH2 0xFCE JUMPI SWAP1 POP JUMPDEST POP PUSH1 0x40 MLOAD SWAP1 SWAP2 POP PUSH32 0xBB47EE3E183A558B1A2FF0874B079F3FC5478B7454EACF2BFC5AF2FF5878F972 SWAP1 PUSH1 0x0 SWAP1 LOG1 PUSH1 0x0 DUP1 JUMPDEST DUP5 DUP2 LT ISZERO PUSH2 0x10FE JUMPI CALLDATASIZE DUP9 DUP9 DUP4 DUP2 DUP2 LT PUSH2 0x1035 JUMPI PUSH2 0x1035 PUSH2 0x39BC JUMP JUMPDEST SWAP1 POP PUSH1 0x20 MUL DUP2 ADD SWAP1 PUSH2 0x1047 SWAP2 SWAP1 PUSH2 0x3A06 JUMP JUMPDEST SWAP1 POP CALLDATASIZE PUSH1 0x0 PUSH2 0x1056 DUP4 DUP1 PUSH2 0x3A1C JUMP JUMPDEST SWAP1 SWAP3 POP SWAP1 POP PUSH1 0x0 PUSH2 0x106D PUSH1 0x40 DUP6 ADD PUSH1 0x20 DUP7 ADD PUSH2 0x377D JUMP JUMPDEST SWAP1 POP DUP2 PUSH1 0x0 JUMPDEST DUP2 DUP2 LT ISZERO PUSH2 0x10E5 JUMPI PUSH1 0x0 DUP10 DUP10 DUP2 MLOAD DUP2 LT PUSH2 0x108F JUMPI PUSH2 0x108F PUSH2 0x39BC JUMP JUMPDEST PUSH1 0x20 MUL PUSH1 0x20 ADD ADD MLOAD SWAP1 POP PUSH1 0x0 DUP1 PUSH2 0x10B2 DUP12 DUP10 DUP10 DUP8 DUP2 DUP2 LT PUSH2 0xB3F JUMPI PUSH2 0xB3F PUSH2 0x39BC JUMP JUMPDEST SWAP2 POP SWAP2 POP PUSH2 0x10C2 DUP5 DUP4 DUP4 DUP10 PUSH2 0x2238 JUMP JUMPDEST DUP11 PUSH2 0x10CC DUP2 PUSH2 0x393A JUMP JUMPDEST SWAP12 POP POP POP POP POP DUP1 DUP1 PUSH2 0x10DD SWAP1 PUSH2 0x393A JUMP JUMPDEST SWAP2 POP POP PUSH2 0x1073 JUMP JUMPDEST POP POP POP POP POP POP DUP1 DUP1 PUSH2 0x10F6 SWAP1 PUSH2 0x393A JUMP JUMPDEST SWAP2 POP POP PUSH2 0x101A JUMP JUMPDEST POP PUSH1 0x0 DUP1 SWAP2 POP PUSH1 0x0 JUMPDEST DUP6 DUP2 LT ISZERO PUSH2 0x1217 JUMPI CALLDATASIZE DUP10 DUP10 DUP4 DUP2 DUP2 LT PUSH2 0x1122 JUMPI PUSH2 0x1122 PUSH2 0x39BC JUMP JUMPDEST SWAP1 POP PUSH1 0x20 MUL DUP2 ADD SWAP1 PUSH2 0x1134 SWAP2 SWAP1 PUSH2 0x3A06 JUMP JUMPDEST SWAP1 POP PUSH2 0x1146 PUSH1 0x40 DUP3 ADD PUSH1 0x20 DUP4 ADD PUSH2 0x377D JUMP JUMPDEST PUSH1 0x1 PUSH1 0x1 PUSH1 0xA0 SHL SUB AND PUSH32 0x575FF3ACADD5AB348FE1855E217E0F3678F8D767D7494C9F9FEFBEE2E17CCA4D PUSH1 0x40 MLOAD PUSH1 0x40 MLOAD DUP1 SWAP2 SUB SWAP1 LOG2 CALLDATASIZE PUSH1 0x0 PUSH2 0x1188 DUP4 DUP1 PUSH2 0x3A1C JUMP JUMPDEST SWAP1 SWAP3 POP SWAP1 POP DUP1 PUSH1 0x0 JUMPDEST DUP2 DUP2 LT ISZERO PUSH2 0x11FF JUMPI PUSH2 0x11D3 DUP9 DUP6 DUP6 DUP5 DUP2 DUP2 LT PUSH2 0x11AF JUMPI PUSH2 0x11AF PUSH2 0x39BC JUMP JUMPDEST SWAP1 POP PUSH1 0x20 MUL DUP2 ADD SWAP1 PUSH2 0x11C1 SWAP2 SWAP1 PUSH2 0x39D2 JUMP JUMPDEST DUP12 DUP12 DUP2 MLOAD DUP2 LT PUSH2 0xBE4 JUMPI PUSH2 0xBE4 PUSH2 0x39BC JUMP JUMPDEST PUSH2 0x11DD SWAP1 DUP9 PUSH2 0x3927 JUMP JUMPDEST SWAP7 POP DUP8 PUSH2 0x11E9 DUP2 PUSH2 0x393A JUMP JUMPDEST SWAP9 POP POP DUP1 DUP1 PUSH2 0x11F7 SWAP1 PUSH2 0x393A JUMP JUMPDEST SWAP2 POP POP PUSH2 0x1191 JUMP JUMPDEST POP POP POP POP POP DUP1 DUP1 PUSH2 0x120F SWAP1 PUSH2 0x393A JUMP JUMPDEST SWAP2 POP POP PUSH2 0x1107 JUMP JUMPDEST POP PUSH1 0x40 MLOAD PUSH1 0x0 SWAP1 PUSH32 0x575FF3ACADD5AB348FE1855E217E0F3678F8D767D7494C9F9FEFBEE2E17CCA4D SWAP1 DUP3 SWAP1 LOG2 PUSH2 0x124D DUP7 DUP3 PUSH2 0x2550 JUMP JUMPDEST POP POP POP POP POP PUSH2 0xC15 PUSH1 0x1 PUSH1 0x2 SSTORE JUMP JUMPDEST DUP4 ISZERO DUP1 ISZERO PUSH2 0x1272 JUMPI POP PUSH1 0x1 PUSH1 0x1 PUSH1 0xA0 SHL SUB DUP4 AND EXTCODESIZE ISZERO JUMPDEST ISZERO PUSH2 0x12BF JUMPI PUSH1 0x40 MLOAD PUSH3 0x461BCD PUSH1 0xE5 SHL DUP2 MSTORE PUSH1 0x20 PUSH1 0x4 DUP3 ADD MSTORE PUSH1 0x19 PUSH1 0x24 DUP3 ADD MSTORE PUSH32 0x41413230206163636F756E74206E6F74206465706C6F79656400000000000000 PUSH1 0x44 DUP3 ADD MSTORE PUSH1 0x64 ADD PUSH2 0x669 JUMP JUMPDEST PUSH1 0x14 DUP2 LT PUSH2 0x1337 JUMPI PUSH1 0x0 PUSH2 0x12D6 PUSH1 0x14 DUP3 DUP5 DUP7 PUSH2 0x3C90 JUMP JUMPDEST PUSH2 0x12DF SWAP2 PUSH2 0x3CBA JUMP JUMPDEST PUSH1 0x60 SHR SWAP1 POP DUP1 EXTCODESIZE PUSH1 0x0 SUB PUSH2 0x1335 JUMPI PUSH1 0x40 MLOAD PUSH3 0x461BCD PUSH1 0xE5 SHL DUP2 MSTORE PUSH1 0x20 PUSH1 0x4 DUP3 ADD MSTORE PUSH1 0x1B PUSH1 0x24 DUP3 ADD MSTORE PUSH32 0x41413330207061796D6173746572206E6F74206465706C6F7965640000000000 PUSH1 0x44 DUP3 ADD MSTORE PUSH1 0x64 ADD PUSH2 0x669 JUMP JUMPDEST POP JUMPDEST PUSH1 0x40 MLOAD PUSH3 0x461BCD PUSH1 0xE5 SHL DUP2 MSTORE PUSH1 0x20 PUSH1 0x4 DUP3 ADD MSTORE PUSH1 0x0 PUSH1 0x24 DUP3 ADD MSTORE PUSH1 0x44 ADD PUSH2 0x669 JUMP JUMPDEST PUSH1 0x40 MLOAD PUSH4 0x2B870D1B PUSH1 0xE1 SHL DUP2 MSTORE PUSH1 0x0 SWAP1 PUSH1 0x1 PUSH1 0x1 PUSH1 0xA0 SHL SUB PUSH32 0x0 AND SWAP1 PUSH4 0x570E1A36 SWAP1 PUSH2 0x13AA SWAP1 DUP7 SWAP1 DUP7 SWAP1 PUSH1 0x4 ADD PUSH2 0x3CEF JUMP JUMPDEST PUSH1 0x20 PUSH1 0x40 MLOAD DUP1 DUP4 SUB DUP2 PUSH1 0x0 DUP8 GAS CALL ISZERO DUP1 ISZERO PUSH2 0x13C9 JUMPI RETURNDATASIZE PUSH1 0x0 DUP1 RETURNDATACOPY RETURNDATASIZE PUSH1 0x0 REVERT JUMPDEST POP POP POP POP PUSH1 0x40 MLOAD RETURNDATASIZE PUSH1 0x1F NOT PUSH1 0x1F DUP3 ADD AND DUP3 ADD DUP1 PUSH1 0x40 MSTORE POP DUP2 ADD SWAP1 PUSH2 0x13ED SWAP2 SWAP1 PUSH2 0x3D03 JUMP JUMPDEST PUSH1 0x40 MLOAD PUSH32 0x6CA7B80600000000000000000000000000000000000000000000000000000000 DUP2 MSTORE PUSH1 0x1 PUSH1 0x1 PUSH1 0xA0 SHL SUB DUP3 AND PUSH1 0x4 DUP3 ADD MSTORE SWAP1 SWAP2 POP PUSH1 0x24 ADD PUSH2 0x669 JUMP JUMPDEST PUSH1 0x0 PUSH2 0x1438 DUP3 PUSH2 0x2649 JUMP JUMPDEST PUSH1 0x40 DUP1 MLOAD PUSH1 0x20 DUP2 ADD SWAP3 SWAP1 SWAP3 MSTORE ADDRESS SWAP1 DUP3 ADD MSTORE CHAINID PUSH1 0x60 DUP3 ADD MSTORE PUSH1 0x80 ADD PUSH1 0x40 MLOAD PUSH1 0x20 DUP2 DUP4 SUB SUB DUP2 MSTORE SWAP1 PUSH1 0x40 MSTORE DUP1 MLOAD SWAP1 PUSH1 0x20 ADD KECCAK256 SWAP1 POP SWAP2 SWAP1 POP JUMP JUMPDEST CALLER PUSH1 0x0 SWAP1 DUP2 MSTORE PUSH1 0x20 DUP2 SWAP1 MSTORE PUSH1 0x40 DUP2 KECCAK256 PUSH1 0x1 DUP2 ADD SLOAD SWAP1 SWAP2 PUSH4 0xFFFFFFFF SWAP1 SWAP2 AND SWAP1 SUB PUSH2 0x14DB JUMPI PUSH1 0x40 MLOAD PUSH3 0x461BCD PUSH1 0xE5 SHL DUP2 MSTORE PUSH1 0x20 PUSH1 0x4 DUP3 ADD MSTORE PUSH1 0xA PUSH1 0x24 DUP3 ADD MSTORE PUSH32 0x6E6F74207374616B656400000000000000000000000000000000000000000000 PUSH1 0x44 DUP3 ADD MSTORE PUSH1 0x64 ADD PUSH2 0x669 JUMP JUMPDEST DUP1 SLOAD PUSH1 0x1 PUSH1 0x70 SHL SWAP1 DIV PUSH1 0xFF AND PUSH2 0x1533 JUMPI PUSH1 0x40 MLOAD PUSH3 0x461BCD PUSH1 0xE5 SHL DUP2 MSTORE PUSH1 0x20 PUSH1 0x4 DUP3 ADD MSTORE PUSH1 0x11 PUSH1 0x24 DUP3 ADD MSTORE PUSH32 0x616C726561647920756E7374616B696E67000000000000000000000000000000 PUSH1 0x44 DUP3 ADD MSTORE PUSH1 0x64 ADD PUSH2 0x669 JUMP JUMPDEST PUSH1 0x1 DUP2 ADD SLOAD PUSH1 0x0 SWAP1 PUSH2 0x154B SWAP1 PUSH4 0xFFFFFFFF AND TIMESTAMP PUSH2 0x3D20 JUMP JUMPDEST PUSH1 0x1 DUP4 ADD DUP1 SLOAD PUSH10 0xFFFFFFFFFFFF00000000 NOT AND PUSH5 0x100000000 PUSH6 0xFFFFFFFFFFFF DUP5 AND SWAP1 DUP2 MUL SWAP2 SWAP1 SWAP2 OR SWAP1 SWAP2 SSTORE DUP4 SLOAD PUSH15 0xFF0000000000000000000000000000 NOT AND DUP5 SSTORE PUSH1 0x40 MLOAD SWAP1 DUP2 MSTORE SWAP1 SWAP2 POP CALLER SWAP1 PUSH32 0xFA9B3C14CC825C412C9ED81B3BA365A5B459439403F18829E572ED53A4180F0A SWAP1 PUSH1 0x20 ADD PUSH2 0x5FF JUMP JUMPDEST CALLER PUSH1 0x0 SWAP1 DUP2 MSTORE PUSH1 0x20 DUP2 SWAP1 MSTORE PUSH1 0x40 SWAP1 KECCAK256 DUP1 SLOAD PUSH1 0x1 PUSH1 0x78 SHL SWAP1 DIV PUSH1 0x1 PUSH1 0x1 PUSH1 0x70 SHL SUB AND DUP1 PUSH2 0x1630 JUMPI PUSH1 0x40 MLOAD PUSH3 0x461BCD PUSH1 0xE5 SHL DUP2 MSTORE PUSH1 0x20 PUSH1 0x4 DUP3 ADD MSTORE PUSH1 0x14 PUSH1 0x24 DUP3 ADD MSTORE PUSH32 0x4E6F207374616B6520746F207769746864726177000000000000000000000000 PUSH1 0x44 DUP3 ADD MSTORE PUSH1 0x64 ADD PUSH2 0x669 JUMP JUMPDEST PUSH1 0x1 DUP3 ADD SLOAD PUSH5 0x100000000 SWAP1 DIV PUSH6 0xFFFFFFFFFFFF AND PUSH2 0x1691 JUMPI PUSH1 0x40 MLOAD PUSH3 0x461BCD PUSH1 0xE5 SHL DUP2 MSTORE PUSH1 0x20 PUSH1 0x4 DUP3 ADD MSTORE PUSH1 0x1D PUSH1 0x24 DUP3 ADD MSTORE PUSH32 0x6D7573742063616C6C20756E6C6F636B5374616B652829206669727374000000 PUSH1 0x44 DUP3 ADD MSTORE PUSH1 0x64 ADD PUSH2 0x669 JUMP JUMPDEST PUSH1 0x1 DUP3 ADD SLOAD TIMESTAMP PUSH5 0x100000000 SWAP1 SWAP2 DIV PUSH6 0xFFFFFFFFFFFF AND GT ISZERO PUSH2 0x16F6 JUMPI PUSH1 0x40 MLOAD PUSH3 0x461BCD PUSH1 0xE5 SHL DUP2 MSTORE PUSH1 0x20 PUSH1 0x4 DUP3 ADD MSTORE PUSH1 0x1B PUSH1 0x24 DUP3 ADD MSTORE PUSH32 0x5374616B65207769746864726177616C206973206E6F74206475650000000000 PUSH1 0x44 DUP3 ADD MSTORE PUSH1 0x64 ADD PUSH2 0x669 JUMP JUMPDEST PUSH1 0x1 DUP3 ADD DUP1 SLOAD PUSH10 0xFFFFFFFFFFFFFFFFFFFF NOT AND SWAP1 SSTORE DUP2 SLOAD PUSH32 0xFFFFFF0000000000000000000000000000FFFFFFFFFFFFFFFFFFFFFFFFFFFFFF AND DUP3 SSTORE PUSH1 0x40 DUP1 MLOAD PUSH1 0x1 PUSH1 0x1 PUSH1 0xA0 SHL SUB DUP6 AND DUP2 MSTORE PUSH1 0x20 DUP2 ADD DUP4 SWAP1 MSTORE CALLER SWAP2 PUSH32 0xB7C918E0E249F999E965CAFEB6C664271B3F4317D296461500E71DA39F0CBDA3 SWAP2 ADD PUSH1 0x40 MLOAD DUP1 SWAP2 SUB SWAP1 LOG2 PUSH1 0x0 DUP4 PUSH1 0x1 PUSH1 0x1 PUSH1 0xA0 SHL SUB AND DUP3 PUSH1 0x40 MLOAD PUSH1 0x0 PUSH1 0x40 MLOAD DUP1 DUP4 SUB DUP2 DUP6 DUP8 GAS CALL SWAP3 POP POP POP RETURNDATASIZE DUP1 PUSH1 0x0 DUP2 EQ PUSH2 0x17C2 JUMPI PUSH1 0x40 MLOAD SWAP2 POP PUSH1 0x1F NOT PUSH1 0x3F RETURNDATASIZE ADD AND DUP3 ADD PUSH1 0x40 MSTORE RETURNDATASIZE DUP3 MSTORE RETURNDATASIZE PUSH1 0x0 PUSH1 0x20 DUP5 ADD RETURNDATACOPY PUSH2 0x17C7 JUMP JUMPDEST PUSH1 0x60 SWAP2 POP JUMPDEST POP POP SWAP1 POP DUP1 PUSH2 0xDA2 JUMPI PUSH1 0x40 MLOAD PUSH3 0x461BCD PUSH1 0xE5 SHL DUP2 MSTORE PUSH1 0x20 PUSH1 0x4 DUP3 ADD MSTORE PUSH1 0x18 PUSH1 0x24 DUP3 ADD MSTORE PUSH32 0x6661696C656420746F207769746864726177207374616B650000000000000000 PUSH1 0x44 DUP3 ADD MSTORE PUSH1 0x64 ADD PUSH2 0x669 JUMP JUMPDEST PUSH2 0x1820 PUSH2 0x32D8 JUMP JUMPDEST PUSH2 0x1829 DUP6 PUSH2 0x2662 JUMP JUMPDEST PUSH1 0x0 DUP1 PUSH2 0x1838 PUSH1 0x0 DUP9 DUP6 PUSH2 0x204D JUMP JUMPDEST SWAP2 POP SWAP2 POP PUSH1 0x0 PUSH2 0x1848 DUP4 DUP4 PUSH2 0x273C JUMP JUMPDEST SWAP1 POP PUSH2 0x1853 NUMBER PUSH1 0x0 MSTORE JUMP JUMPDEST PUSH1 0x0 PUSH2 0x1861 PUSH1 0x0 DUP11 DUP8 PUSH2 0x2402 JUMP JUMPDEST SWAP1 POP PUSH2 0x186C NUMBER PUSH1 0x0 MSTORE JUMP JUMPDEST PUSH1 0x0 PUSH1 0x60 PUSH1 0x1 PUSH1 0x1 PUSH1 0xA0 SHL SUB DUP11 AND ISZERO PUSH2 0x18E2 JUMPI DUP10 PUSH1 0x1 PUSH1 0x1 PUSH1 0xA0 SHL SUB AND DUP10 DUP10 PUSH1 0x40 MLOAD PUSH2 0x1899 SWAP3 SWAP2 SWAP1 PUSH2 0x3D46 JUMP JUMPDEST PUSH1 0x0 PUSH1 0x40 MLOAD DUP1 DUP4 SUB DUP2 PUSH1 0x0 DUP7 GAS CALL SWAP2 POP POP RETURNDATASIZE DUP1 PUSH1 0x0 DUP2 EQ PUSH2 0x18D6 JUMPI PUSH1 0x40 MLOAD SWAP2 POP PUSH1 0x1F NOT PUSH1 0x3F RETURNDATASIZE ADD AND DUP3 ADD PUSH1 0x40 MSTORE RETURNDATASIZE DUP3 MSTORE RETURNDATASIZE PUSH1 0x0 PUSH1 0x20 DUP5 ADD RETURNDATACOPY PUSH2 0x18DB JUMP JUMPDEST PUSH1 0x60 SWAP2 POP JUMPDEST POP SWAP1 SWAP3 POP SWAP1 POP JUMPDEST DUP7 PUSH1 0x80 ADD MLOAD DUP4 DUP6 PUSH1 0x20 ADD MLOAD DUP7 PUSH1 0x40 ADD MLOAD DUP6 DUP6 PUSH1 0x40 MLOAD PUSH32 0x8B7AC98000000000000000000000000000000000000000000000000000000000 DUP2 MSTORE PUSH1 0x4 ADD PUSH2 0x669 SWAP7 SWAP6 SWAP5 SWAP4 SWAP3 SWAP2 SWAP1 PUSH2 0x3D56 JUMP JUMPDEST PUSH2 0x1934 PUSH2 0x32D8 JUMP JUMPDEST PUSH2 0x193D DUP3 PUSH2 0x2662 JUMP JUMPDEST PUSH1 0x0 DUP1 PUSH2 0x194C PUSH1 0x0 DUP6 DUP6 PUSH2 0x204D JUMP JUMPDEST DUP5 MLOAD PUSH1 0xA0 ADD MLOAD PUSH1 0x40 DUP1 MLOAD DUP1 DUP3 ADD DUP3 MSTORE PUSH1 0x0 DUP1 DUP3 MSTORE PUSH1 0x20 DUP1 DUP4 ADD DUP3 DUP2 MSTORE PUSH1 0x1 PUSH1 0x1 PUSH1 0xA0 SHL SUB SWAP6 DUP7 AND DUP4 MSTORE DUP3 DUP3 MSTORE DUP5 DUP4 KECCAK256 DUP1 SLOAD PUSH1 0x1 PUSH1 0x1 PUSH1 0x70 SHL SUB PUSH1 0x1 PUSH1 0x78 SHL SWAP2 DUP3 SWAP1 DIV DUP2 AND DUP8 MSTORE PUSH1 0x1 SWAP3 DUP4 ADD SLOAD PUSH4 0xFFFFFFFF SWAP1 DUP2 AND SWAP1 SWAP5 MSTORE DUP14 MLOAD MLOAD DUP9 MLOAD DUP1 DUP11 ADD DUP11 MSTORE DUP8 DUP2 MSTORE DUP1 DUP8 ADD DUP9 DUP2 MSTORE SWAP2 SWAP1 SWAP11 AND DUP8 MSTORE DUP7 DUP7 MSTORE DUP9 DUP8 KECCAK256 DUP1 SLOAD SWAP4 SWAP1 SWAP4 DIV SWAP1 SWAP2 AND DUP10 MSTORE SWAP2 ADD SLOAD SWAP1 SWAP2 AND SWAP1 MSTORE DUP4 MLOAD DUP1 DUP6 ADD SWAP1 SWAP5 MSTORE DUP2 DUP5 MSTORE DUP4 ADD MSTORE SWAP4 SWAP6 POP SWAP2 SWAP4 POP SWAP1 CALLDATASIZE PUSH1 0x0 PUSH2 0x19FA PUSH1 0x40 DUP11 ADD DUP11 PUSH2 0x3A66 JUMP JUMPDEST SWAP1 SWAP3 POP SWAP1 POP PUSH1 0x0 PUSH1 0x14 DUP3 LT ISZERO PUSH2 0x1A11 JUMPI PUSH1 0x0 PUSH2 0x1A2C JUMP JUMPDEST PUSH2 0x1A1F PUSH1 0x14 PUSH1 0x0 DUP5 DUP7 PUSH2 0x3C90 JUMP JUMPDEST PUSH2 0x1A28 SWAP2 PUSH2 0x3CBA JUMP JUMPDEST PUSH1 0x60 SHR JUMPDEST PUSH1 0x40 DUP1 MLOAD DUP1 DUP3 ADD DUP3 MSTORE PUSH1 0x0 DUP1 DUP3 MSTORE PUSH1 0x20 DUP1 DUP4 ADD DUP3 DUP2 MSTORE PUSH1 0x1 PUSH1 0x1 PUSH1 0xA0 SHL SUB DUP7 AND DUP4 MSTORE SWAP1 DUP3 SWAP1 MSTORE SWAP3 SWAP1 KECCAK256 DUP1 SLOAD PUSH1 0x1 PUSH1 0x78 SHL SWAP1 DIV PUSH1 0x1 PUSH1 0x1 PUSH1 0x70 SHL SUB AND DUP3 MSTORE PUSH1 0x1 ADD SLOAD PUSH4 0xFFFFFFFF AND SWAP1 SWAP2 MSTORE SWAP1 SWAP2 POP SWAP4 POP POP POP POP PUSH1 0x0 PUSH2 0x1A8A DUP7 DUP7 PUSH2 0x273C JUMP JUMPDEST SWAP1 POP PUSH1 0x0 DUP2 PUSH1 0x0 ADD MLOAD SWAP1 POP PUSH1 0x0 PUSH1 0x1 PUSH1 0x1 PUSH1 0x1 PUSH1 0xA0 SHL SUB AND DUP3 PUSH1 0x1 PUSH1 0x1 PUSH1 0xA0 SHL SUB AND EQ SWAP1 POP PUSH1 0x0 PUSH1 0x40 MLOAD DUP1 PUSH1 0xC0 ADD PUSH1 0x40 MSTORE DUP1 DUP12 PUSH1 0x80 ADD MLOAD DUP2 MSTORE PUSH1 0x20 ADD DUP12 PUSH1 0x40 ADD MLOAD DUP2 MSTORE PUSH1 0x20 ADD DUP4 ISZERO ISZERO DUP2 MSTORE PUSH1 0x20 ADD DUP6 PUSH1 0x20 ADD MLOAD PUSH6 0xFFFFFFFFFFFF AND DUP2 MSTORE PUSH1 0x20 ADD DUP6 PUSH1 0x40 ADD MLOAD PUSH6 0xFFFFFFFFFFFF AND DUP2 MSTORE PUSH1 0x20 ADD PUSH2 0x1B07 DUP13 PUSH1 0x60 ADD MLOAD SWAP1 JUMP JUMPDEST SWAP1 MSTORE SWAP1 POP PUSH1 0x1 PUSH1 0x1 PUSH1 0xA0 SHL SUB DUP4 AND ISZERO DUP1 ISZERO SWAP1 PUSH2 0x1B2D JUMPI POP PUSH1 0x1 PUSH1 0x1 PUSH1 0xA0 SHL SUB DUP4 AND PUSH1 0x1 EQ ISZERO JUMPDEST ISZERO PUSH2 0x1BC6 JUMPI PUSH1 0x40 DUP1 MLOAD DUP1 DUP3 ADD DUP3 MSTORE PUSH1 0x1 PUSH1 0x1 PUSH1 0xA0 SHL SUB DUP6 AND DUP1 DUP3 MSTORE DUP3 MLOAD DUP1 DUP5 ADD DUP5 MSTORE PUSH1 0x0 DUP1 DUP3 MSTORE PUSH1 0x20 DUP1 DUP4 ADD DUP3 DUP2 MSTORE SWAP4 DUP3 MSTORE DUP2 DUP2 MSTORE SWAP1 DUP6 SWAP1 KECCAK256 DUP1 SLOAD PUSH1 0x1 PUSH1 0x78 SHL SWAP1 DIV PUSH1 0x1 PUSH1 0x1 PUSH1 0x70 SHL SUB AND DUP4 MSTORE PUSH1 0x1 ADD SLOAD PUSH4 0xFFFFFFFF AND SWAP1 SWAP3 MSTORE SWAP1 DUP3 ADD MSTORE SWAP1 MLOAD PUSH32 0xFAECB4E400000000000000000000000000000000000000000000000000000000 DUP2 MSTORE PUSH2 0x669 SWAP1 DUP4 SWAP1 DUP10 SWAP1 DUP10 SWAP1 DUP13 SWAP1 DUP7 SWAP1 PUSH1 0x4 ADD PUSH2 0x3DF8 JUMP JUMPDEST DUP1 DUP7 DUP7 DUP10 PUSH1 0x40 MLOAD PUSH32 0xE0CFF05F00000000000000000000000000000000000000000000000000000000 DUP2 MSTORE PUSH1 0x4 ADD PUSH2 0x669 SWAP5 SWAP4 SWAP3 SWAP2 SWAP1 PUSH2 0x3E78 JUMP JUMPDEST PUSH1 0x1 PUSH1 0x1 PUSH1 0xA0 SHL SUB DUP3 AND PUSH1 0x0 SWAP1 DUP2 MSTORE PUSH1 0x20 DUP2 SWAP1 MSTORE PUSH1 0x40 DUP2 KECCAK256 DUP1 SLOAD SWAP1 SWAP2 SWAP1 PUSH2 0x1C31 SWAP1 DUP5 SWAP1 PUSH1 0x1 PUSH1 0x1 PUSH1 0x70 SHL SUB AND PUSH2 0x3927 JUMP JUMPDEST SWAP1 POP PUSH1 0x1 PUSH1 0x1 PUSH1 0x70 SHL SUB DUP2 GT ISZERO PUSH2 0x1C8A JUMPI PUSH1 0x40 MLOAD PUSH3 0x461BCD PUSH1 0xE5 SHL DUP2 MSTORE PUSH1 0x20 PUSH1 0x4 DUP3 ADD MSTORE PUSH1 0x10 PUSH1 0x24 DUP3 ADD MSTORE PUSH32 0x6465706F736974206F766572666C6F7700000000000000000000000000000000 PUSH1 0x44 DUP3 ADD MSTORE PUSH1 0x64 ADD PUSH2 0x669 JUMP JUMPDEST DUP2 SLOAD PUSH14 0xFFFFFFFFFFFFFFFFFFFFFFFFFFFF NOT AND PUSH1 0x1 PUSH1 0x1 PUSH1 0x70 SHL SUB SWAP2 SWAP1 SWAP2 AND OR SWAP1 SSTORE POP POP JUMP JUMPDEST PUSH1 0x0 DUP1 PUSH1 0x0 DUP5 MLOAD PUSH1 0x20 DUP7 ADD DUP8 DUP10 DUP8 CALL SWAP6 SWAP5 POP POP POP POP POP JUMP JUMPDEST PUSH1 0x60 RETURNDATASIZE DUP3 DUP2 GT ISZERO PUSH2 0x1CD6 JUMPI POP DUP2 JUMPDEST PUSH1 0x40 MLOAD PUSH1 0x20 DUP3 ADD DUP2 ADD PUSH1 0x40 MSTORE DUP2 DUP2 MSTORE DUP2 PUSH1 0x0 PUSH1 0x20 DUP4 ADD RETURNDATACOPY SWAP4 SWAP3 POP POP POP JUMP JUMPDEST PUSH1 0x0 DUP1 GAS DUP6 MLOAD SWAP1 SWAP2 POP PUSH1 0x0 SWAP1 DUP2 PUSH2 0x1D0A DUP3 PUSH2 0x2808 JUMP JUMPDEST PUSH1 0xA0 DUP4 ADD MLOAD SWAP1 SWAP2 POP PUSH1 0x1 PUSH1 0x1 PUSH1 0xA0 SHL SUB DUP2 AND PUSH2 0x1D29 JUMPI DUP3 MLOAD SWAP4 POP PUSH2 0x1EDB JUMP JUMPDEST DUP1 SWAP4 POP PUSH1 0x0 DUP9 MLOAD GT ISZERO PUSH2 0x1EDB JUMPI DUP7 DUP3 MUL SWAP6 POP PUSH1 0x2 DUP11 PUSH1 0x2 DUP2 GT ISZERO PUSH2 0x1D4F JUMPI PUSH2 0x1D4F PUSH2 0x3ECF JUMP JUMPDEST EQ PUSH2 0x1DC1 JUMPI PUSH1 0x60 DUP4 ADD MLOAD PUSH1 0x40 MLOAD PUSH4 0xA9A23409 PUSH1 0xE0 SHL DUP2 MSTORE PUSH1 0x1 PUSH1 0x1 PUSH1 0xA0 SHL SUB DUP4 AND SWAP2 PUSH4 0xA9A23409 SWAP2 PUSH2 0x1D89 SWAP1 DUP15 SWAP1 DUP14 SWAP1 DUP13 SWAP1 PUSH1 0x4 ADD PUSH2 0x3EE5 JUMP JUMPDEST PUSH1 0x0 PUSH1 0x40 MLOAD DUP1 DUP4 SUB DUP2 PUSH1 0x0 DUP9 DUP1 EXTCODESIZE ISZERO DUP1 ISZERO PUSH2 0x1DA3 JUMPI PUSH1 0x0 DUP1 REVERT JUMPDEST POP DUP8 CALL ISZERO DUP1 ISZERO PUSH2 0x1DB7 JUMPI RETURNDATASIZE PUSH1 0x0 DUP1 RETURNDATACOPY RETURNDATASIZE PUSH1 0x0 REVERT JUMPDEST POP POP POP POP POP PUSH2 0x1EDB JUMP JUMPDEST PUSH1 0x60 DUP4 ADD MLOAD PUSH1 0x40 MLOAD PUSH4 0xA9A23409 PUSH1 0xE0 SHL DUP2 MSTORE PUSH1 0x1 PUSH1 0x1 PUSH1 0xA0 SHL SUB DUP4 AND SWAP2 PUSH4 0xA9A23409 SWAP2 PUSH2 0x1DF6 SWAP1 DUP15 SWAP1 DUP14 SWAP1 DUP13 SWAP1 PUSH1 0x4 ADD PUSH2 0x3EE5 JUMP JUMPDEST PUSH1 0x0 PUSH1 0x40 MLOAD DUP1 DUP4 SUB DUP2 PUSH1 0x0 DUP9 DUP1 EXTCODESIZE ISZERO DUP1 ISZERO PUSH2 0x1E10 JUMPI PUSH1 0x0 DUP1 REVERT JUMPDEST POP DUP8 CALL SWAP4 POP POP POP POP DUP1 ISZERO PUSH2 0x1E22 JUMPI POP PUSH1 0x1 JUMPDEST PUSH2 0x1EDB JUMPI PUSH2 0x1E2E PUSH2 0x3F2C JUMP JUMPDEST DUP1 PUSH4 0x8C379A0 SUB PUSH2 0x1E87 JUMPI POP PUSH2 0x1E42 PUSH2 0x3F48 JUMP JUMPDEST DUP1 PUSH2 0x1E4D JUMPI POP PUSH2 0x1E89 JUMP JUMPDEST DUP12 DUP2 PUSH1 0x40 MLOAD PUSH1 0x20 ADD PUSH2 0x1E5F SWAP2 SWAP1 PUSH2 0x3FD2 JUMP JUMPDEST PUSH1 0x40 DUP1 MLOAD PUSH1 0x1F NOT DUP2 DUP5 SUB ADD DUP2 MSTORE SWAP1 DUP3 SWAP1 MSTORE PUSH4 0x1101335B PUSH1 0xE1 SHL DUP3 MSTORE PUSH2 0x669 SWAP3 SWAP2 PUSH1 0x4 ADD PUSH2 0x39A3 JUMP JUMPDEST POP JUMPDEST DUP11 PUSH1 0x40 MLOAD PUSH4 0x1101335B PUSH1 0xE1 SHL DUP2 MSTORE PUSH1 0x4 ADD PUSH2 0x669 SWAP2 DUP2 MSTORE PUSH1 0x40 PUSH1 0x20 DUP3 ADD DUP2 SWAP1 MSTORE PUSH1 0x12 SWAP1 DUP3 ADD MSTORE PUSH32 0x4141353020706F73744F70207265766572740000000000000000000000000000 PUSH1 0x60 DUP3 ADD MSTORE PUSH1 0x80 ADD SWAP1 JUMP JUMPDEST GAS DUP6 SUB DUP8 ADD SWAP7 POP DUP2 DUP8 MUL SWAP6 POP DUP6 DUP10 PUSH1 0x40 ADD MLOAD LT ISZERO PUSH2 0x1F44 JUMPI DUP11 PUSH1 0x40 MLOAD PUSH4 0x1101335B PUSH1 0xE1 SHL DUP2 MSTORE PUSH1 0x4 ADD PUSH2 0x669 SWAP2 DUP2 MSTORE PUSH1 0x40 PUSH1 0x20 DUP1 DUP4 ADD DUP3 SWAP1 MSTORE SWAP1 DUP3 ADD MSTORE PUSH32 0x414135312070726566756E642062656C6F772061637475616C476173436F7374 PUSH1 0x60 DUP3 ADD MSTORE PUSH1 0x80 ADD SWAP1 JUMP JUMPDEST PUSH1 0x40 DUP10 ADD MLOAD DUP7 SWAP1 SUB PUSH2 0x1F56 DUP6 DUP3 PUSH2 0x1C00 JUMP JUMPDEST PUSH1 0x0 DUP1 DUP13 PUSH1 0x2 DUP2 GT ISZERO PUSH2 0x1F6B JUMPI PUSH2 0x1F6B PUSH2 0x3ECF JUMP JUMPDEST EQ SWAP1 POP DUP5 PUSH1 0xA0 ADD MLOAD PUSH1 0x1 PUSH1 0x1 PUSH1 0xA0 SHL SUB AND DUP6 PUSH1 0x0 ADD MLOAD PUSH1 0x1 PUSH1 0x1 PUSH1 0xA0 SHL SUB AND DUP13 PUSH1 0x20 ADD MLOAD PUSH32 0x49628FD1471006C1482DA88028E9CE4DBB080B815C9B0344D39E5A8E6EC1419F DUP9 PUSH1 0x20 ADD MLOAD DUP6 DUP14 DUP16 PUSH1 0x40 MLOAD PUSH2 0x1FDE SWAP5 SWAP4 SWAP3 SWAP2 SWAP1 SWAP4 DUP5 MSTORE SWAP2 ISZERO ISZERO PUSH1 0x20 DUP5 ADD MSTORE PUSH1 0x40 DUP4 ADD MSTORE PUSH1 0x60 DUP3 ADD MSTORE PUSH1 0x80 ADD SWAP1 JUMP JUMPDEST PUSH1 0x40 MLOAD DUP1 SWAP2 SUB SWAP1 LOG4 POP POP POP POP POP POP POP SWAP6 SWAP5 POP POP POP POP POP JUMP JUMPDEST PUSH1 0x2 DUP1 SLOAD SUB PUSH2 0x2047 JUMPI PUSH1 0x40 MLOAD PUSH3 0x461BCD PUSH1 0xE5 SHL DUP2 MSTORE PUSH1 0x20 PUSH1 0x4 DUP3 ADD MSTORE PUSH1 0x1F PUSH1 0x24 DUP3 ADD MSTORE PUSH32 0x5265656E7472616E637947756172643A207265656E7472616E742063616C6C00 PUSH1 0x44 DUP3 ADD MSTORE PUSH1 0x64 ADD PUSH2 0x669 JUMP JUMPDEST PUSH1 0x2 DUP1 SSTORE JUMP JUMPDEST PUSH1 0x0 DUP1 PUSH1 0x0 GAS DUP5 MLOAD SWAP1 SWAP2 POP PUSH2 0x2062 DUP7 DUP3 PUSH2 0x2838 JUMP JUMPDEST PUSH2 0x206B DUP7 PUSH2 0x142D JUMP JUMPDEST PUSH1 0x20 DUP7 ADD MSTORE PUSH1 0x40 DUP2 ADD MLOAD PUSH1 0x60 DUP3 ADD MLOAD PUSH1 0x80 DUP4 ADD MLOAD OR OR PUSH1 0xE0 DUP8 ADD CALLDATALOAD OR PUSH2 0x100 DUP8 ADD CALLDATALOAD OR PUSH15 0xFFFFFFFFFFFFFFFFFFFFFFFFFFFFFF DUP2 GT ISZERO PUSH2 0x20ED JUMPI PUSH1 0x40 MLOAD PUSH3 0x461BCD PUSH1 0xE5 SHL DUP2 MSTORE PUSH1 0x20 PUSH1 0x4 DUP3 ADD MSTORE PUSH1 0x18 PUSH1 0x24 DUP3 ADD MSTORE PUSH32 0x41413934206761732076616C756573206F766572666C6F770000000000000000 PUSH1 0x44 DUP3 ADD MSTORE PUSH1 0x64 ADD PUSH2 0x669 JUMP JUMPDEST PUSH1 0x0 DUP1 PUSH2 0x20F9 DUP5 PUSH2 0x2931 JUMP JUMPDEST SWAP1 POP PUSH2 0x2107 DUP11 DUP11 DUP11 DUP5 PUSH2 0x297E JUMP JUMPDEST DUP6 MLOAD PUSH1 0x20 DUP8 ADD MLOAD SWAP2 SWAP10 POP SWAP2 SWAP4 POP PUSH2 0x211E SWAP2 SWAP1 PUSH2 0x2BDD JUMP JUMPDEST PUSH2 0x2174 JUMPI DUP10 PUSH1 0x40 MLOAD PUSH4 0x1101335B PUSH1 0xE1 SHL DUP2 MSTORE PUSH1 0x4 ADD PUSH2 0x669 SWAP2 DUP2 MSTORE PUSH1 0x40 PUSH1 0x20 DUP3 ADD DUP2 SWAP1 MSTORE PUSH1 0x1A SWAP1 DUP3 ADD MSTORE PUSH32 0x4141323520696E76616C6964206163636F756E74206E6F6E6365000000000000 PUSH1 0x60 DUP3 ADD MSTORE PUSH1 0x80 ADD SWAP1 JUMP JUMPDEST PUSH2 0x217D NUMBER PUSH1 0x0 MSTORE JUMP JUMPDEST PUSH1 0xA0 DUP5 ADD MLOAD PUSH1 0x60 SWAP1 PUSH1 0x1 PUSH1 0x1 PUSH1 0xA0 SHL SUB AND ISZERO PUSH2 0x21A5 JUMPI PUSH2 0x21A0 DUP12 DUP12 DUP12 DUP6 DUP8 PUSH2 0x2C2B JUMP JUMPDEST SWAP8 POP SWAP1 POP JUMPDEST PUSH1 0x0 GAS DUP8 SUB SWAP1 POP DUP1 DUP12 PUSH1 0xA0 ADD CALLDATALOAD LT ISZERO PUSH2 0x220A JUMPI DUP12 PUSH1 0x40 MLOAD PUSH4 0x1101335B PUSH1 0xE1 SHL DUP2 MSTORE PUSH1 0x4 ADD PUSH2 0x669 SWAP2 DUP2 MSTORE PUSH1 0x40 PUSH1 0x20 DUP3 ADD DUP2 SWAP1 MSTORE PUSH1 0x1E SWAP1 DUP3 ADD MSTORE PUSH32 0x41413430206F76657220766572696669636174696F6E4761734C696D69740000 PUSH1 0x60 DUP3 ADD MSTORE PUSH1 0x80 ADD SWAP1 JUMP JUMPDEST PUSH1 0x40 DUP11 ADD DUP4 SWAP1 MSTORE DUP2 PUSH1 0x60 DUP12 ADD MSTORE PUSH1 0xC0 DUP12 ADD CALLDATALOAD GAS DUP9 SUB ADD DUP11 PUSH1 0x80 ADD DUP2 DUP2 MSTORE POP POP POP POP POP POP POP POP POP SWAP4 POP SWAP4 SWAP2 POP POP JUMP JUMPDEST PUSH1 0x0 DUP1 PUSH2 0x2244 DUP6 PUSH2 0x2E55 JUMP JUMPDEST SWAP2 POP SWAP2 POP DUP2 PUSH1 0x1 PUSH1 0x1 PUSH1 0xA0 SHL SUB AND DUP4 PUSH1 0x1 PUSH1 0x1 PUSH1 0xA0 SHL SUB AND EQ PUSH2 0x22B3 JUMPI DUP6 PUSH1 0x40 MLOAD PUSH4 0x1101335B PUSH1 0xE1 SHL DUP2 MSTORE PUSH1 0x4 ADD PUSH2 0x669 SWAP2 DUP2 MSTORE PUSH1 0x40 PUSH1 0x20 DUP3 ADD DUP2 SWAP1 MSTORE PUSH1 0x14 SWAP1 DUP3 ADD MSTORE PUSH32 0x41413234207369676E6174757265206572726F72000000000000000000000000 PUSH1 0x60 DUP3 ADD MSTORE PUSH1 0x80 ADD SWAP1 JUMP JUMPDEST DUP1 ISZERO PUSH2 0x230B JUMPI DUP6 PUSH1 0x40 MLOAD PUSH4 0x1101335B PUSH1 0xE1 SHL DUP2 MSTORE PUSH1 0x4 ADD PUSH2 0x669 SWAP2 DUP2 MSTORE PUSH1 0x40 PUSH1 0x20 DUP3 ADD DUP2 SWAP1 MSTORE PUSH1 0x17 SWAP1 DUP3 ADD MSTORE PUSH32 0x414132322065787069726564206F72206E6F7420647565000000000000000000 PUSH1 0x60 DUP3 ADD MSTORE PUSH1 0x80 ADD SWAP1 JUMP JUMPDEST PUSH1 0x0 PUSH2 0x2316 DUP6 PUSH2 0x2E55 JUMP JUMPDEST SWAP3 POP SWAP1 POP PUSH1 0x1 PUSH1 0x1 PUSH1 0xA0 SHL SUB DUP2 AND ISZERO PUSH2 0x237B JUMPI DUP7 PUSH1 0x40 MLOAD PUSH4 0x1101335B PUSH1 0xE1 SHL DUP2 MSTORE PUSH1 0x4 ADD PUSH2 0x669 SWAP2 DUP2 MSTORE PUSH1 0x40 PUSH1 0x20 DUP3 ADD DUP2 SWAP1 MSTORE PUSH1 0x14 SWAP1 DUP3 ADD MSTORE PUSH32 0x41413334207369676E6174757265206572726F72000000000000000000000000 PUSH1 0x60 DUP3 ADD MSTORE PUSH1 0x80 ADD SWAP1 JUMP JUMPDEST DUP2 ISZERO PUSH2 0x23F9 JUMPI DUP7 PUSH1 0x40 MLOAD PUSH4 0x1101335B PUSH1 0xE1 SHL DUP2 MSTORE PUSH1 0x4 ADD PUSH2 0x669 SWAP2 DUP2 MSTORE PUSH1 0x40 PUSH1 0x20 DUP3 ADD DUP2 SWAP1 MSTORE PUSH1 0x21 SWAP1 DUP3 ADD MSTORE PUSH32 0x41413332207061796D61737465722065787069726564206F72206E6F74206475 PUSH1 0x60 DUP3 ADD MSTORE PUSH32 0x6500000000000000000000000000000000000000000000000000000000000000 PUSH1 0x80 DUP3 ADD MSTORE PUSH1 0xA0 ADD SWAP1 JUMP JUMPDEST POP POP POP POP POP POP POP JUMP JUMPDEST PUSH1 0x0 DUP1 GAS SWAP1 POP PUSH1 0x0 PUSH2 0x2415 DUP5 PUSH1 0x60 ADD MLOAD SWAP1 JUMP JUMPDEST SWAP1 POP ADDRESS PUSH4 0x1D732756 PUSH2 0x242A PUSH1 0x60 DUP9 ADD DUP9 PUSH2 0x3A66 JUMP JUMPDEST DUP8 DUP6 PUSH1 0x40 MLOAD DUP6 PUSH4 0xFFFFFFFF AND PUSH1 0xE0 SHL DUP2 MSTORE PUSH1 0x4 ADD PUSH2 0x244B SWAP5 SWAP4 SWAP3 SWAP2 SWAP1 PUSH2 0x4017 JUMP JUMPDEST PUSH1 0x20 PUSH1 0x40 MLOAD DUP1 DUP4 SUB DUP2 PUSH1 0x0 DUP8 GAS CALL SWAP3 POP POP POP DUP1 ISZERO PUSH2 0x2486 JUMPI POP PUSH1 0x40 DUP1 MLOAD PUSH1 0x1F RETURNDATASIZE SWAP1 DUP2 ADD PUSH1 0x1F NOT AND DUP3 ADD SWAP1 SWAP3 MSTORE PUSH2 0x2483 SWAP2 DUP2 ADD SWAP1 PUSH2 0x40CB JUMP JUMPDEST PUSH1 0x1 JUMPDEST PUSH2 0x2544 JUMPI PUSH1 0x0 PUSH1 0x20 PUSH1 0x0 DUP1 RETURNDATACOPY POP PUSH1 0x0 MLOAD PUSH32 0x2152215300000000000000000000000000000000000000000000000000000000 DUP2 ADD PUSH2 0x250F JUMPI DUP7 PUSH1 0x40 MLOAD PUSH4 0x1101335B PUSH1 0xE1 SHL DUP2 MSTORE PUSH1 0x4 ADD PUSH2 0x669 SWAP2 DUP2 MSTORE PUSH1 0x40 PUSH1 0x20 DUP3 ADD DUP2 SWAP1 MSTORE PUSH1 0xF SWAP1 DUP3 ADD MSTORE PUSH32 0x41413935206F7574206F66206761730000000000000000000000000000000000 PUSH1 0x60 DUP3 ADD MSTORE PUSH1 0x80 ADD SWAP1 JUMP JUMPDEST PUSH1 0x0 DUP6 PUSH1 0x80 ADD MLOAD GAS PUSH2 0x2521 SWAP1 DUP7 PUSH2 0x39F3 JUMP JUMPDEST PUSH2 0x252B SWAP2 SWAP1 PUSH2 0x3927 JUMP JUMPDEST SWAP1 POP PUSH2 0x253B DUP9 PUSH1 0x2 DUP9 DUP7 DUP6 PUSH2 0x1CF4 JUMP JUMPDEST SWAP5 POP POP POP PUSH2 0x2547 JUMP JUMPDEST SWAP3 POP JUMPDEST POP POP SWAP4 SWAP3 POP POP POP JUMP JUMPDEST PUSH1 0x1 PUSH1 0x1 PUSH1 0xA0 SHL SUB DUP3 AND PUSH2 0x25A6 JUMPI PUSH1 0x40 MLOAD PUSH3 0x461BCD PUSH1 0xE5 SHL DUP2 MSTORE PUSH1 0x20 PUSH1 0x4 DUP3 ADD MSTORE PUSH1 0x18 PUSH1 0x24 DUP3 ADD MSTORE PUSH32 0x4141393020696E76616C69642062656E65666963696172790000000000000000 PUSH1 0x44 DUP3 ADD MSTORE PUSH1 0x64 ADD PUSH2 0x669 JUMP JUMPDEST PUSH1 0x0 DUP3 PUSH1 0x1 PUSH1 0x1 PUSH1 0xA0 SHL SUB AND DUP3 PUSH1 0x40 MLOAD PUSH1 0x0 PUSH1 0x40 MLOAD DUP1 DUP4 SUB DUP2 DUP6 DUP8 GAS CALL SWAP3 POP POP POP RETURNDATASIZE DUP1 PUSH1 0x0 DUP2 EQ PUSH2 0x25F3 JUMPI PUSH1 0x40 MLOAD SWAP2 POP PUSH1 0x1F NOT PUSH1 0x3F RETURNDATASIZE ADD AND DUP3 ADD PUSH1 0x40 MSTORE RETURNDATASIZE DUP3 MSTORE RETURNDATASIZE PUSH1 0x0 PUSH1 0x20 DUP5 ADD RETURNDATACOPY PUSH2 0x25F8 JUMP JUMPDEST PUSH1 0x60 SWAP2 POP JUMPDEST POP POP SWAP1 POP DUP1 PUSH2 0xC15 JUMPI PUSH1 0x40 MLOAD PUSH3 0x461BCD PUSH1 0xE5 SHL DUP2 MSTORE PUSH1 0x20 PUSH1 0x4 DUP3 ADD MSTORE PUSH1 0x1F PUSH1 0x24 DUP3 ADD MSTORE PUSH32 0x41413931206661696C65642073656E6420746F2062656E656669636961727900 PUSH1 0x44 DUP3 ADD MSTORE PUSH1 0x64 ADD PUSH2 0x669 JUMP JUMPDEST PUSH1 0x0 PUSH2 0x2654 DUP3 PUSH2 0x2EA8 JUMP JUMPDEST DUP1 MLOAD SWAP1 PUSH1 0x20 ADD KECCAK256 SWAP1 POP SWAP2 SWAP1 POP JUMP JUMPDEST ADDRESS PUSH4 0x957122AB PUSH2 0x2675 PUSH1 0x40 DUP5 ADD DUP5 PUSH2 0x3A66 JUMP JUMPDEST PUSH2 0x2682 PUSH1 0x20 DUP7 ADD DUP7 PUSH2 0x377D JUMP JUMPDEST PUSH2 0x2690 PUSH2 0x120 DUP8 ADD DUP8 PUSH2 0x3A66 JUMP JUMPDEST PUSH1 0x40 MLOAD DUP7 PUSH4 0xFFFFFFFF AND PUSH1 0xE0 SHL DUP2 MSTORE PUSH1 0x4 ADD PUSH2 0x26B0 SWAP6 SWAP5 SWAP4 SWAP3 SWAP2 SWAP1 PUSH2 0x40E4 JUMP JUMPDEST PUSH1 0x0 PUSH1 0x40 MLOAD DUP1 DUP4 SUB DUP2 DUP7 DUP1 EXTCODESIZE ISZERO DUP1 ISZERO PUSH2 0x26C8 JUMPI PUSH1 0x0 DUP1 REVERT JUMPDEST POP GAS STATICCALL SWAP3 POP POP POP DUP1 ISZERO PUSH2 0x26D9 JUMPI POP PUSH1 0x1 JUMPDEST PUSH2 0x2739 JUMPI PUSH2 0x26E5 PUSH2 0x3F2C JUMP JUMPDEST DUP1 PUSH4 0x8C379A0 SUB PUSH2 0x272D JUMPI POP PUSH2 0x26F9 PUSH2 0x3F48 JUMP JUMPDEST DUP1 PUSH2 0x2704 JUMPI POP PUSH2 0x272F JUMP JUMPDEST DUP1 MLOAD ISZERO PUSH2 0x2729 JUMPI PUSH1 0x0 DUP2 PUSH1 0x40 MLOAD PUSH4 0x1101335B PUSH1 0xE1 SHL DUP2 MSTORE PUSH1 0x4 ADD PUSH2 0x669 SWAP3 SWAP2 SWAP1 PUSH2 0x39A3 JUMP JUMPDEST POP POP JUMP JUMPDEST POP JUMPDEST RETURNDATASIZE PUSH1 0x0 DUP1 RETURNDATACOPY RETURNDATASIZE PUSH1 0x0 REVERT JUMPDEST POP JUMP JUMPDEST PUSH1 0x40 DUP1 MLOAD PUSH1 0x60 DUP2 ADD DUP3 MSTORE PUSH1 0x0 DUP1 DUP3 MSTORE PUSH1 0x20 DUP3 ADD DUP2 SWAP1 MSTORE SWAP2 DUP2 ADD DUP3 SWAP1 MSTORE SWAP1 PUSH2 0x2762 DUP5 PUSH2 0x2F7B JUMP JUMPDEST SWAP1 POP PUSH1 0x0 PUSH2 0x276F DUP5 PUSH2 0x2F7B JUMP JUMPDEST DUP3 MLOAD SWAP1 SWAP2 POP PUSH1 0x1 PUSH1 0x1 PUSH1 0xA0 SHL SUB DUP2 AND PUSH2 0x2786 JUMPI POP DUP1 MLOAD JUMPDEST PUSH1 0x20 DUP1 DUP5 ADD MLOAD PUSH1 0x40 DUP1 DUP7 ADD MLOAD SWAP3 DUP6 ADD MLOAD SWAP1 DUP6 ADD MLOAD SWAP2 SWAP3 SWAP2 PUSH6 0xFFFFFFFFFFFF DUP1 DUP4 AND SWAP1 DUP6 AND LT ISZERO PUSH2 0x27B4 JUMPI DUP2 SWAP4 POP JUMPDEST DUP1 PUSH6 0xFFFFFFFFFFFF AND DUP4 PUSH6 0xFFFFFFFFFFFF AND GT ISZERO PUSH2 0x27D0 JUMPI DUP1 SWAP3 POP JUMPDEST POP POP PUSH1 0x40 DUP1 MLOAD PUSH1 0x60 DUP2 ADD DUP3 MSTORE PUSH1 0x1 PUSH1 0x1 PUSH1 0xA0 SHL SUB SWAP1 SWAP5 AND DUP5 MSTORE PUSH6 0xFFFFFFFFFFFF SWAP3 DUP4 AND PUSH1 0x20 DUP6 ADD MSTORE SWAP2 AND SWAP1 DUP3 ADD MSTORE SWAP3 POP POP POP SWAP3 SWAP2 POP POP JUMP JUMPDEST PUSH1 0xC0 DUP2 ADD MLOAD PUSH1 0xE0 DUP3 ADD MLOAD PUSH1 0x0 SWAP2 SWAP1 DUP1 DUP3 SUB PUSH2 0x2824 JUMPI POP SWAP3 SWAP2 POP POP JUMP JUMPDEST PUSH2 0x2830 DUP3 BASEFEE DUP4 ADD PUSH2 0x2FEC JUMP JUMPDEST SWAP5 SWAP4 POP POP POP POP JUMP JUMPDEST PUSH2 0x2845 PUSH1 0x20 DUP4 ADD DUP4 PUSH2 0x377D JUMP JUMPDEST PUSH1 0x1 PUSH1 0x1 PUSH1 0xA0 SHL SUB AND DUP2 MSTORE PUSH1 0x20 DUP1 DUP4 ADD CALLDATALOAD SWAP1 DUP3 ADD MSTORE PUSH1 0x80 DUP1 DUP4 ADD CALLDATALOAD PUSH1 0x40 DUP4 ADD MSTORE PUSH1 0xA0 DUP4 ADD CALLDATALOAD PUSH1 0x60 DUP4 ADD MSTORE PUSH1 0xC0 DUP1 DUP5 ADD CALLDATALOAD SWAP2 DUP4 ADD SWAP2 SWAP1 SWAP2 MSTORE PUSH1 0xE0 DUP1 DUP5 ADD CALLDATALOAD SWAP2 DUP4 ADD SWAP2 SWAP1 SWAP2 MSTORE PUSH2 0x100 DUP4 ADD CALLDATALOAD SWAP1 DUP3 ADD MSTORE CALLDATASIZE PUSH1 0x0 PUSH2 0x28A4 PUSH2 0x120 DUP6 ADD DUP6 PUSH2 0x3A66 JUMP JUMPDEST SWAP1 SWAP3 POP SWAP1 POP DUP1 ISZERO PUSH2 0x2924 JUMPI PUSH1 0x14 DUP2 LT ISZERO PUSH2 0x2900 JUMPI PUSH1 0x40 MLOAD PUSH3 0x461BCD PUSH1 0xE5 SHL DUP2 MSTORE PUSH1 0x20 PUSH1 0x4 DUP3 ADD MSTORE PUSH1 0x1D PUSH1 0x24 DUP3 ADD MSTORE PUSH32 0x4141393320696E76616C6964207061796D6173746572416E6444617461000000 PUSH1 0x44 DUP3 ADD MSTORE PUSH1 0x64 ADD PUSH2 0x669 JUMP JUMPDEST PUSH2 0x290E PUSH1 0x14 PUSH1 0x0 DUP4 DUP6 PUSH2 0x3C90 JUMP JUMPDEST PUSH2 0x2917 SWAP2 PUSH2 0x3CBA JUMP JUMPDEST PUSH1 0x60 SHR PUSH1 0xA0 DUP5 ADD MSTORE PUSH2 0xDA2 JUMP JUMPDEST PUSH1 0x0 PUSH1 0xA0 DUP5 ADD MSTORE POP POP POP POP JUMP JUMPDEST PUSH1 0xA0 DUP2 ADD MLOAD PUSH1 0x0 SWAP1 DUP2 SWAP1 PUSH1 0x1 PUSH1 0x1 PUSH1 0xA0 SHL SUB AND PUSH2 0x294F JUMPI PUSH1 0x1 PUSH2 0x2952 JUMP JUMPDEST PUSH1 0x3 JUMPDEST PUSH1 0xFF AND SWAP1 POP PUSH1 0x0 DUP4 PUSH1 0x80 ADD MLOAD DUP3 DUP6 PUSH1 0x60 ADD MLOAD MUL DUP6 PUSH1 0x40 ADD MLOAD ADD ADD SWAP1 POP DUP4 PUSH1 0xC0 ADD MLOAD DUP2 MUL SWAP3 POP POP POP SWAP2 SWAP1 POP JUMP JUMPDEST PUSH1 0x0 DUP1 PUSH1 0x0 GAS DUP6 MLOAD DUP1 MLOAD SWAP2 SWAP3 POP SWAP1 PUSH2 0x29A3 DUP10 DUP9 PUSH2 0x299E PUSH1 0x40 DUP13 ADD DUP13 PUSH2 0x3A66 JUMP JUMPDEST PUSH2 0x3004 JUMP JUMPDEST PUSH1 0xA0 DUP3 ADD MLOAD PUSH2 0x29B1 NUMBER PUSH1 0x0 MSTORE JUMP JUMPDEST PUSH1 0x0 PUSH1 0x1 PUSH1 0x1 PUSH1 0xA0 SHL SUB DUP3 AND PUSH2 0x29F9 JUMPI PUSH1 0x1 PUSH1 0x1 PUSH1 0xA0 SHL SUB DUP4 AND PUSH1 0x0 SWAP1 DUP2 MSTORE PUSH1 0x20 DUP2 SWAP1 MSTORE PUSH1 0x40 SWAP1 KECCAK256 SLOAD PUSH1 0x1 PUSH1 0x1 PUSH1 0x70 SHL SUB AND DUP9 DUP2 GT PUSH2 0x29F2 JUMPI DUP1 DUP10 SUB PUSH2 0x29F5 JUMP JUMPDEST PUSH1 0x0 JUMPDEST SWAP2 POP POP JUMPDEST PUSH1 0x60 DUP5 ADD MLOAD PUSH1 0x20 DUP11 ADD MLOAD PUSH1 0x40 MLOAD PUSH32 0x3A871CDD00000000000000000000000000000000000000000000000000000000 DUP2 MSTORE PUSH1 0x1 PUSH1 0x1 PUSH1 0xA0 SHL SUB DUP7 AND SWAP3 PUSH4 0x3A871CDD SWAP3 SWAP1 SWAP2 PUSH2 0x2A4C SWAP2 DUP16 SWAP2 DUP8 SWAP1 PUSH1 0x4 ADD PUSH2 0x411A JUMP JUMPDEST PUSH1 0x20 PUSH1 0x40 MLOAD DUP1 DUP4 SUB DUP2 PUSH1 0x0 DUP9 DUP8 CALL SWAP4 POP POP POP POP DUP1 ISZERO PUSH2 0x2A88 JUMPI POP PUSH1 0x40 DUP1 MLOAD PUSH1 0x1F RETURNDATASIZE SWAP1 DUP2 ADD PUSH1 0x1F NOT AND DUP3 ADD SWAP1 SWAP3 MSTORE PUSH2 0x2A85 SWAP2 DUP2 ADD SWAP1 PUSH2 0x40CB JUMP JUMPDEST PUSH1 0x1 JUMPDEST PUSH2 0x2B19 JUMPI PUSH2 0x2A94 PUSH2 0x3F2C JUMP JUMPDEST DUP1 PUSH4 0x8C379A0 SUB PUSH2 0x2AC5 JUMPI POP PUSH2 0x2AA8 PUSH2 0x3F48 JUMP JUMPDEST DUP1 PUSH2 0x2AB3 JUMPI POP PUSH2 0x2AC7 JUMP JUMPDEST DUP12 DUP2 PUSH1 0x40 MLOAD PUSH1 0x20 ADD PUSH2 0x1E5F SWAP2 SWAP1 PUSH2 0x413F JUMP JUMPDEST POP JUMPDEST DUP11 PUSH1 0x40 MLOAD PUSH4 0x1101335B PUSH1 0xE1 SHL DUP2 MSTORE PUSH1 0x4 ADD PUSH2 0x669 SWAP2 DUP2 MSTORE PUSH1 0x40 PUSH1 0x20 DUP3 ADD DUP2 SWAP1 MSTORE PUSH1 0x16 SWAP1 DUP3 ADD MSTORE PUSH32 0x4141323320726576657274656420286F72204F4F472900000000000000000000 PUSH1 0x60 DUP3 ADD MSTORE PUSH1 0x80 ADD SWAP1 JUMP JUMPDEST SWAP6 POP PUSH1 0x1 PUSH1 0x1 PUSH1 0xA0 SHL SUB DUP3 AND PUSH2 0x2BCA JUMPI PUSH1 0x1 PUSH1 0x1 PUSH1 0xA0 SHL SUB DUP4 AND PUSH1 0x0 SWAP1 DUP2 MSTORE PUSH1 0x20 DUP2 SWAP1 MSTORE PUSH1 0x40 SWAP1 KECCAK256 DUP1 SLOAD PUSH1 0x1 PUSH1 0x1 PUSH1 0x70 SHL SUB AND DUP1 DUP11 GT ISZERO PUSH2 0x2BA6 JUMPI DUP13 PUSH1 0x40 MLOAD PUSH4 0x1101335B PUSH1 0xE1 SHL DUP2 MSTORE PUSH1 0x4 ADD PUSH2 0x669 SWAP2 DUP2 MSTORE PUSH1 0x40 PUSH1 0x20 DUP3 ADD DUP2 SWAP1 MSTORE PUSH1 0x17 SWAP1 DUP3 ADD MSTORE PUSH32 0x41413231206469646E2774207061792070726566756E64000000000000000000 PUSH1 0x60 DUP3 ADD MSTORE PUSH1 0x80 ADD SWAP1 JUMP JUMPDEST DUP2 SLOAD PUSH14 0xFFFFFFFFFFFFFFFFFFFFFFFFFFFF NOT AND SWAP1 DUP11 SWAP1 SUB PUSH1 0x1 PUSH1 0x1 PUSH1 0x70 SHL SUB AND OR SWAP1 SSTORE JUMPDEST GAS DUP6 SUB SWAP7 POP POP POP POP POP POP SWAP5 POP SWAP5 SWAP3 POP POP POP JUMP JUMPDEST PUSH1 0x1 PUSH1 0x1 PUSH1 0xA0 SHL SUB DUP3 AND PUSH1 0x0 SWAP1 DUP2 MSTORE PUSH1 0x1 PUSH1 0x20 SWAP1 DUP2 MSTORE PUSH1 0x40 DUP1 DUP4 KECCAK256 DUP5 DUP3 SHR DUP1 DUP6 MSTORE SWAP3 MSTORE DUP3 KECCAK256 DUP1 SLOAD DUP5 SWAP2 PUSH8 0xFFFFFFFFFFFFFFFF DUP4 AND SWAP2 SWAP1 DUP6 PUSH2 0x2C1D DUP4 PUSH2 0x393A JUMP JUMPDEST SWAP1 SWAP2 SSTORE POP EQ SWAP6 SWAP5 POP POP POP POP POP JUMP JUMPDEST DUP3 MLOAD PUSH1 0x60 DUP2 DUP2 ADD MLOAD SWAP1 SWAP2 PUSH1 0x0 SWAP2 DUP5 DUP2 GT PUSH2 0x2C87 JUMPI PUSH1 0x40 MLOAD PUSH3 0x461BCD PUSH1 0xE5 SHL DUP2 MSTORE PUSH1 0x20 PUSH1 0x4 DUP3 ADD MSTORE PUSH1 0x1F PUSH1 0x24 DUP3 ADD MSTORE PUSH32 0x4141343120746F6F206C6974746C6520766572696669636174696F6E47617300 PUSH1 0x44 DUP3 ADD MSTORE PUSH1 0x64 ADD PUSH2 0x669 JUMP JUMPDEST PUSH1 0xA0 DUP3 ADD MLOAD PUSH1 0x1 PUSH1 0x1 PUSH1 0xA0 SHL SUB DUP2 AND PUSH1 0x0 SWAP1 DUP2 MSTORE PUSH1 0x20 DUP2 SWAP1 MSTORE PUSH1 0x40 SWAP1 KECCAK256 DUP1 SLOAD DUP8 DUP5 SUB SWAP3 SWAP2 SWAP1 PUSH1 0x1 PUSH1 0x1 PUSH1 0x70 SHL SUB AND DUP10 DUP2 LT ISZERO PUSH2 0x2D0F JUMPI DUP13 PUSH1 0x40 MLOAD PUSH4 0x1101335B PUSH1 0xE1 SHL DUP2 MSTORE PUSH1 0x4 ADD PUSH2 0x669 SWAP2 DUP2 MSTORE PUSH1 0x40 PUSH1 0x20 DUP3 ADD DUP2 SWAP1 MSTORE PUSH1 0x1E SWAP1 DUP3 ADD MSTORE PUSH32 0x41413331207061796D6173746572206465706F73697420746F6F206C6F770000 PUSH1 0x60 DUP3 ADD MSTORE PUSH1 0x80 ADD SWAP1 JUMP JUMPDEST DUP10 DUP2 SUB DUP3 PUSH1 0x0 ADD PUSH1 0x0 PUSH2 0x100 EXP DUP2 SLOAD DUP2 PUSH1 0x1 PUSH1 0x1 PUSH1 0x70 SHL SUB MUL NOT AND SWAP1 DUP4 PUSH1 0x1 PUSH1 0x1 PUSH1 0x70 SHL SUB AND MUL OR SWAP1 SSTORE POP DUP3 PUSH1 0x1 PUSH1 0x1 PUSH1 0xA0 SHL SUB AND PUSH4 0xF465C77E DUP6 DUP15 DUP15 PUSH1 0x20 ADD MLOAD DUP15 PUSH1 0x40 MLOAD DUP6 PUSH4 0xFFFFFFFF AND PUSH1 0xE0 SHL DUP2 MSTORE PUSH1 0x4 ADD PUSH2 0x2D6F SWAP4 SWAP3 SWAP2 SWAP1 PUSH2 0x411A JUMP JUMPDEST PUSH1 0x0 PUSH1 0x40 MLOAD DUP1 DUP4 SUB DUP2 PUSH1 0x0 DUP9 DUP8 CALL SWAP4 POP POP POP POP DUP1 ISZERO PUSH2 0x2DB0 JUMPI POP PUSH1 0x40 MLOAD RETURNDATASIZE PUSH1 0x0 DUP3 RETURNDATACOPY PUSH1 0x1F RETURNDATASIZE SWAP1 DUP2 ADD PUSH1 0x1F NOT AND DUP3 ADD PUSH1 0x40 MSTORE PUSH2 0x2DAD SWAP2 SWAP1 DUP2 ADD SWAP1 PUSH2 0x4184 JUMP JUMPDEST PUSH1 0x1 JUMPDEST PUSH2 0x2E41 JUMPI PUSH2 0x2DBC PUSH2 0x3F2C JUMP JUMPDEST DUP1 PUSH4 0x8C379A0 SUB PUSH2 0x2DED JUMPI POP PUSH2 0x2DD0 PUSH2 0x3F48 JUMP JUMPDEST DUP1 PUSH2 0x2DDB JUMPI POP PUSH2 0x2DEF JUMP JUMPDEST DUP14 DUP2 PUSH1 0x40 MLOAD PUSH1 0x20 ADD PUSH2 0x1E5F SWAP2 SWAP1 PUSH2 0x4210 JUMP JUMPDEST POP JUMPDEST DUP13 PUSH1 0x40 MLOAD PUSH4 0x1101335B PUSH1 0xE1 SHL DUP2 MSTORE PUSH1 0x4 ADD PUSH2 0x669 SWAP2 DUP2 MSTORE PUSH1 0x40 PUSH1 0x20 DUP3 ADD DUP2 SWAP1 MSTORE PUSH1 0x16 SWAP1 DUP3 ADD MSTORE PUSH32 0x4141333320726576657274656420286F72204F4F472900000000000000000000 PUSH1 0x60 DUP3 ADD MSTORE PUSH1 0x80 ADD SWAP1 JUMP JUMPDEST SWAP1 SWAP15 SWAP1 SWAP14 POP SWAP12 POP POP POP POP POP POP POP POP POP POP POP POP JUMP JUMPDEST PUSH1 0x0 DUP1 DUP3 PUSH1 0x0 SUB PUSH2 0x2E6B JUMPI POP PUSH1 0x0 SWAP3 DUP4 SWAP3 POP SWAP1 POP JUMP JUMPDEST PUSH1 0x0 PUSH2 0x2E76 DUP5 PUSH2 0x2F7B JUMP JUMPDEST SWAP1 POP DUP1 PUSH1 0x40 ADD MLOAD PUSH6 0xFFFFFFFFFFFF AND TIMESTAMP GT DUP1 PUSH2 0x2E9D JUMPI POP DUP1 PUSH1 0x20 ADD MLOAD PUSH6 0xFFFFFFFFFFFF AND TIMESTAMP LT JUMPDEST SWAP1 MLOAD SWAP5 SWAP1 SWAP4 POP SWAP2 POP POP JUMP JUMPDEST PUSH1 0x60 DUP2 CALLDATALOAD PUSH1 0x20 DUP4 ADD CALLDATALOAD PUSH1 0x0 PUSH2 0x2EC8 PUSH2 0x2EC3 PUSH1 0x40 DUP8 ADD DUP8 PUSH2 0x3A66 JUMP JUMPDEST PUSH2 0x32C5 JUMP JUMPDEST SWAP1 POP PUSH1 0x0 PUSH2 0x2EDC PUSH2 0x2EC3 PUSH1 0x60 DUP9 ADD DUP9 PUSH2 0x3A66 JUMP JUMPDEST SWAP1 POP PUSH1 0x80 DUP7 ADD CALLDATALOAD PUSH1 0xA0 DUP8 ADD CALLDATALOAD PUSH1 0xC0 DUP9 ADD CALLDATALOAD PUSH1 0xE0 DUP10 ADD CALLDATALOAD PUSH2 0x100 DUP11 ADD CALLDATALOAD PUSH1 0x0 PUSH2 0x2F0B PUSH2 0x2EC3 PUSH2 0x120 DUP15 ADD DUP15 PUSH2 0x3A66 JUMP JUMPDEST PUSH1 0x40 DUP1 MLOAD PUSH1 0x1 PUSH1 0x1 PUSH1 0xA0 SHL SUB SWAP13 SWAP1 SWAP13 AND PUSH1 0x20 DUP14 ADD MSTORE DUP12 DUP2 ADD SWAP11 SWAP1 SWAP11 MSTORE PUSH1 0x60 DUP12 ADD SWAP9 SWAP1 SWAP9 MSTORE POP PUSH1 0x80 DUP10 ADD SWAP6 SWAP1 SWAP6 MSTORE PUSH1 0xA0 DUP9 ADD SWAP4 SWAP1 SWAP4 MSTORE PUSH1 0xC0 DUP8 ADD SWAP2 SWAP1 SWAP2 MSTORE PUSH1 0xE0 DUP7 ADD MSTORE PUSH2 0x100 DUP6 ADD MSTORE PUSH2 0x120 DUP5 ADD MSTORE PUSH2 0x140 DUP1 DUP5 ADD SWAP2 SWAP1 SWAP2 MSTORE DUP2 MLOAD DUP1 DUP5 SUB SWAP1 SWAP2 ADD DUP2 MSTORE PUSH2 0x160 SWAP1 SWAP3 ADD SWAP1 MSTORE SWAP3 SWAP2 POP POP JUMP JUMPDEST PUSH1 0x40 DUP1 MLOAD PUSH1 0x60 DUP2 ADD DUP3 MSTORE PUSH1 0x0 DUP1 DUP3 MSTORE PUSH1 0x20 DUP3 ADD DUP2 SWAP1 MSTORE SWAP2 DUP2 ADD SWAP2 SWAP1 SWAP2 MSTORE DUP2 PUSH1 0xA0 DUP2 SWAP1 SHR PUSH6 0xFFFFFFFFFFFF DUP2 AND PUSH1 0x0 SUB PUSH2 0x2FB7 JUMPI POP PUSH6 0xFFFFFFFFFFFF JUMPDEST PUSH1 0x40 DUP1 MLOAD PUSH1 0x60 DUP2 ADD DUP3 MSTORE PUSH1 0x1 PUSH1 0x1 PUSH1 0xA0 SHL SUB SWAP1 SWAP4 AND DUP4 MSTORE PUSH1 0xD0 SWAP5 SWAP1 SWAP5 SHR PUSH1 0x20 DUP4 ADD MSTORE PUSH6 0xFFFFFFFFFFFF AND SWAP3 DUP2 ADD SWAP3 SWAP1 SWAP3 MSTORE POP SWAP1 JUMP JUMPDEST PUSH1 0x0 DUP2 DUP4 LT PUSH2 0x2FFB JUMPI DUP2 PUSH2 0x2FFD JUMP JUMPDEST DUP3 JUMPDEST SWAP4 SWAP3 POP POP POP JUMP JUMPDEST DUP1 ISZERO PUSH2 0xDA2 JUMPI DUP3 MLOAD MLOAD PUSH1 0x1 PUSH1 0x1 PUSH1 0xA0 SHL SUB DUP2 AND EXTCODESIZE ISZERO PUSH2 0x306F JUMPI DUP5 PUSH1 0x40 MLOAD PUSH4 0x1101335B PUSH1 0xE1 SHL DUP2 MSTORE PUSH1 0x4 ADD PUSH2 0x669 SWAP2 DUP2 MSTORE PUSH1 0x40 PUSH1 0x20 DUP3 ADD DUP2 SWAP1 MSTORE PUSH1 0x1F SWAP1 DUP3 ADD MSTORE PUSH32 0x414131302073656E64657220616C726561647920636F6E737472756374656400 PUSH1 0x60 DUP3 ADD MSTORE PUSH1 0x80 ADD SWAP1 JUMP JUMPDEST DUP4 MLOAD PUSH1 0x60 ADD MLOAD PUSH1 0x40 MLOAD PUSH4 0x2B870D1B PUSH1 0xE1 SHL DUP2 MSTORE PUSH1 0x0 SWAP2 PUSH1 0x1 PUSH1 0x1 PUSH1 0xA0 SHL SUB PUSH32 0x0 AND SWAP2 PUSH4 0x570E1A36 SWAP2 SWAP1 PUSH2 0x30C7 SWAP1 DUP9 SWAP1 DUP9 SWAP1 PUSH1 0x4 ADD PUSH2 0x3CEF JUMP JUMPDEST PUSH1 0x20 PUSH1 0x40 MLOAD DUP1 DUP4 SUB DUP2 PUSH1 0x0 DUP9 DUP8 CALL ISZERO DUP1 ISZERO PUSH2 0x30E6 JUMPI RETURNDATASIZE PUSH1 0x0 DUP1 RETURNDATACOPY RETURNDATASIZE PUSH1 0x0 REVERT JUMPDEST POP POP POP POP POP PUSH1 0x40 MLOAD RETURNDATASIZE PUSH1 0x1F NOT PUSH1 0x1F DUP3 ADD AND DUP3 ADD DUP1 PUSH1 0x40 MSTORE POP DUP2 ADD SWAP1 PUSH2 0x310B SWAP2 SWAP1 PUSH2 0x3D03 JUMP JUMPDEST SWAP1 POP PUSH1 0x1 PUSH1 0x1 PUSH1 0xA0 SHL SUB DUP2 AND PUSH2 0x316D JUMPI DUP6 PUSH1 0x40 MLOAD PUSH4 0x1101335B PUSH1 0xE1 SHL DUP2 MSTORE PUSH1 0x4 ADD PUSH2 0x669 SWAP2 DUP2 MSTORE PUSH1 0x40 PUSH1 0x20 DUP3 ADD DUP2 SWAP1 MSTORE PUSH1 0x1B SWAP1 DUP3 ADD MSTORE PUSH32 0x4141313320696E6974436F6465206661696C6564206F72204F4F470000000000 PUSH1 0x60 DUP3 ADD MSTORE PUSH1 0x80 ADD SWAP1 JUMP JUMPDEST DUP2 PUSH1 0x1 PUSH1 0x1 PUSH1 0xA0 SHL SUB AND DUP2 PUSH1 0x1 PUSH1 0x1 PUSH1 0xA0 SHL SUB AND EQ PUSH2 0x31D7 JUMPI DUP6 PUSH1 0x40 MLOAD PUSH4 0x1101335B PUSH1 0xE1 SHL DUP2 MSTORE PUSH1 0x4 ADD PUSH2 0x669 SWAP2 DUP2 MSTORE PUSH1 0x40 PUSH1 0x20 DUP1 DUP4 ADD DUP3 SWAP1 MSTORE SWAP1 DUP3 ADD MSTORE PUSH32 0x4141313420696E6974436F6465206D7573742072657475726E2073656E646572 PUSH1 0x60 DUP3 ADD MSTORE PUSH1 0x80 ADD SWAP1 JUMP JUMPDEST DUP1 PUSH1 0x1 PUSH1 0x1 PUSH1 0xA0 SHL SUB AND EXTCODESIZE PUSH1 0x0 SUB PUSH2 0x323A JUMPI DUP6 PUSH1 0x40 MLOAD PUSH4 0x1101335B PUSH1 0xE1 SHL DUP2 MSTORE PUSH1 0x4 ADD PUSH2 0x669 SWAP2 DUP2 MSTORE PUSH1 0x40 PUSH1 0x20 DUP1 DUP4 ADD DUP3 SWAP1 MSTORE SWAP1 DUP3 ADD MSTORE PUSH32 0x4141313520696E6974436F6465206D757374206372656174652073656E646572 PUSH1 0x60 DUP3 ADD MSTORE PUSH1 0x80 ADD SWAP1 JUMP JUMPDEST PUSH1 0x0 PUSH2 0x3249 PUSH1 0x14 DUP3 DUP7 DUP9 PUSH2 0x3C90 JUMP JUMPDEST PUSH2 0x3252 SWAP2 PUSH2 0x3CBA JUMP JUMPDEST PUSH1 0x60 SHR SWAP1 POP DUP3 PUSH1 0x1 PUSH1 0x1 PUSH1 0xA0 SHL SUB AND DUP7 PUSH1 0x20 ADD MLOAD PUSH32 0xD51A9C61267AA6196961883ECF5FF2DA6619C37DAC0FA92122513FB32C032D2D DUP4 DUP10 PUSH1 0x0 ADD MLOAD PUSH1 0xA0 ADD MLOAD PUSH1 0x40 MLOAD PUSH2 0x32B4 SWAP3 SWAP2 SWAP1 PUSH1 0x1 PUSH1 0x1 PUSH1 0xA0 SHL SUB SWAP3 DUP4 AND DUP2 MSTORE SWAP2 AND PUSH1 0x20 DUP3 ADD MSTORE PUSH1 0x40 ADD SWAP1 JUMP JUMPDEST PUSH1 0x40 MLOAD DUP1 SWAP2 SUB SWAP1 LOG3 POP POP POP POP POP POP POP JUMP JUMPDEST PUSH1 0x0 PUSH1 0x40 MLOAD DUP3 DUP1 DUP6 DUP4 CALLDATACOPY SWAP1 KECCAK256 SWAP4 SWAP3 POP POP POP JUMP JUMPDEST PUSH1 0x40 MLOAD DUP1 PUSH1 0xA0 ADD PUSH1 0x40 MSTORE DUP1 PUSH2 0x333D PUSH1 0x40 MLOAD DUP1 PUSH2 0x100 ADD PUSH1 0x40 MSTORE DUP1 PUSH1 0x0 PUSH1 0x1 PUSH1 0x1 PUSH1 0xA0 SHL SUB AND DUP2 MSTORE PUSH1 0x20 ADD PUSH1 0x0 DUP2 MSTORE PUSH1 0x20 ADD PUSH1 0x0 DUP2 MSTORE PUSH1 0x20 ADD PUSH1 0x0 DUP2 MSTORE PUSH1 0x20 ADD PUSH1 0x0 DUP2 MSTORE PUSH1 0x20 ADD PUSH1 0x0 PUSH1 0x1 PUSH1 0x1 PUSH1 0xA0 SHL SUB AND DUP2 MSTORE PUSH1 0x20 ADD PUSH1 0x0 DUP2 MSTORE PUSH1 0x20 ADD PUSH1 0x0 DUP2 MSTORE POP SWAP1 JUMP JUMPDEST DUP2 MSTORE PUSH1 0x20 ADD PUSH1 0x0 DUP1 NOT AND DUP2 MSTORE PUSH1 0x20 ADD PUSH1 0x0 DUP2 MSTORE PUSH1 0x20 ADD PUSH1 0x0 DUP2 MSTORE PUSH1 0x20 ADD PUSH1 0x0 DUP2 MSTORE POP SWAP1 JUMP JUMPDEST PUSH1 0x0 PUSH1 0x20 DUP3 DUP5 SUB SLT ISZERO PUSH2 0x3374 JUMPI PUSH1 0x0 DUP1 REVERT JUMPDEST DUP2 CALLDATALOAD PUSH4 0xFFFFFFFF DUP2 AND DUP2 EQ PUSH2 0x2FFD JUMPI PUSH1 0x0 DUP1 REVERT JUMPDEST DUP1 CALLDATALOAD PUSH24 0xFFFFFFFFFFFFFFFFFFFFFFFFFFFFFFFFFFFFFFFFFFFFFFFF DUP2 AND DUP2 EQ PUSH2 0x33B0 JUMPI PUSH1 0x0 DUP1 REVERT JUMPDEST SWAP2 SWAP1 POP JUMP JUMPDEST PUSH1 0x0 PUSH1 0x20 DUP3 DUP5 SUB SLT ISZERO PUSH2 0x33C7 JUMPI PUSH1 0x0 DUP1 REVERT JUMPDEST PUSH2 0x2FFD DUP3 PUSH2 0x3388 JUMP JUMPDEST PUSH1 0x1 PUSH1 0x1 PUSH1 0xA0 SHL SUB DUP2 AND DUP2 EQ PUSH2 0x2739 JUMPI PUSH1 0x0 DUP1 REVERT JUMPDEST DUP1 CALLDATALOAD PUSH2 0x33B0 DUP2 PUSH2 0x33D0 JUMP JUMPDEST PUSH1 0x0 DUP1 PUSH1 0x40 DUP4 DUP6 SUB SLT ISZERO PUSH2 0x3403 JUMPI PUSH1 0x0 DUP1 REVERT JUMPDEST DUP3 CALLDATALOAD PUSH2 0x340E DUP2 PUSH2 0x33D0 JUMP JUMPDEST SWAP2 POP PUSH2 0x341C PUSH1 0x20 DUP5 ADD PUSH2 0x3388 JUMP JUMPDEST SWAP1 POP SWAP3 POP SWAP3 SWAP1 POP JUMP JUMPDEST PUSH4 0x4E487B71 PUSH1 0xE0 SHL PUSH1 0x0 MSTORE PUSH1 0x41 PUSH1 0x4 MSTORE PUSH1 0x24 PUSH1 0x0 REVERT JUMPDEST PUSH1 0xA0 DUP2 ADD DUP2 DUP2 LT PUSH8 0xFFFFFFFFFFFFFFFF DUP3 GT OR ISZERO PUSH2 0x345B JUMPI PUSH2 0x345B PUSH2 0x3425 JUMP JUMPDEST PUSH1 0x40 MSTORE POP JUMP JUMPDEST PUSH2 0x100 DUP2 ADD DUP2 DUP2 LT PUSH8 0xFFFFFFFFFFFFFFFF DUP3 GT OR ISZERO PUSH2 0x345B JUMPI PUSH2 0x345B PUSH2 0x3425 JUMP JUMPDEST PUSH1 0x1F DUP3 ADD PUSH1 0x1F NOT AND DUP2 ADD PUSH8 0xFFFFFFFFFFFFFFFF DUP2 GT DUP3 DUP3 LT OR ISZERO PUSH2 0x34A8 JUMPI PUSH2 0x34A8 PUSH2 0x3425 JUMP JUMPDEST PUSH1 0x40 MSTORE POP POP JUMP JUMPDEST PUSH1 0x0 PUSH8 0xFFFFFFFFFFFFFFFF DUP3 GT ISZERO PUSH2 0x34C9 JUMPI PUSH2 0x34C9 PUSH2 0x3425 JUMP JUMPDEST POP PUSH1 0x1F ADD PUSH1 0x1F NOT AND PUSH1 0x20 ADD SWAP1 JUMP JUMPDEST PUSH1 0x0 DUP2 DUP4 SUB PUSH2 0x180 DUP2 SLT ISZERO PUSH2 0x34EB JUMPI PUSH1 0x0 DUP1 REVERT JUMPDEST PUSH1 0x40 MLOAD PUSH2 0x34F7 DUP2 PUSH2 0x343B JUMP JUMPDEST DUP1 SWAP3 POP PUSH2 0x100 DUP1 DUP4 SLT ISZERO PUSH2 0x350A JUMPI PUSH1 0x0 DUP1 REVERT JUMPDEST PUSH1 0x40 MLOAD SWAP3 POP PUSH2 0x3518 DUP4 PUSH2 0x3461 JUMP JUMPDEST PUSH2 0x3521 DUP6 PUSH2 0x33E5 JUMP JUMPDEST DUP4 MSTORE PUSH1 0x20 DUP6 ADD CALLDATALOAD PUSH1 0x20 DUP5 ADD MSTORE PUSH1 0x40 DUP6 ADD CALLDATALOAD PUSH1 0x40 DUP5 ADD MSTORE PUSH1 0x60 DUP6 ADD CALLDATALOAD PUSH1 0x60 DUP5 ADD MSTORE PUSH1 0x80 DUP6 ADD CALLDATALOAD PUSH1 0x80 DUP5 ADD MSTORE PUSH2 0x3557 PUSH1 0xA0 DUP7 ADD PUSH2 0x33E5 JUMP JUMPDEST PUSH1 0xA0 DUP5 ADD MSTORE PUSH1 0xC0 DUP6 ADD CALLDATALOAD PUSH1 0xC0 DUP5 ADD MSTORE PUSH1 0xE0 DUP6 ADD CALLDATALOAD PUSH1 0xE0 DUP5 ADD MSTORE DUP3 DUP3 MSTORE DUP1 DUP6 ADD CALLDATALOAD PUSH1 0x20 DUP4 ADD MSTORE POP PUSH2 0x120 DUP5 ADD CALLDATALOAD PUSH1 0x40 DUP3 ADD MSTORE PUSH2 0x140 DUP5 ADD CALLDATALOAD PUSH1 0x60 DUP3 ADD MSTORE PUSH2 0x160 DUP5 ADD CALLDATALOAD PUSH1 0x80 DUP3 ADD MSTORE POP POP SWAP3 SWAP2 POP POP JUMP JUMPDEST PUSH1 0x0 DUP1 DUP4 PUSH1 0x1F DUP5 ADD SLT PUSH2 0x35B8 JUMPI PUSH1 0x0 DUP1 REVERT JUMPDEST POP DUP2 CALLDATALOAD PUSH8 0xFFFFFFFFFFFFFFFF DUP2 GT ISZERO PUSH2 0x35D0 JUMPI PUSH1 0x0 DUP1 REVERT JUMPDEST PUSH1 0x20 DUP4 ADD SWAP2 POP DUP4 PUSH1 0x20 DUP3 DUP6 ADD ADD GT ISZERO PUSH2 0x35E8 JUMPI PUSH1 0x0 DUP1 REVERT JUMPDEST SWAP3 POP SWAP3 SWAP1 POP JUMP JUMPDEST PUSH1 0x0 DUP1 PUSH1 0x0 DUP1 PUSH2 0x1C0 DUP6 DUP8 SUB SLT ISZERO PUSH2 0x3606 JUMPI PUSH1 0x0 DUP1 REVERT JUMPDEST DUP5 CALLDATALOAD PUSH8 0xFFFFFFFFFFFFFFFF DUP1 DUP3 GT ISZERO PUSH2 0x361E JUMPI PUSH1 0x0 DUP1 REVERT JUMPDEST DUP2 DUP8 ADD SWAP2 POP DUP8 PUSH1 0x1F DUP4 ADD SLT PUSH2 0x3632 JUMPI PUSH1 0x0 DUP1 REVERT JUMPDEST DUP2 CALLDATALOAD PUSH2 0x363D DUP2 PUSH2 0x34AF JUMP JUMPDEST PUSH1 0x40 MLOAD PUSH2 0x364A DUP3 DUP3 PUSH2 0x3482 JUMP JUMPDEST DUP3 DUP2 MSTORE DUP11 PUSH1 0x20 DUP5 DUP8 ADD ADD GT ISZERO PUSH2 0x365F JUMPI PUSH1 0x0 DUP1 REVERT JUMPDEST DUP3 PUSH1 0x20 DUP7 ADD PUSH1 0x20 DUP4 ADD CALLDATACOPY PUSH1 0x0 PUSH1 0x20 DUP5 DUP4 ADD ADD MSTORE DUP1 SWAP9 POP POP POP POP PUSH2 0x3685 DUP9 PUSH1 0x20 DUP10 ADD PUSH2 0x34D7 JUMP JUMPDEST SWAP5 POP PUSH2 0x1A0 DUP8 ADD CALLDATALOAD SWAP2 POP DUP1 DUP3 GT ISZERO PUSH2 0x369C JUMPI PUSH1 0x0 DUP1 REVERT JUMPDEST POP PUSH2 0x36A9 DUP8 DUP3 DUP9 ADD PUSH2 0x35A6 JUMP JUMPDEST SWAP6 SWAP9 SWAP5 SWAP8 POP SWAP6 POP POP POP POP JUMP JUMPDEST PUSH1 0x0 DUP1 DUP4 PUSH1 0x1F DUP5 ADD SLT PUSH2 0x36C7 JUMPI PUSH1 0x0 DUP1 REVERT JUMPDEST POP DUP2 CALLDATALOAD PUSH8 0xFFFFFFFFFFFFFFFF DUP2 GT ISZERO PUSH2 0x36DF JUMPI PUSH1 0x0 DUP1 REVERT JUMPDEST PUSH1 0x20 DUP4 ADD SWAP2 POP DUP4 PUSH1 0x20 DUP3 PUSH1 0x5 SHL DUP6 ADD ADD GT ISZERO PUSH2 0x35E8 JUMPI PUSH1 0x0 DUP1 REVERT JUMPDEST PUSH1 0x0 DUP1 PUSH1 0x0 PUSH1 0x40 DUP5 DUP7 SUB SLT ISZERO PUSH2 0x370F JUMPI PUSH1 0x0 DUP1 REVERT JUMPDEST DUP4 CALLDATALOAD PUSH8 0xFFFFFFFFFFFFFFFF DUP2 GT ISZERO PUSH2 0x3726 JUMPI PUSH1 0x0 DUP1 REVERT JUMPDEST PUSH2 0x3732 DUP7 DUP3 DUP8 ADD PUSH2 0x36B5 JUMP JUMPDEST SWAP1 SWAP5 POP SWAP3 POP POP PUSH1 0x20 DUP5 ADD CALLDATALOAD PUSH2 0x3746 DUP2 PUSH2 0x33D0 JUMP JUMPDEST DUP1 SWAP2 POP POP SWAP3 POP SWAP3 POP SWAP3 JUMP JUMPDEST PUSH1 0x0 DUP1 PUSH1 0x40 DUP4 DUP6 SUB SLT ISZERO PUSH2 0x3764 JUMPI PUSH1 0x0 DUP1 REVERT JUMPDEST DUP3 CALLDATALOAD PUSH2 0x376F DUP2 PUSH2 0x33D0 JUMP JUMPDEST SWAP5 PUSH1 0x20 SWAP4 SWAP1 SWAP4 ADD CALLDATALOAD SWAP4 POP POP POP JUMP JUMPDEST PUSH1 0x0 PUSH1 0x20 DUP3 DUP5 SUB SLT ISZERO PUSH2 0x378F JUMPI PUSH1 0x0 DUP1 REVERT JUMPDEST DUP2 CALLDATALOAD PUSH2 0x2FFD DUP2 PUSH2 0x33D0 JUMP JUMPDEST PUSH1 0x0 DUP1 PUSH1 0x0 DUP1 PUSH1 0x0 PUSH1 0x60 DUP7 DUP9 SUB SLT ISZERO PUSH2 0x37B2 JUMPI PUSH1 0x0 DUP1 REVERT JUMPDEST DUP6 CALLDATALOAD PUSH8 0xFFFFFFFFFFFFFFFF DUP1 DUP3 GT ISZERO PUSH2 0x37CA JUMPI PUSH1 0x0 DUP1 REVERT JUMPDEST PUSH2 0x37D6 DUP10 DUP4 DUP11 ADD PUSH2 0x35A6 JUMP JUMPDEST SWAP1 SWAP8 POP SWAP6 POP PUSH1 0x20 DUP9 ADD CALLDATALOAD SWAP2 POP PUSH2 0x37EB DUP3 PUSH2 0x33D0 JUMP JUMPDEST SWAP1 SWAP4 POP PUSH1 0x40 DUP8 ADD CALLDATALOAD SWAP1 DUP1 DUP3 GT ISZERO PUSH2 0x3801 JUMPI PUSH1 0x0 DUP1 REVERT JUMPDEST POP PUSH2 0x380E DUP9 DUP3 DUP10 ADD PUSH2 0x35A6 JUMP JUMPDEST SWAP7 SWAP10 SWAP6 SWAP9 POP SWAP4 SWAP7 POP SWAP3 SWAP5 SWAP4 SWAP3 POP POP POP JUMP JUMPDEST PUSH1 0x0 DUP1 PUSH1 0x20 DUP4 DUP6 SUB SLT ISZERO PUSH2 0x3832 JUMPI PUSH1 0x0 DUP1 REVERT JUMPDEST DUP3 CALLDATALOAD PUSH8 0xFFFFFFFFFFFFFFFF DUP2 GT ISZERO PUSH2 0x3849 JUMPI PUSH1 0x0 DUP1 REVERT JUMPDEST PUSH2 0x3855 DUP6 DUP3 DUP7 ADD PUSH2 0x35A6 JUMP JUMPDEST SWAP1 SWAP7 SWAP1 SWAP6 POP SWAP4 POP POP POP POP JUMP JUMPDEST PUSH1 0x0 PUSH2 0x160 DUP3 DUP5 SUB SLT ISZERO PUSH2 0x3874 JUMPI PUSH1 0x0 DUP1 REVERT JUMPDEST POP SWAP2 SWAP1 POP JUMP JUMPDEST PUSH1 0x0 PUSH1 0x20 DUP3 DUP5 SUB SLT ISZERO PUSH2 0x388C JUMPI PUSH1 0x0 DUP1 REVERT JUMPDEST DUP2 CALLDATALOAD PUSH8 0xFFFFFFFFFFFFFFFF DUP2 GT ISZERO PUSH2 0x38A3 JUMPI PUSH1 0x0 DUP1 REVERT JUMPDEST PUSH2 0x2830 DUP5 DUP3 DUP6 ADD PUSH2 0x3861 JUMP JUMPDEST PUSH1 0x0 DUP1 PUSH1 0x0 DUP1 PUSH1 0x60 DUP6 DUP8 SUB SLT ISZERO PUSH2 0x38C5 JUMPI PUSH1 0x0 DUP1 REVERT JUMPDEST DUP5 CALLDATALOAD PUSH8 0xFFFFFFFFFFFFFFFF DUP1 DUP3 GT ISZERO PUSH2 0x38DD JUMPI PUSH1 0x0 DUP1 REVERT JUMPDEST PUSH2 0x38E9 DUP9 DUP4 DUP10 ADD PUSH2 0x3861 JUMP JUMPDEST SWAP6 POP PUSH1 0x20 DUP8 ADD CALLDATALOAD SWAP2 POP PUSH2 0x38FB DUP3 PUSH2 0x33D0 JUMP JUMPDEST SWAP1 SWAP4 POP PUSH1 0x40 DUP7 ADD CALLDATALOAD SWAP1 DUP1 DUP3 GT ISZERO PUSH2 0x369C JUMPI PUSH1 0x0 DUP1 REVERT JUMPDEST PUSH4 0x4E487B71 PUSH1 0xE0 SHL PUSH1 0x0 MSTORE PUSH1 0x11 PUSH1 0x4 MSTORE PUSH1 0x24 PUSH1 0x0 REVERT JUMPDEST DUP1 DUP3 ADD DUP1 DUP3 GT ISZERO PUSH2 0xDF9 JUMPI PUSH2 0xDF9 PUSH2 0x3911 JUMP JUMPDEST PUSH1 0x0 PUSH1 0x1 DUP3 ADD PUSH2 0x394C JUMPI PUSH2 0x394C PUSH2 0x3911 JUMP JUMPDEST POP PUSH1 0x1 ADD SWAP1 JUMP JUMPDEST PUSH1 0x0 JUMPDEST DUP4 DUP2 LT ISZERO PUSH2 0x396E JUMPI DUP2 DUP2 ADD MLOAD DUP4 DUP3 ADD MSTORE PUSH1 0x20 ADD PUSH2 0x3956 JUMP JUMPDEST POP POP PUSH1 0x0 SWAP2 ADD MSTORE JUMP JUMPDEST PUSH1 0x0 DUP2 MLOAD DUP1 DUP5 MSTORE PUSH2 0x398F DUP2 PUSH1 0x20 DUP7 ADD PUSH1 0x20 DUP7 ADD PUSH2 0x3953 JUMP JUMPDEST PUSH1 0x1F ADD PUSH1 0x1F NOT AND SWAP3 SWAP1 SWAP3 ADD PUSH1 0x20 ADD SWAP3 SWAP2 POP POP JUMP JUMPDEST DUP3 DUP2 MSTORE PUSH1 0x40 PUSH1 0x20 DUP3 ADD MSTORE PUSH1 0x0 PUSH2 0x2830 PUSH1 0x40 DUP4 ADD DUP5 PUSH2 0x3977 JUMP JUMPDEST PUSH4 0x4E487B71 PUSH1 0xE0 SHL PUSH1 0x0 MSTORE PUSH1 0x32 PUSH1 0x4 MSTORE PUSH1 0x24 PUSH1 0x0 REVERT JUMPDEST PUSH1 0x0 DUP3 CALLDATALOAD PUSH2 0x15E NOT DUP4 CALLDATASIZE SUB ADD DUP2 SLT PUSH2 0x39E9 JUMPI PUSH1 0x0 DUP1 REVERT JUMPDEST SWAP2 SWAP1 SWAP2 ADD SWAP3 SWAP2 POP POP JUMP JUMPDEST DUP2 DUP2 SUB DUP2 DUP2 GT ISZERO PUSH2 0xDF9 JUMPI PUSH2 0xDF9 PUSH2 0x3911 JUMP JUMPDEST PUSH1 0x0 DUP3 CALLDATALOAD PUSH1 0x5E NOT DUP4 CALLDATASIZE SUB ADD DUP2 SLT PUSH2 0x39E9 JUMPI PUSH1 0x0 DUP1 REVERT JUMPDEST PUSH1 0x0 DUP1 DUP4 CALLDATALOAD PUSH1 0x1E NOT DUP5 CALLDATASIZE SUB ADD DUP2 SLT PUSH2 0x3A33 JUMPI PUSH1 0x0 DUP1 REVERT JUMPDEST DUP4 ADD DUP1 CALLDATALOAD SWAP2 POP PUSH8 0xFFFFFFFFFFFFFFFF DUP3 GT ISZERO PUSH2 0x3A4E JUMPI PUSH1 0x0 DUP1 REVERT JUMPDEST PUSH1 0x20 ADD SWAP2 POP PUSH1 0x5 DUP2 SWAP1 SHL CALLDATASIZE SUB DUP3 SGT ISZERO PUSH2 0x35E8 JUMPI PUSH1 0x0 DUP1 REVERT JUMPDEST PUSH1 0x0 DUP1 DUP4 CALLDATALOAD PUSH1 0x1E NOT DUP5 CALLDATASIZE SUB ADD DUP2 SLT PUSH2 0x3A7D JUMPI PUSH1 0x0 DUP1 REVERT JUMPDEST DUP4 ADD DUP1 CALLDATALOAD SWAP2 POP PUSH8 0xFFFFFFFFFFFFFFFF DUP3 GT ISZERO PUSH2 0x3A98 JUMPI PUSH1 0x0 DUP1 REVERT JUMPDEST PUSH1 0x20 ADD SWAP2 POP CALLDATASIZE DUP2 SWAP1 SUB DUP3 SGT ISZERO PUSH2 0x35E8 JUMPI PUSH1 0x0 DUP1 REVERT JUMPDEST PUSH1 0x0 DUP1 DUP4 CALLDATALOAD PUSH1 0x1E NOT DUP5 CALLDATASIZE SUB ADD DUP2 SLT PUSH2 0x3AC4 JUMPI PUSH1 0x0 DUP1 REVERT JUMPDEST DUP4 ADD PUSH1 0x20 DUP2 ADD SWAP3 POP CALLDATALOAD SWAP1 POP PUSH8 0xFFFFFFFFFFFFFFFF DUP2 GT ISZERO PUSH2 0x3AE4 JUMPI PUSH1 0x0 DUP1 REVERT JUMPDEST DUP1 CALLDATASIZE SUB DUP3 SGT ISZERO PUSH2 0x35E8 JUMPI PUSH1 0x0 DUP1 REVERT JUMPDEST DUP2 DUP4 MSTORE DUP2 DUP2 PUSH1 0x20 DUP6 ADD CALLDATACOPY POP PUSH1 0x0 DUP3 DUP3 ADD PUSH1 0x20 SWAP1 DUP2 ADD SWAP2 SWAP1 SWAP2 MSTORE PUSH1 0x1F SWAP1 SWAP2 ADD PUSH1 0x1F NOT AND SWAP1 SWAP2 ADD ADD SWAP1 JUMP JUMPDEST PUSH1 0x0 PUSH2 0x160 PUSH2 0x3B3B DUP5 PUSH2 0x3B2E DUP6 PUSH2 0x33E5 JUMP JUMPDEST PUSH1 0x1 PUSH1 0x1 PUSH1 0xA0 SHL SUB AND SWAP1 MSTORE JUMP JUMPDEST PUSH1 0x20 DUP4 ADD CALLDATALOAD PUSH1 0x20 DUP6 ADD MSTORE PUSH2 0x3B52 PUSH1 0x40 DUP5 ADD DUP5 PUSH2 0x3AAD JUMP JUMPDEST DUP3 PUSH1 0x40 DUP8 ADD MSTORE PUSH2 0x3B65 DUP4 DUP8 ADD DUP3 DUP5 PUSH2 0x3AF3 JUMP JUMPDEST SWAP3 POP POP POP PUSH2 0x3B76 PUSH1 0x60 DUP5 ADD DUP5 PUSH2 0x3AAD JUMP JUMPDEST DUP6 DUP4 SUB PUSH1 0x60 DUP8 ADD MSTORE PUSH2 0x3B89 DUP4 DUP3 DUP5 PUSH2 0x3AF3 JUMP JUMPDEST SWAP3 POP POP POP PUSH1 0x80 DUP4 ADD CALLDATALOAD PUSH1 0x80 DUP6 ADD MSTORE PUSH1 0xA0 DUP4 ADD CALLDATALOAD PUSH1 0xA0 DUP6 ADD MSTORE PUSH1 0xC0 DUP4 ADD CALLDATALOAD PUSH1 0xC0 DUP6 ADD MSTORE PUSH1 0xE0 DUP4 ADD CALLDATALOAD PUSH1 0xE0 DUP6 ADD MSTORE PUSH2 0x100 DUP1 DUP5 ADD CALLDATALOAD DUP2 DUP7 ADD MSTORE POP PUSH2 0x120 PUSH2 0x3BD0 DUP2 DUP6 ADD DUP6 PUSH2 0x3AAD JUMP JUMPDEST DUP7 DUP5 SUB DUP4 DUP9 ADD MSTORE PUSH2 0x3BE2 DUP5 DUP3 DUP5 PUSH2 0x3AF3 JUMP JUMPDEST SWAP4 POP POP POP POP PUSH2 0x140 PUSH2 0x3BF6 DUP2 DUP6 ADD DUP6 PUSH2 0x3AAD JUMP JUMPDEST DUP7 DUP5 SUB DUP4 DUP9 ADD MSTORE PUSH2 0x3C08 DUP5 DUP3 DUP5 PUSH2 0x3AF3 JUMP JUMPDEST SWAP8 SWAP7 POP POP POP POP POP POP POP JUMP JUMPDEST PUSH1 0x40 DUP1 DUP3 MSTORE DUP2 ADD DUP5 SWAP1 MSTORE PUSH1 0x0 PUSH1 0x60 PUSH1 0x5 DUP7 SWAP1 SHL DUP4 ADD DUP2 ADD SWAP1 DUP4 ADD DUP8 DUP4 DUP1 JUMPDEST DUP10 DUP2 LT ISZERO PUSH2 0x3C79 JUMPI DUP7 DUP6 SUB PUSH1 0x5F NOT ADD DUP5 MSTORE DUP3 CALLDATALOAD CALLDATASIZE DUP13 SWAP1 SUB PUSH2 0x15E NOT ADD DUP2 SLT PUSH2 0x3C57 JUMPI DUP3 DUP4 REVERT JUMPDEST PUSH2 0x3C63 DUP7 DUP14 DUP4 ADD PUSH2 0x3B1C JUMP JUMPDEST SWAP6 POP POP PUSH1 0x20 SWAP4 DUP5 ADD SWAP4 SWAP3 SWAP1 SWAP3 ADD SWAP2 PUSH1 0x1 ADD PUSH2 0x3C31 JUMP JUMPDEST POP POP POP POP DUP3 DUP2 SUB PUSH1 0x20 DUP5 ADD MSTORE PUSH2 0x3C08 DUP2 DUP6 DUP8 PUSH2 0x3AF3 JUMP JUMPDEST PUSH1 0x0 DUP1 DUP6 DUP6 GT ISZERO PUSH2 0x3CA0 JUMPI PUSH1 0x0 DUP1 REVERT JUMPDEST DUP4 DUP7 GT ISZERO PUSH2 0x3CAD JUMPI PUSH1 0x0 DUP1 REVERT JUMPDEST POP POP DUP3 ADD SWAP4 SWAP2 SWAP1 SWAP3 SUB SWAP2 POP JUMP JUMPDEST PUSH12 0xFFFFFFFFFFFFFFFFFFFFFFFF NOT DUP2 CALLDATALOAD DUP2 DUP2 AND SWAP2 PUSH1 0x14 DUP6 LT ISZERO PUSH2 0x3CE7 JUMPI DUP1 DUP2 DUP7 PUSH1 0x14 SUB PUSH1 0x3 SHL SHL DUP4 AND AND SWAP3 POP JUMPDEST POP POP SWAP3 SWAP2 POP POP JUMP JUMPDEST PUSH1 0x20 DUP2 MSTORE PUSH1 0x0 PUSH2 0x2830 PUSH1 0x20 DUP4 ADD DUP5 DUP7 PUSH2 0x3AF3 JUMP JUMPDEST PUSH1 0x0 PUSH1 0x20 DUP3 DUP5 SUB SLT ISZERO PUSH2 0x3D15 JUMPI PUSH1 0x0 DUP1 REVERT JUMPDEST DUP2 MLOAD PUSH2 0x2FFD DUP2 PUSH2 0x33D0 JUMP JUMPDEST PUSH6 0xFFFFFFFFFFFF DUP2 DUP2 AND DUP4 DUP3 AND ADD SWAP1 DUP1 DUP3 GT ISZERO PUSH2 0x3D3F JUMPI PUSH2 0x3D3F PUSH2 0x3911 JUMP JUMPDEST POP SWAP3 SWAP2 POP POP JUMP JUMPDEST DUP2 DUP4 DUP3 CALLDATACOPY PUSH1 0x0 SWAP2 ADD SWAP1 DUP2 MSTORE SWAP2 SWAP1 POP JUMP JUMPDEST DUP7 DUP2 MSTORE DUP6 PUSH1 0x20 DUP3 ADD MSTORE PUSH1 0x0 PUSH6 0xFFFFFFFFFFFF DUP1 DUP8 AND PUSH1 0x40 DUP5 ADD MSTORE DUP1 DUP7 AND PUSH1 0x60 DUP5 ADD MSTORE POP DUP4 ISZERO ISZERO PUSH1 0x80 DUP4 ADD MSTORE PUSH1 0xC0 PUSH1 0xA0 DUP4 ADD MSTORE PUSH2 0x3D95 PUSH1 0xC0 DUP4 ADD DUP5 PUSH2 0x3977 JUMP JUMPDEST SWAP9 SWAP8 POP POP POP POP POP POP POP POP JUMP JUMPDEST DUP1 MLOAD DUP3 MSTORE PUSH1 0x20 DUP2 ADD MLOAD PUSH1 0x20 DUP4 ADD MSTORE PUSH1 0x40 DUP2 ADD MLOAD ISZERO ISZERO PUSH1 0x40 DUP4 ADD MSTORE PUSH1 0x0 PUSH1 0x60 DUP3 ADD MLOAD PUSH6 0xFFFFFFFFFFFF DUP1 DUP3 AND PUSH1 0x60 DUP7 ADD MSTORE DUP1 PUSH1 0x80 DUP6 ADD MLOAD AND PUSH1 0x80 DUP7 ADD MSTORE POP POP PUSH1 0xA0 DUP3 ADD MLOAD PUSH1 0xC0 PUSH1 0xA0 DUP6 ADD MSTORE PUSH2 0x2830 PUSH1 0xC0 DUP6 ADD DUP3 PUSH2 0x3977 JUMP JUMPDEST PUSH1 0x0 PUSH2 0x140 DUP1 DUP4 MSTORE PUSH2 0x3E0C DUP2 DUP5 ADD DUP10 PUSH2 0x3DA1 JUMP JUMPDEST SWAP2 POP POP PUSH2 0x3E26 PUSH1 0x20 DUP4 ADD DUP8 DUP1 MLOAD DUP3 MSTORE PUSH1 0x20 SWAP1 DUP2 ADD MLOAD SWAP2 ADD MSTORE JUMP JUMPDEST DUP5 MLOAD PUSH1 0x60 DUP4 ADD MSTORE PUSH1 0x20 SWAP5 DUP6 ADD MLOAD PUSH1 0x80 DUP4 ADD MSTORE DUP4 MLOAD PUSH1 0xA0 DUP4 ADD MSTORE SWAP3 DUP5 ADD MLOAD PUSH1 0xC0 DUP3 ADD MSTORE DUP2 MLOAD PUSH1 0x1 PUSH1 0x1 PUSH1 0xA0 SHL SUB AND PUSH1 0xE0 DUP3 ADD MSTORE SWAP1 DUP4 ADD MLOAD DUP1 MLOAD PUSH2 0x100 DUP4 ADD MSTORE SWAP1 SWAP3 ADD MLOAD PUSH2 0x120 SWAP1 SWAP3 ADD SWAP2 SWAP1 SWAP2 MSTORE SWAP3 SWAP2 POP POP JUMP JUMPDEST PUSH1 0xE0 DUP2 MSTORE PUSH1 0x0 PUSH2 0x3E8B PUSH1 0xE0 DUP4 ADD DUP8 PUSH2 0x3DA1 JUMP JUMPDEST SWAP1 POP PUSH2 0x3EA4 PUSH1 0x20 DUP4 ADD DUP7 DUP1 MLOAD DUP3 MSTORE PUSH1 0x20 SWAP1 DUP2 ADD MLOAD SWAP2 ADD MSTORE JUMP JUMPDEST DUP4 MLOAD PUSH1 0x60 DUP4 ADD MSTORE PUSH1 0x20 DUP5 ADD MLOAD PUSH1 0x80 DUP4 ADD MSTORE DUP3 MLOAD PUSH1 0xA0 DUP4 ADD MSTORE PUSH1 0x20 DUP4 ADD MLOAD PUSH1 0xC0 DUP4 ADD MSTORE SWAP6 SWAP5 POP POP POP POP POP JUMP JUMPDEST PUSH4 0x4E487B71 PUSH1 0xE0 SHL PUSH1 0x0 MSTORE PUSH1 0x21 PUSH1 0x4 MSTORE PUSH1 0x24 PUSH1 0x0 REVERT JUMPDEST PUSH1 0x0 PUSH1 0x3 DUP6 LT PUSH2 0x3F05 JUMPI PUSH4 0x4E487B71 PUSH1 0xE0 SHL PUSH1 0x0 MSTORE PUSH1 0x21 PUSH1 0x4 MSTORE PUSH1 0x24 PUSH1 0x0 REVERT JUMPDEST DUP5 DUP3 MSTORE PUSH1 0x60 PUSH1 0x20 DUP4 ADD MSTORE PUSH2 0x3F1C PUSH1 0x60 DUP4 ADD DUP6 PUSH2 0x3977 JUMP JUMPDEST SWAP1 POP DUP3 PUSH1 0x40 DUP4 ADD MSTORE SWAP5 SWAP4 POP POP POP POP JUMP JUMPDEST PUSH1 0x0 PUSH1 0x3 RETURNDATASIZE GT ISZERO PUSH2 0x3F45 JUMPI PUSH1 0x4 PUSH1 0x0 DUP1 RETURNDATACOPY POP PUSH1 0x0 MLOAD PUSH1 0xE0 SHR JUMPDEST SWAP1 JUMP JUMPDEST PUSH1 0x0 PUSH1 0x44 RETURNDATASIZE LT ISZERO PUSH2 0x3F56 JUMPI SWAP1 JUMP JUMPDEST PUSH1 0x40 MLOAD PUSH1 0x3 NOT RETURNDATASIZE DUP2 ADD PUSH1 0x4 DUP4 RETURNDATACOPY DUP2 MLOAD RETURNDATASIZE PUSH8 0xFFFFFFFFFFFFFFFF DUP2 PUSH1 0x24 DUP5 ADD GT DUP2 DUP5 GT OR ISZERO PUSH2 0x3F86 JUMPI POP POP POP POP POP SWAP1 JUMP JUMPDEST DUP3 DUP6 ADD SWAP2 POP DUP2 MLOAD DUP2 DUP2 GT ISZERO PUSH2 0x3F9E JUMPI POP POP POP POP POP POP SWAP1 JUMP JUMPDEST DUP5 RETURNDATASIZE DUP8 ADD ADD PUSH1 0x20 DUP3 DUP6 ADD ADD GT ISZERO PUSH2 0x3FB8 JUMPI POP POP POP POP POP POP SWAP1 JUMP JUMPDEST PUSH2 0x3FC7 PUSH1 0x20 DUP3 DUP7 ADD ADD DUP8 PUSH2 0x3482 JUMP JUMPDEST POP SWAP1 SWAP6 SWAP5 POP POP POP POP POP JUMP JUMPDEST PUSH32 0x4141353020706F73744F702072657665727465643A2000000000000000000000 DUP2 MSTORE PUSH1 0x0 DUP3 MLOAD PUSH2 0x400A DUP2 PUSH1 0x16 DUP6 ADD PUSH1 0x20 DUP8 ADD PUSH2 0x3953 JUMP JUMPDEST SWAP2 SWAP1 SWAP2 ADD PUSH1 0x16 ADD SWAP3 SWAP2 POP POP JUMP JUMPDEST PUSH1 0x0 PUSH2 0x1C0 DUP1 DUP4 MSTORE PUSH2 0x402C DUP2 DUP5 ADD DUP8 DUP10 PUSH2 0x3AF3 JUMP JUMPDEST SWAP1 POP DUP5 MLOAD PUSH1 0x1 PUSH1 0x1 PUSH1 0xA0 SHL SUB DUP1 DUP3 MLOAD AND PUSH1 0x20 DUP7 ADD MSTORE PUSH1 0x20 DUP3 ADD MLOAD PUSH1 0x40 DUP7 ADD MSTORE PUSH1 0x40 DUP3 ADD MLOAD PUSH1 0x60 DUP7 ADD MSTORE PUSH1 0x60 DUP3 ADD MLOAD PUSH1 0x80 DUP7 ADD MSTORE PUSH1 0x80 DUP3 ADD MLOAD PUSH1 0xA0 DUP7 ADD MSTORE DUP1 PUSH1 0xA0 DUP4 ADD MLOAD AND PUSH1 0xC0 DUP7 ADD MSTORE POP PUSH1 0xC0 DUP2 ADD MLOAD PUSH1 0xE0 DUP6 ADD MSTORE PUSH1 0xE0 DUP2 ADD MLOAD PUSH2 0x100 DUP6 ADD MSTORE POP PUSH1 0x20 DUP6 ADD MLOAD PUSH2 0x120 DUP5 ADD MSTORE PUSH1 0x40 DUP6 ADD MLOAD PUSH2 0x140 DUP5 ADD MSTORE PUSH1 0x60 DUP6 ADD MLOAD PUSH2 0x160 DUP5 ADD MSTORE PUSH1 0x80 DUP6 ADD MLOAD PUSH2 0x180 DUP5 ADD MSTORE DUP3 DUP2 SUB PUSH2 0x1A0 DUP5 ADD MSTORE PUSH2 0x3C08 DUP2 DUP6 PUSH2 0x3977 JUMP JUMPDEST PUSH1 0x0 PUSH1 0x20 DUP3 DUP5 SUB SLT ISZERO PUSH2 0x40DD JUMPI PUSH1 0x0 DUP1 REVERT JUMPDEST POP MLOAD SWAP2 SWAP1 POP JUMP JUMPDEST PUSH1 0x60 DUP2 MSTORE PUSH1 0x0 PUSH2 0x40F8 PUSH1 0x60 DUP4 ADD DUP8 DUP10 PUSH2 0x3AF3 JUMP JUMPDEST PUSH1 0x1 PUSH1 0x1 PUSH1 0xA0 SHL SUB DUP7 AND PUSH1 0x20 DUP5 ADD MSTORE DUP3 DUP2 SUB PUSH1 0x40 DUP5 ADD MSTORE PUSH2 0x3D95 DUP2 DUP6 DUP8 PUSH2 0x3AF3 JUMP JUMPDEST PUSH1 0x60 DUP2 MSTORE PUSH1 0x0 PUSH2 0x412D PUSH1 0x60 DUP4 ADD DUP7 PUSH2 0x3B1C JUMP JUMPDEST PUSH1 0x20 DUP4 ADD SWAP5 SWAP1 SWAP5 MSTORE POP PUSH1 0x40 ADD MSTORE SWAP2 SWAP1 POP JUMP JUMPDEST PUSH32 0x414132332072657665727465643A200000000000000000000000000000000000 DUP2 MSTORE PUSH1 0x0 DUP3 MLOAD PUSH2 0x4177 DUP2 PUSH1 0xF DUP6 ADD PUSH1 0x20 DUP8 ADD PUSH2 0x3953 JUMP JUMPDEST SWAP2 SWAP1 SWAP2 ADD PUSH1 0xF ADD SWAP3 SWAP2 POP POP JUMP JUMPDEST PUSH1 0x0 DUP1 PUSH1 0x40 DUP4 DUP6 SUB SLT ISZERO PUSH2 0x4197 JUMPI PUSH1 0x0 DUP1 REVERT JUMPDEST DUP3 MLOAD PUSH8 0xFFFFFFFFFFFFFFFF DUP2 GT ISZERO PUSH2 0x41AE JUMPI PUSH1 0x0 DUP1 REVERT JUMPDEST DUP4 ADD PUSH1 0x1F DUP2 ADD DUP6 SGT PUSH2 0x41BF JUMPI PUSH1 0x0 DUP1 REVERT JUMPDEST DUP1 MLOAD PUSH2 0x41CA DUP2 PUSH2 0x34AF JUMP JUMPDEST PUSH1 0x40 MLOAD PUSH2 0x41D7 DUP3 DUP3 PUSH2 0x3482 JUMP JUMPDEST DUP3 DUP2 MSTORE DUP8 PUSH1 0x20 DUP5 DUP7 ADD ADD GT ISZERO PUSH2 0x41EC JUMPI PUSH1 0x0 DUP1 REVERT JUMPDEST PUSH2 0x41FD DUP4 PUSH1 0x20 DUP4 ADD PUSH1 0x20 DUP8 ADD PUSH2 0x3953 JUMP JUMPDEST PUSH1 0x20 SWAP7 SWAP1 SWAP7 ADD MLOAD SWAP6 SWAP8 SWAP6 SWAP7 POP POP POP POP POP POP JUMP JUMPDEST PUSH32 0x414133332072657665727465643A200000000000000000000000000000000000 DUP2 MSTORE PUSH1 0x0 DUP3 MLOAD PUSH2 0x4177 DUP2 PUSH1 0xF DUP6 ADD PUSH1 0x20 DUP8 ADD PUSH2 0x3953 JUMP INVALID LOG2 PUSH5 0x6970667358 0x22 SLT KECCAK256 0xE1 0xD4 PUSH1 0xAB PUSH15 0x1531C6C3F4396897A65B44C3C7BC19 0xAE DUP5 0xCD 0xA8 PC TIMESTAMP SWAP3 0xC6 0x2C 0xDE SHR MLOAD PUSH5 0x736F6C6343 STOP ADDMOD SGT STOP CALLER PUSH1 0x80 PUSH1 0x40 MSTORE CALLVALUE DUP1 ISZERO PUSH2 0x10 JUMPI PUSH1 0x0 DUP1 REVERT JUMPDEST POP PUSH2 0x200 DUP1 PUSH2 0x20 PUSH1 0x0 CODECOPY PUSH1 0x0 RETURN INVALID PUSH1 0x80 PUSH1 0x40 MSTORE CALLVALUE DUP1 ISZERO PUSH2 0x10 JUMPI PUSH1 0x0 DUP1 REVERT JUMPDEST POP PUSH1 0x4 CALLDATASIZE LT PUSH2 0x2B JUMPI PUSH1 0x0 CALLDATALOAD PUSH1 0xE0 SHR DUP1 PUSH4 0x570E1A36 EQ PUSH2 0x30 JUMPI JUMPDEST PUSH1 0x0 DUP1 REVERT JUMPDEST PUSH2 0x43 PUSH2 0x3E CALLDATASIZE PUSH1 0x4 PUSH2 0xF9 JUMP JUMPDEST PUSH2 0x6C JUMP JUMPDEST PUSH1 0x40 MLOAD PUSH20 0xFFFFFFFFFFFFFFFFFFFFFFFFFFFFFFFFFFFFFFFF SWAP1 SWAP2 AND DUP2 MSTORE PUSH1 0x20 ADD PUSH1 0x40 MLOAD DUP1 SWAP2 SUB SWAP1 RETURN JUMPDEST PUSH1 0x0 DUP1 PUSH2 0x7C PUSH1 0x14 DUP3 DUP6 DUP8 PUSH2 0x16B JUMP JUMPDEST PUSH2 0x85 SWAP2 PUSH2 0x195 JUMP JUMPDEST PUSH1 0x60 SHR SWAP1 POP PUSH1 0x0 PUSH2 0x99 DUP5 PUSH1 0x14 DUP2 DUP9 PUSH2 0x16B JUMP JUMPDEST DUP1 DUP1 PUSH1 0x1F ADD PUSH1 0x20 DUP1 SWAP2 DIV MUL PUSH1 0x20 ADD PUSH1 0x40 MLOAD SWAP1 DUP2 ADD PUSH1 0x40 MSTORE DUP1 SWAP4 SWAP3 SWAP2 SWAP1 DUP2 DUP2 MSTORE PUSH1 0x20 ADD DUP4 DUP4 DUP1 DUP3 DUP5 CALLDATACOPY PUSH1 0x0 SWAP3 ADD DUP3 SWAP1 MSTORE POP DUP5 MLOAD SWAP5 SWAP6 POP SWAP4 PUSH1 0x20 SWAP4 POP DUP5 SWAP3 POP SWAP1 POP DUP3 DUP6 ADD DUP3 DUP8 GAS CALL SWAP1 POP PUSH1 0x0 MLOAD SWAP4 POP DUP1 PUSH2 0xF0 JUMPI PUSH1 0x0 SWAP4 POP JUMPDEST POP POP POP SWAP3 SWAP2 POP POP JUMP JUMPDEST PUSH1 0x0 DUP1 PUSH1 0x20 DUP4 DUP6 SUB SLT ISZERO PUSH2 0x10C JUMPI PUSH1 0x0 DUP1 REVERT JUMPDEST DUP3 CALLDATALOAD PUSH8 0xFFFFFFFFFFFFFFFF DUP1 DUP3 GT ISZERO PUSH2 0x124 JUMPI PUSH1 0x0 DUP1 REVERT JUMPDEST DUP2 DUP6 ADD SWAP2 POP DUP6 PUSH1 0x1F DUP4 ADD SLT PUSH2 0x138 JUMPI PUSH1 0x0 DUP1 REVERT JUMPDEST DUP2 CALLDATALOAD DUP2 DUP2 GT ISZERO PUSH2 0x147 JUMPI PUSH1 0x0 DUP1 REVERT JUMPDEST DUP7 PUSH1 0x20 DUP3 DUP6 ADD ADD GT ISZERO PUSH2 0x159 JUMPI PUSH1 0x0 DUP1 REVERT JUMPDEST PUSH1 0x20 SWAP3 SWAP1 SWAP3 ADD SWAP7 SWAP2 SWAP6 POP SWAP1 SWAP4 POP POP POP POP JUMP JUMPDEST PUSH1 0x0 DUP1 DUP6 DUP6 GT ISZERO PUSH2 0x17B JUMPI PUSH1 0x0 DUP1 REVERT JUMPDEST DUP4 DUP7 GT ISZERO PUSH2 0x188 JUMPI PUSH1 0x0 DUP1 REVERT JUMPDEST POP POP DUP3 ADD SWAP4 SWAP2 SWAP1 SWAP3 SUB SWAP2 POP JUMP JUMPDEST PUSH12 0xFFFFFFFFFFFFFFFFFFFFFFFF NOT DUP2 CALLDATALOAD DUP2 DUP2 AND SWAP2 PUSH1 0x14 DUP6 LT ISZERO PUSH2 0x1C2 JUMPI DUP1 DUP2 DUP7 PUSH1 0x14 SUB PUSH1 0x3 SHL SHL DUP4 AND AND SWAP3 POP JUMPDEST POP POP SWAP3 SWAP2 POP POP JUMP INVALID LOG2 PUSH5 0x6970667358 0x22 SLT KECCAK256 0xC7 SWAP15 0xAE PUSH23 0xCFF7DE1382B1236D4F9EFECC81EEE206EB9634936FE976 SUB PUSH18 0xF74ABC64736F6C6343000813003300000000 "},"methodIdentifiers":{"SIG_VALIDATION_FAILED()":"8f41ec5a","_validateSenderAndPaymaster(bytes,address,bytes)":"957122ab","addStake(uint32)":"0396cb60","balanceOf(address)":"70a08231","depositTo(address)":"b760faf9","deposits(address)":"fc7e286d","getDepositInfo(address)":"5287ce12","getNonce(address,uint192)":"35567e1a","getSenderAddress(bytes)":"9b249f69","getUserOpHash((address,uint256,bytes,bytes,uint256,uint256,uint256,uint256,uint256,bytes,bytes))":"a6193531","handleAggregatedOps(((address,uint256,bytes,bytes,uint256,uint256,uint256,uint256,uint256,bytes,bytes)[],address,bytes)[],address)":"4b1d7cf5","handleOps((address,uint256,bytes,bytes,uint256,uint256,uint256,uint256,uint256,bytes,bytes)[],address)":"1fad948c","incrementNonce(uint192)":"0bd28e3b","innerHandleOp(bytes,((address,uint256,uint256,uint256,uint256,address,uint256,uint256),bytes32,uint256,uint256,uint256),bytes)":"1d732756","nonceSequenceNumber(address,uint192)":"1b2e01b8","simulateHandleOp((address,uint256,bytes,bytes,uint256,uint256,uint256,uint256,uint256,bytes,bytes),address,bytes)":"d6383f94","simulateValidation((address,uint256,bytes,bytes,uint256,uint256,uint256,uint256,uint256,bytes,bytes))":"ee219423","unlockStake()":"bb9fe6bf","withdrawStake(address)":"c23a5cea","withdrawTo(address,uint256)":"205c2878"}}}}}