{"@account-abstraction/contracts/core/NonceManager.sol":{"NonceManager":{"abi":[{"inputs":[{"internalType":"address","name":"sender","type":"address"},{"internalType":"uint192","name":"key","type":"uint192"}],"name":"getNonce","outputs":[{"internalType":"uint256","name":"nonce","type":"uint256"}],"stateMutability":"view","type":"function"},{"inputs":[{"internalType":"uint192","name":"key","type":"uint192"}],"name":"incrementNonce","outputs":[],"stateMutability":"nonpayable","type":"function"},{"inputs":[{"internalType":"address","name":"","type":"address"},{"internalType":"uint192","name":"","type":"uint192"}],"name":"nonceSequenceNumber","outputs":[{"internalType":"uint256","name":"","type":"uint256"}],"stateMutability":"view","type":"function"}],"evm":{"bytecode":{"linkReferences":{},"object":"608060405234801561001057600080fd5b5061025b806100206000396000f3fe608060405234801561001057600080fd5b50600436106100415760003560e01c80630bd28e3b146100465780631b2e01b81461005b57806335567e1a14610095575b600080fd5b610059610054366004610175565b610102565b005b610083610069366004610197565b600060208181529281526040808220909352908152205481565b60405190815260200160405180910390f35b6100836100a3366004610197565b73ffffffffffffffffffffffffffffffffffffffff9190911660009081526020818152604080832077ffffffffffffffffffffffffffffffffffffffffffffffff85168452909152908190205491901b67ffffffffffffffff19161790565b3360009081526020818152604080832077ffffffffffffffffffffffffffffffffffffffffffffffff851684529091528120805491610140836101e5565b919050555050565b803577ffffffffffffffffffffffffffffffffffffffffffffffff8116811461017057600080fd5b919050565b60006020828403121561018757600080fd5b61019082610148565b9392505050565b600080604083850312156101aa57600080fd5b823573ffffffffffffffffffffffffffffffffffffffff811681146101ce57600080fd5b91506101dc60208401610148565b90509250929050565b60006001820161021e577f4e487b7100000000000000000000000000000000000000000000000000000000600052601160045260246000fd5b506001019056fea26469706673582212201027c371a615ad0829fd92168fdb6d5bca3a5c28ccf0c926c7fe48df9fef327364736f6c63430008130033","opcodes":"PUSH1 0x80 PUSH1 0x40 MSTORE CALLVALUE DUP1 ISZERO PUSH2 0x10 JUMPI PUSH1 0x0 DUP1 REVERT JUMPDEST POP PUSH2 0x25B DUP1 PUSH2 0x20 PUSH1 0x0 CODECOPY PUSH1 0x0 RETURN INVALID PUSH1 0x80 PUSH1 0x40 MSTORE CALLVALUE DUP1 ISZERO PUSH2 0x10 JUMPI PUSH1 0x0 DUP1 REVERT JUMPDEST POP PUSH1 0x4 CALLDATASIZE LT PUSH2 0x41 JUMPI PUSH1 0x0 CALLDATALOAD PUSH1 0xE0 SHR DUP1 PUSH4 0xBD28E3B EQ PUSH2 0x46 JUMPI DUP1 PUSH4 0x1B2E01B8 EQ PUSH2 0x5B JUMPI DUP1 PUSH4 0x35567E1A EQ PUSH2 0x95 JUMPI JUMPDEST PUSH1 0x0 DUP1 REVERT JUMPDEST PUSH2 0x59 PUSH2 0x54 CALLDATASIZE PUSH1 0x4 PUSH2 0x175 JUMP JUMPDEST PUSH2 0x102 JUMP JUMPDEST STOP JUMPDEST PUSH2 0x83 PUSH2 0x69 CALLDATASIZE PUSH1 0x4 PUSH2 0x197 JUMP JUMPDEST PUSH1 0x0 PUSH1 0x20 DUP2 DUP2 MSTORE SWAP3 DUP2 MSTORE PUSH1 0x40 DUP1 DUP3 KECCAK256 SWAP1 SWAP4 MSTORE SWAP1 DUP2 MSTORE KECCAK256 SLOAD DUP2 JUMP JUMPDEST PUSH1 0x40 MLOAD SWAP1 DUP2 MSTORE PUSH1 0x20 ADD PUSH1 0x40 MLOAD DUP1 SWAP2 SUB SWAP1 RETURN JUMPDEST PUSH2 0x83 PUSH2 0xA3 CALLDATASIZE PUSH1 0x4 PUSH2 0x197 JUMP JUMPDEST PUSH20 0xFFFFFFFFFFFFFFFFFFFFFFFFFFFFFFFFFFFFFFFF SWAP2 SWAP1 SWAP2 AND PUSH1 0x0 SWAP1 DUP2 MSTORE PUSH1 0x20 DUP2 DUP2 MSTORE PUSH1 0x40 DUP1 DUP4 KECCAK256 PUSH24 0xFFFFFFFFFFFFFFFFFFFFFFFFFFFFFFFFFFFFFFFFFFFFFFFF DUP6 AND DUP5 MSTORE SWAP1 SWAP2 MSTORE SWAP1 DUP2 SWAP1 KECCAK256 SLOAD SWAP2 SWAP1 SHL PUSH8 0xFFFFFFFFFFFFFFFF NOT AND OR SWAP1 JUMP JUMPDEST CALLER PUSH1 0x0 SWAP1 DUP2 MSTORE PUSH1 0x20 DUP2 DUP2 MSTORE PUSH1 0x40 DUP1 DUP4 KECCAK256 PUSH24 0xFFFFFFFFFFFFFFFFFFFFFFFFFFFFFFFFFFFFFFFFFFFFFFFF DUP6 AND DUP5 MSTORE SWAP1 SWAP2 MSTORE DUP2 KECCAK256 DUP1 SLOAD SWAP2 PUSH2 0x140 DUP4 PUSH2 0x1E5 JUMP JUMPDEST SWAP2 SWAP1 POP SSTORE POP POP JUMP JUMPDEST DUP1 CALLDATALOAD PUSH24 0xFFFFFFFFFFFFFFFFFFFFFFFFFFFFFFFFFFFFFFFFFFFFFFFF DUP2 AND DUP2 EQ PUSH2 0x170 JUMPI PUSH1 0x0 DUP1 REVERT JUMPDEST SWAP2 SWAP1 POP JUMP JUMPDEST PUSH1 0x0 PUSH1 0x20 DUP3 DUP5 SUB SLT ISZERO PUSH2 0x187 JUMPI PUSH1 0x0 DUP1 REVERT JUMPDEST PUSH2 0x190 DUP3 PUSH2 0x148 JUMP JUMPDEST SWAP4 SWAP3 POP POP POP JUMP JUMPDEST PUSH1 0x0 DUP1 PUSH1 0x40 DUP4 DUP6 SUB SLT ISZERO PUSH2 0x1AA JUMPI PUSH1 0x0 DUP1 REVERT JUMPDEST DUP3 CALLDATALOAD PUSH20 0xFFFFFFFFFFFFFFFFFFFFFFFFFFFFFFFFFFFFFFFF DUP2 AND DUP2 EQ PUSH2 0x1CE JUMPI PUSH1 0x0 DUP1 REVERT JUMPDEST SWAP2 POP PUSH2 0x1DC PUSH1 0x20 DUP5 ADD PUSH2 0x148 JUMP JUMPDEST SWAP1 POP SWAP3 POP SWAP3 SWAP1 POP JUMP JUMPDEST PUSH1 0x0 PUSH1 0x1 DUP3 ADD PUSH2 0x21E JUMPI PUSH32 0x4E487B7100000000000000000000000000000000000000000000000000000000 PUSH1 0x0 MSTORE PUSH1 0x11 PUSH1 0x4 MSTORE PUSH1 0x24 PUSH1 0x0 REVERT JUMPDEST POP PUSH1 0x1 ADD SWAP1 JUMP INVALID LOG2 PUSH5 0x6970667358 0x22 SLT KECCAK256 LT 0x27 0xC3 PUSH18 0xA615AD0829FD92168FDB6D5BCA3A5C28CCF0 0xC9 0x26 0xC7 INVALID BASEFEE 0xDF SWAP16 0xEF ORIGIN PUSH20 0x64736F6C63430008130033000000000000000000 "},"methodIdentifiers":{"getNonce(address,uint192)":"35567e1a","incrementNonce(uint192)":"0bd28e3b","nonceSequenceNumber(address,uint192)":"1b2e01b8"}}}}}