{
  "_format": "hh-sol-artifact-1",
  "contractName": "EntryPoint",
  "sourceName": "@account-abstraction/contracts/core/EntryPoint.sol",
  "abi": [
    {
      "inputs": [
        {
          "internalType": "uint256",
          "name": "preOpGas",
          "type": "uint256"
        },
        {
          "internalType": "uint256",
          "name": "paid",
          "type": "uint256"
        },
        {
          "internalType": "uint48",
          "name": "validAfter",
          "type": "uint48"
        },
        {
          "internalType": "uint48",
          "name": "validUntil",
          "type": "uint48"
        },
        {
          "internalType": "bool",
          "name": "targetSuccess",
          "type": "bool"
        },
        {
          "internalType": "bytes",
          "name": "targetResult",
          "type": "bytes"
        }
      ],
      "name": "ExecutionResult",
      "type": "error"
    },
    {
      "inputs": [
        {
          "internalType": "uint256",
          "name": "opIndex",
          "type": "uint256"
        },
        {
          "internalType": "string",
          "name": "reason",
          "type": "string"
        }
      ],
      "name": "FailedOp",
      "type": "error"
    },
    {
      "inputs": [
        {
          "internalType": "address",
          "name": "sender",
          "type": "address"
        }
      ],
      "name": "SenderAddressResult",
      "type": "error"
    },
    {
      "inputs": [
        {
          "internalType": "address",
          "name": "aggregator",
          "type": "address"
        }
      ],
      "name": "SignatureValidationFailed",
      "type": "error"
    },
    {
      "inputs": [
        {
          "components": [
            {
              "internalType": "uint256",
              "name": "preOpGas",
              "type": "uint256"
            },
            {
              "internalType": "uint256",
              "name": "prefund",
              "type": "uint256"
            },
            {
              "internalType": "bool",
              "name": "sigFailed",
              "type": "bool"
            },
            {
              "internalType": "uint48",
              "name": "validAfter",
              "type": "uint48"
            },
            {
              "internalType": "uint48",
              "name": "validUntil",
              "type": "uint48"
            },
            {
              "internalType": "bytes",
              "name": "paymasterContext",
              "type": "bytes"
            }
          ],
          "internalType": "struct IEntryPoint.ReturnInfo",
          "name": "returnInfo",
          "type": "tuple"
        },
        {
          "components": [
            {
              "internalType": "uint256",
              "name": "stake",
              "type": "uint256"
            },
            {
              "internalType": "uint256",
              "name": "unstakeDelaySec",
              "type": "uint256"
            }
          ],
          "internalType": "struct IStakeManager.StakeInfo",
          "name": "senderInfo",
          "type": "tuple"
        },
        {
          "components": [
            {
              "internalType": "uint256",
              "name": "stake",
              "type": "uint256"
            },
            {
              "internalType": "uint256",
              "name": "unstakeDelaySec",
              "type": "uint256"
            }
          ],
          "internalType": "struct IStakeManager.StakeInfo",
          "name": "factoryInfo",
          "type": "tuple"
        },
        {
          "components": [
            {
              "internalType": "uint256",
              "name": "stake",
              "type": "uint256"
            },
            {
              "internalType": "uint256",
              "name": "unstakeDelaySec",
              "type": "uint256"
            }
          ],
          "internalType": "struct IStakeManager.StakeInfo",
          "name": "paymasterInfo",
          "type": "tuple"
        }
      ],
      "name": "ValidationResult",
      "type": "error"
    },
    {
      "inputs": [
        {
          "components": [
            {
              "internalType": "uint256",
              "name": "preOpGas",
              "type": "uint256"
            },
            {
              "internalType": "uint256",
              "name": "prefund",
              "type": "uint256"
            },
            {
              "internalType": "bool",
              "name": "sigFailed",
              "type": "bool"
            },
            {
              "internalType": "uint48",
              "name": "validAfter",
              "type": "uint48"
            },
            {
              "internalType": "uint48",
              "name": "validUntil",
              "type": "uint48"
            },
            {
              "internalType": "bytes",
              "name": "paymasterContext",
              "type": "bytes"
            }
          ],
          "internalType": "struct IEntryPoint.ReturnInfo",
          "name": "returnInfo",
          "type": "tuple"
        },
        {
          "components": [
            {
              "internalType": "uint256",
              "name": "stake",
              "type": "uint256"
            },
            {
              "internalType": "uint256",
              "name": "unstakeDelaySec",
              "type": "uint256"
            }
          ],
          "internalType": "struct IStakeManager.StakeInfo",
          "name": "senderInfo",
          "type": "tuple"
        },
        {
          "components": [
            {
              "internalType": "uint256",
              "name": "stake",
              "type": "uint256"
            },
            {
              "internalType": "uint256",
              "name": "unstakeDelaySec",
              "type": "uint256"
            }
          ],
          "internalType": "struct IStakeManager.StakeInfo",
          "name": "factoryInfo",
          "type": "tuple"
        },
        {
          "components": [
            {
              "internalType": "uint256",
              "name": "stake",
              "type": "uint256"
            },
            {
              "internalType": "uint256",
              "name": "unstakeDelaySec",
              "type": "uint256"
            }
          ],
          "internalType": "struct IStakeManager.StakeInfo",
          "name": "paymasterInfo",
          "type": "tuple"
        },
        {
          "components": [
            {
              "internalType": "address",
              "name": "aggregator",
              "type": "address"
            },
            {
              "components": [
                {
                  "internalType": "uint256",
                  "name": "stake",
                  "type": "uint256"
                },
                {
                  "internalType": "uint256",
                  "name": "unstakeDelaySec",
                  "type": "uint256"
                }
              ],
              "internalType": "struct IStakeManager.StakeInfo",
              "name": "stakeInfo",
              "type": "tuple"
            }
          ],
          "internalType": "struct IEntryPoint.AggregatorStakeInfo",
          "name": "aggregatorInfo",
          "type": "tuple"
        }
      ],
      "name": "ValidationResultWithAggregation",
      "type": "error"
    },
    {
      "anonymous": false,
      "inputs": [
        {
          "indexed": true,
          "internalType": "bytes32",
          "name": "userOpHash",
          "type": "bytes32"
        },
        {
          "indexed": true,
          "internalType": "address",
          "name": "sender",
          "type": "address"
        },
        {
          "indexed": false,
          "internalType": "address",
          "name": "factory",
          "type": "address"
        },
        {
          "indexed": false,
          "internalType": "address",
          "name": "paymaster",
          "type": "address"
        }
      ],
      "name": "AccountDeployed",
      "type": "event"
    },
    {
      "anonymous": false,
      "inputs": [],
      "name": "BeforeExecution",
      "type": "event"
    },
    {
      "anonymous": false,
      "inputs": [
        {
          "indexed": true,
          "internalType": "address",
          "name": "account",
          "type": "address"
        },
        {
          "indexed": false,
          "internalType": "uint256",
          "name": "totalDeposit",
          "type": "uint256"
        }
      ],
      "name": "Deposited",
      "type": "event"
    },
    {
      "anonymous": false,
      "inputs": [
        {
          "indexed": true,
          "internalType": "address",
          "name": "aggregator",
          "type": "address"
        }
      ],
      "name": "SignatureAggregatorChanged",
      "type": "event"
    },
    {
      "anonymous": false,
      "inputs": [
        {
          "indexed": true,
          "internalType": "address",
          "name": "account",
          "type": "address"
        },
        {
          "indexed": false,
          "internalType": "uint256",
          "name": "totalStaked",
          "type": "uint256"
        },
        {
          "indexed": false,
          "internalType": "uint256",
          "name": "unstakeDelaySec",
          "type": "uint256"
        }
      ],
      "name": "StakeLocked",
      "type": "event"
    },
    {
      "anonymous": false,
      "inputs": [
        {
          "indexed": true,
          "internalType": "address",
          "name": "account",
          "type": "address"
        },
        {
          "indexed": false,
          "internalType": "uint256",
          "name": "withdrawTime",
          "type": "uint256"
        }
      ],
      "name": "StakeUnlocked",
      "type": "event"
    },
    {
      "anonymous": false,
      "inputs": [
        {
          "indexed": true,
          "internalType": "address",
          "name": "account",
          "type": "address"
        },
        {
          "indexed": false,
          "internalType": "address",
          "name": "withdrawAddress",
          "type": "address"
        },
        {
          "indexed": false,
          "internalType": "uint256",
          "name": "amount",
          "type": "uint256"
        }
      ],
      "name": "StakeWithdrawn",
      "type": "event"
    },
    {
      "anonymous": false,
      "inputs": [
        {
          "indexed": true,
          "internalType": "bytes32",
          "name": "userOpHash",
          "type": "bytes32"
        },
        {
          "indexed": true,
          "internalType": "address",
          "name": "sender",
          "type": "address"
        },
        {
          "indexed": true,
          "internalType": "address",
          "name": "paymaster",
          "type": "address"
        },
        {
          "indexed": false,
          "internalType": "uint256",
          "name": "nonce",
          "type": "uint256"
        },
        {
          "indexed": false,
          "internalType": "bool",
          "name": "success",
          "type": "bool"
        },
        {
          "indexed": false,
          "internalType": "uint256",
          "name": "actualGasCost",
          "type": "uint256"
        },
        {
          "indexed": false,
          "internalType": "uint256",
          "name": "actualGasUsed",
          "type": "uint256"
        }
      ],
      "name": "UserOperationEvent",
      "type": "event"
    },
    {
      "anonymous": false,
      "inputs": [
        {
          "indexed": true,
          "internalType": "bytes32",
          "name": "userOpHash",
          "type": "bytes32"
        },
        {
          "indexed": true,
          "internalType": "address",
          "name": "sender",
          "type": "address"
        },
        {
          "indexed": false,
          "internalType": "uint256",
          "name": "nonce",
          "type": "uint256"
        },
        {
          "indexed": false,
          "internalType": "bytes",
          "name": "revertReason",
          "type": "bytes"
        }
      ],
      "name": "UserOperationRevertReason",
      "type": "event"
    },
    {
      "anonymous": false,
      "inputs": [
        {
          "indexed": true,
          "internalType": "address",
          "name": "account",
          "type": "address"
        },
        {
          "indexed": false,
          "internalType": "address",
          "name": "withdrawAddress",
          "type": "address"
        },
        {
          "indexed": false,
          "internalType": "uint256",
          "name": "amount",
          "type": "uint256"
        }
      ],
      "name": "Withdrawn",
      "type": "event"
    },
    {
      "inputs": [],
      "name": "SIG_VALIDATION_FAILED",
      "outputs": [
        {
          "internalType": "uint256",
          "name": "",
          "type": "uint256"
        }
      ],
      "stateMutability": "view",
      "type": "function"
    },
    {
      "inputs": [
        {
          "internalType": "bytes",
          "name": "initCode",
          "type": "bytes"
        },
        {
          "internalType": "address",
          "name": "sender",
          "type": "address"
        },
        {
          "internalType": "bytes",
          "name": "paymasterAndData",
          "type": "bytes"
        }
      ],
      "name": "_validateSenderAndPaymaster",
      "outputs": [],
      "stateMutability": "view",
      "type": "function"
    },
    {
      "inputs": [
        {
          "internalType": "uint32",
          "name": "unstakeDelaySec",
          "type": "uint32"
        }
      ],
      "name": "addStake",
      "outputs": [],
      "stateMutability": "payable",
      "type": "function"
    },
    {
      "inputs": [
        {
          "internalType": "address",
          "name": "account",
          "type": "address"
        }
      ],
      "name": "balanceOf",
      "outputs": [
        {
          "internalType": "uint256",
          "name": "",
          "type": "uint256"
        }
      ],
      "stateMutability": "view",
      "type": "function"
    },
    {
      "inputs": [
        {
          "internalType": "address",
          "name": "account",
          "type": "address"
        }
      ],
      "name": "depositTo",
      "outputs": [],
      "stateMutability": "payable",
      "type": "function"
    },
    {
      "inputs": [
        {
          "internalType": "address",
          "name": "",
          "type": "address"
        }
      ],
      "name": "deposits",
      "outputs": [
        {
          "internalType": "uint112",
          "name": "deposit",
          "type": "uint112"
        },
        {
          "internalType": "bool",
          "name": "staked",
          "type": "bool"
        },
        {
          "internalType": "uint112",
          "name": "stake",
          "type": "uint112"
        },
        {
          "internalType": "uint32",
          "name": "unstakeDelaySec",
          "type": "uint32"
        },
        {
          "internalType": "uint48",
          "name": "withdrawTime",
          "type": "uint48"
        }
      ],
      "stateMutability": "view",
      "type": "function"
    },
    {
      "inputs": [
        {
          "internalType": "address",
          "name": "account",
          "type": "address"
        }
      ],
      "name": "getDepositInfo",
      "outputs": [
        {
          "components": [
            {
              "internalType": "uint112",
              "name": "deposit",
              "type": "uint112"
            },
            {
              "internalType": "bool",
              "name": "staked",
              "type": "bool"
            },
            {
              "internalType": "uint112",
              "name": "stake",
              "type": "uint112"
            },
            {
              "internalType": "uint32",
              "name": "unstakeDelaySec",
              "type": "uint32"
            },
            {
              "internalType": "uint48",
              "name": "withdrawTime",
              "type": "uint48"
            }
          ],
          "internalType": "struct IStakeManager.DepositInfo",
          "name": "info",
          "type": "tuple"
        }
      ],
      "stateMutability": "view",
      "type": "function"
    },
    {
      "inputs": [
        {
          "internalType": "address",
          "name": "sender",
          "type": "address"
        },
        {
          "internalType": "uint192",
          "name": "key",
          "type": "uint192"
        }
      ],
      "name": "getNonce",
      "outputs": [
        {
          "internalType": "uint256",
          "name": "nonce",
          "type": "uint256"
        }
      ],
      "stateMutability": "view",
      "type": "function"
    },
    {
      "inputs": [
        {
          "internalType": "bytes",
          "name": "initCode",
          "type": "bytes"
        }
      ],
      "name": "getSenderAddress",
      "outputs": [],
      "stateMutability": "nonpayable",
      "type": "function"
    },
    {
      "inputs": [
        {
          "components": [
            {
              "internalType": "address",
              "name": "sender",
              "type": "address"
            },
            {
              "internalType": "uint256",
              "name": "nonce",
              "type": "uint256"
            },
            {
              "internalType": "bytes",
              "name": "initCode",
              "type": "bytes"
            },
            {
              "internalType": "bytes",
              "name": "callData",
              "type": "bytes"
            },
            {
              "internalType": "uint256",
              "name": "callGasLimit",
              "type": "uint256"
            },
            {
              "internalType": "uint256",
              "name": "verificationGasLimit",
              "type": "uint256"
            },
            {
              "internalType": "uint256",
              "name": "preVerificationGas",
              "type": "uint256"
            },
            {
              "internalType": "uint256",
              "name": "maxFeePerGas",
              "type": "uint256"
            },
            {
              "internalType": "uint256",
              "name": "maxPriorityFeePerGas",
              "type": "uint256"
            },
            {
              "internalType": "bytes",
              "name": "paymasterAndData",
              "type": "bytes"
            },
            {
              "internalType": "bytes",
              "name": "signature",
              "type": "bytes"
            }
          ],
          "internalType": "struct UserOperation",
          "name": "userOp",
          "type": "tuple"
        }
      ],
      "name": "getUserOpHash",
      "outputs": [
        {
          "internalType": "bytes32",
          "name": "",
          "type": "bytes32"
        }
      ],
      "stateMutability": "view",
      "type": "function"
    },
    {
      "inputs": [
        {
          "components": [
            {
              "components": [
                {
                  "internalType": "address",
                  "name": "sender",
                  "type": "address"
                },
                {
                  "internalType": "uint256",
                  "name": "nonce",
                  "type": "uint256"
                },
                {
                  "internalType": "bytes",
                  "name": "initCode",
                  "type": "bytes"
                },
                {
                  "internalType": "bytes",
                  "name": "callData",
                  "type": "bytes"
                },
                {
                  "internalType": "uint256",
                  "name": "callGasLimit",
                  "type": "uint256"
                },
                {
                  "internalType": "uint256",
                  "name": "verificationGasLimit",
                  "type": "uint256"
                },
                {
                  "internalType": "uint256",
                  "name": "preVerificationGas",
                  "type": "uint256"
                },
                {
                  "internalType": "uint256",
                  "name": "maxFeePerGas",
                  "type": "uint256"
                },
                {
                  "internalType": "uint256",
                  "name": "maxPriorityFeePerGas",
                  "type": "uint256"
                },
                {
                  "internalType": "bytes",
                  "name": "paymasterAndData",
                  "type": "bytes"
                },
                {
                  "internalType": "bytes",
                  "name": "signature",
                  "type": "bytes"
                }
              ],
              "internalType": "struct UserOperation[]",
              "name": "userOps",
              "type": "tuple[]"
            },
            {
              "internalType": "contract IAggregator",
              "name": "aggregator",
              "type": "address"
            },
            {
              "internalType": "bytes",
              "name": "signature",
              "type": "bytes"
            }
          ],
          "internalType": "struct IEntryPoint.UserOpsPerAggregator[]",
          "name": "opsPerAggregator",
          "type": "tuple[]"
        },
        {
          "internalType": "address payable",
          "name": "beneficiary",
          "type": "address"
        }
      ],
      "name": "handleAggregatedOps",
      "outputs": [],
      "stateMutability": "nonpayable",
      "type": "function"
    },
    {
      "inputs": [
        {
          "components": [
            {
              "internalType": "address",
              "name": "sender",
              "type": "address"
            },
            {
              "internalType": "uint256",
              "name": "nonce",
              "type": "uint256"
            },
            {
              "internalType": "bytes",
              "name": "initCode",
              "type": "bytes"
            },
            {
              "internalType": "bytes",
              "name": "callData",
              "type": "bytes"
            },
            {
              "internalType": "uint256",
              "name": "callGasLimit",
              "type": "uint256"
            },
            {
              "internalType": "uint256",
              "name": "verificationGasLimit",
              "type": "uint256"
            },
            {
              "internalType": "uint256",
              "name": "preVerificationGas",
              "type": "uint256"
            },
            {
              "internalType": "uint256",
              "name": "maxFeePerGas",
              "type": "uint256"
            },
            {
              "internalType": "uint256",
              "name": "maxPriorityFeePerGas",
              "type": "uint256"
            },
            {
              "internalType": "bytes",
              "name": "paymasterAndData",
              "type": "bytes"
            },
            {
              "internalType": "bytes",
              "name": "signature",
              "type": "bytes"
            }
          ],
          "internalType": "struct UserOperation[]",
          "name": "ops",
          "type": "tuple[]"
        },
        {
          "internalType": "address payable",
          "name": "beneficiary",
          "type": "address"
        }
      ],
      "name": "handleOps",
      "outputs": [],
      "stateMutability": "nonpayable",
      "type": "function"
    },
    {
      "inputs": [
        {
          "internalType": "uint192",
          "name": "key",
          "type": "uint192"
        }
      ],
      "name": "incrementNonce",
      "outputs": [],
      "stateMutability": "nonpayable",
      "type": "function"
    },
    {
      "inputs": [
        {
          "internalType": "bytes",
          "name": "callData",
          "type": "bytes"
        },
        {
          "components": [
            {
              "components": [
                {
                  "internalType": "address",
                  "name": "sender",
                  "type": "address"
                },
                {
                  "internalType": "uint256",
                  "name": "nonce",
                  "type": "uint256"
                },
                {
                  "internalType": "uint256",
                  "name": "callGasLimit",
                  "type": "uint256"
                },
                {
                  "internalType": "uint256",
                  "name": "verificationGasLimit",
                  "type": "uint256"
                },
                {
                  "internalType": "uint256",
                  "name": "preVerificationGas",
                  "type": "uint256"
                },
                {
                  "internalType": "address",
                  "name": "paymaster",
                  "type": "address"
                },
                {
                  "internalType": "uint256",
                  "name": "maxFeePerGas",
                  "type": "uint256"
                },
                {
                  "internalType": "uint256",
                  "name": "maxPriorityFeePerGas",
                  "type": "uint256"
                }
              ],
              "internalType": "struct EntryPoint.MemoryUserOp",
              "name": "mUserOp",
              "type": "tuple"
            },
            {
              "internalType": "bytes32",
              "name": "userOpHash",
              "type": "bytes32"
            },
            {
              "internalType": "uint256",
              "name": "prefund",
              "type": "uint256"
            },
            {
              "internalType": "uint256",
              "name": "contextOffset",
              "type": "uint256"
            },
            {
              "internalType": "uint256",
              "name": "preOpGas",
              "type": "uint256"
            }
          ],
          "internalType": "struct EntryPoint.UserOpInfo",
          "name": "opInfo",
          "type": "tuple"
        },
        {
          "internalType": "bytes",
          "name": "context",
          "type": "bytes"
        }
      ],
      "name": "innerHandleOp",
      "outputs": [
        {
          "internalType": "uint256",
          "name": "actualGasCost",
          "type": "uint256"
        }
      ],
      "stateMutability": "nonpayable",
      "type": "function"
    },
    {
      "inputs": [
        {
          "internalType": "address",
          "name": "",
          "type": "address"
        },
        {
          "internalType": "uint192",
          "name": "",
          "type": "uint192"
        }
      ],
      "name": "nonceSequenceNumber",
      "outputs": [
        {
          "internalType": "uint256",
          "name": "",
          "type": "uint256"
        }
      ],
      "stateMutability": "view",
      "type": "function"
    },
    {
      "inputs": [
        {
          "components": [
            {
              "internalType": "address",
              "name": "sender",
              "type": "address"
            },
            {
              "internalType": "uint256",
              "name": "nonce",
              "type": "uint256"
            },
            {
              "internalType": "bytes",
              "name": "initCode",
              "type": "bytes"
            },
            {
              "internalType": "bytes",
              "name": "callData",
              "type": "bytes"
            },
            {
              "internalType": "uint256",
              "name": "callGasLimit",
              "type": "uint256"
            },
            {
              "internalType": "uint256",
              "name": "verificationGasLimit",
              "type": "uint256"
            },
            {
              "internalType": "uint256",
              "name": "preVerificationGas",
              "type": "uint256"
            },
            {
              "internalType": "uint256",
              "name": "maxFeePerGas",
              "type": "uint256"
            },
            {
              "internalType": "uint256",
              "name": "maxPriorityFeePerGas",
              "type": "uint256"
            },
            {
              "internalType": "bytes",
              "name": "paymasterAndData",
              "type": "bytes"
            },
            {
              "internalType": "bytes",
              "name": "signature",
              "type": "bytes"
            }
          ],
          "internalType": "struct UserOperation",
          "name": "op",
          "type": "tuple"
        },
        {
          "internalType": "address",
          "name": "target",
          "type": "address"
        },
        {
          "internalType": "bytes",
          "name": "targetCallData",
          "type": "bytes"
        }
      ],
      "name": "simulateHandleOp",
      "outputs": [],
      "stateMutability": "nonpayable",
      "type": "function"
    },
    {
      "inputs": [
        {
          "components": [
            {
              "internalType": "address",
              "name": "sender",
              "type": "address"
            },
            {
              "internalType": "uint256",
              "name": "nonce",
              "type": "uint256"
            },
            {
              "internalType": "bytes",
              "name": "initCode",
              "type": "bytes"
            },
            {
              "internalType": "bytes",
              "name": "callData",
              "type": "bytes"
            },
            {
              "internalType": "uint256",
              "name": "callGasLimit",
              "type": "uint256"
            },
            {
              "internalType": "uint256",
              "name": "verificationGasLimit",
              "type": "uint256"
            },
            {
              "internalType": "uint256",
              "name": "preVerificationGas",
              "type": "uint256"
            },
            {
              "internalType": "uint256",
              "name": "maxFeePerGas",
              "type": "uint256"
            },
            {
              "internalType": "uint256",
              "name": "maxPriorityFeePerGas",
              "type": "uint256"
            },
            {
              "internalType": "bytes",
              "name": "paymasterAndData",
              "type": "bytes"
            },
            {
              "internalType": "bytes",
              "name": "signature",
              "type": "bytes"
            }
          ],
          "internalType": "struct UserOperation",
          "name": "userOp",
          "type": "tuple"
        }
      ],
      "name": "simulateValidation",
      "outputs": [],
      "stateMutability": "nonpayable",
      "type": "function"
    },
    {
      "inputs": [],
      "name": "unlockStake",
      "outputs": [],
      "stateMutability": "nonpayable",
      "type": "function"
    },
    {
      "inputs": [
        {
          "internalType": "address payable",
          "name": "withdrawAddress",
          "type": "address"
        }
      ],
      "name": "withdrawStake",
      "outputs": [],
      "stateMutability": "nonpayable",
      "type": "function"
    },
    {
      "inputs": [
        {
          "internalType": "address payable",
          "name": "withdrawAddress",
          "type": "address"
        },
        {
          "internalType": "uint256",
          "name": "withdrawAmount",
          "type": "uint256"
        }
      ],
      "name": "withdrawTo",
      "outputs": [],
      "stateMutability": "nonpayable",
      "type": "function"
    },
    {
      "stateMutability": "payable",
      "type": "receive"
    }
  ],
  "bytecode": "0x60a0604052604051620000129062000055565b604051809103906000f0801580156200002f573d6000803e3d6000fd5b506001600160a01b03166080523480156200004957600080fd5b50600160025562000063565b610220806200430483390190565b60805161427e6200008660003960008181611373015261308f015261427e6000f3fe6080604052600436106101635760003560e01c80638f41ec5a116100c0578063bb9fe6bf11610074578063d6383f9411610059578063d6383f94146104af578063ee219423146104cf578063fc7e286d146104ef57600080fd5b8063bb9fe6bf1461047a578063c23a5cea1461048f57600080fd5b80639b249f69116100a55780639b249f6914610427578063a619353114610447578063b760faf91461046757600080fd5b80638f41ec5a146103f2578063957122ab1461040757600080fd5b8063205c2878116101175780634b1d7cf5116100fc5780634b1d7cf5146102765780635287ce121461029657806370a08231146103b357600080fd5b8063205c28781461023657806335567e1a1461025657600080fd5b80631b2e01b8116101485780631b2e01b8146101ab5780631d732756146101f65780631fad948c1461021657600080fd5b80630396cb60146101785780630bd28e3b1461018b57600080fd5b3661017357610171336105a4565b005b600080fd5b610171610186366004613362565b61060b565b34801561019757600080fd5b506101716101a63660046133b5565b6108c9565b3480156101b757600080fd5b506101e36101c63660046133f0565b600160209081526000928352604080842090915290825290205481565b6040519081526020015b60405180910390f35b34801561020257600080fd5b506101e36102113660046135ef565b610911565b34801561022257600080fd5b506101716102313660046136fa565b610a9d565b34801561024257600080fd5b50610171610251366004613751565b610c1a565b34801561026257600080fd5b506101e36102713660046133f0565b610da8565b34801561028257600080fd5b506101716102913660046136fa565b610dff565b3480156102a257600080fd5b5061035b6102b136600461377d565b6040805160a081018252600080825260208201819052918101829052606081018290526080810191909152506001600160a01b031660009081526020818152604091829020825160a08101845281546001600160701b038082168352600160701b820460ff16151594830194909452600160781b90049092169282019290925260019091015463ffffffff81166060830152640100000000900465ffffffffffff16608082015290565b6040805182516001600160701b03908116825260208085015115159083015283830151169181019190915260608083015163ffffffff169082015260809182015165ffffffffffff169181019190915260a0016101ed565b3480156103bf57600080fd5b506101e36103ce36600461377d565b6001600160a01b03166000908152602081905260409020546001600160701b031690565b3480156103fe57600080fd5b506101e3600181565b34801561041357600080fd5b5061017161042236600461379a565b61125c565b34801561043357600080fd5b5061017161044236600461381f565b611359565b34801561045357600080fd5b506101e361046236600461387a565b61142d565b61017161047536600461377d565b6105a4565b34801561048657600080fd5b5061017161146f565b34801561049b57600080fd5b506101716104aa36600461377d565b6115c2565b3480156104bb57600080fd5b506101716104ca3660046138af565b611818565b3480156104db57600080fd5b506101716104ea36600461387a565b61192c565b3480156104fb57600080fd5b5061055e61050a36600461377d565b600060208190529081526040902080546001909101546001600160701b0380831692600160701b810460ff1692600160781b9091049091169063ffffffff811690640100000000900465ffffffffffff1685565b604080516001600160701b0396871681529415156020860152929094169183019190915263ffffffff16606082015265ffffffffffff909116608082015260a0016101ed565b6105ae8134611c00565b6001600160a01b03811660008181526020818152604091829020805492516001600160701b03909316835292917f2da466a7b24304f47e87fa2e1e5a81b9831ce54fec19055ce277ca2f39ba42c491015b60405180910390a25050565b33600090815260208190526040902063ffffffff82166106725760405162461bcd60e51b815260206004820152601a60248201527f6d757374207370656369667920756e7374616b652064656c617900000000000060448201526064015b60405180910390fd5b600181015463ffffffff90811690831610156106d05760405162461bcd60e51b815260206004820152601c60248201527f63616e6e6f7420646563726561736520756e7374616b652074696d65000000006044820152606401610669565b80546000906106f0903490600160781b90046001600160701b0316613927565b9050600081116107425760405162461bcd60e51b815260206004820152601260248201527f6e6f207374616b652073706563696669656400000000000000000000000000006044820152606401610669565b6001600160701b038111156107995760405162461bcd60e51b815260206004820152600e60248201527f7374616b65206f766572666c6f770000000000000000000000000000000000006044820152606401610669565b6040805160a08101825283546001600160701b0390811682526001602080840182815286841685870190815263ffffffff808b16606088019081526000608089018181523380835296829052908a902098518954955194518916600160781b027fffffff0000000000000000000000000000ffffffffffffffffffffffffffffff951515600160701b026effffffffffffffffffffffffffffff199097169190991617949094179290921695909517865551949092018054925165ffffffffffff166401000000000269ffffffffffffffffffff19909316949093169390931717905590517fa5ae833d0bb1dcd632d98a8b70973e8516812898e19bf27b70071ebc8dc52c01906108bc908490879091825263ffffffff16602082015260400190565b60405180910390a2505050565b33600090815260016020908152604080832077ffffffffffffffffffffffffffffffffffffffffffffffff8516845290915281208054916109098361393a565b919050555050565b6000805a90503330146109665760405162461bcd60e51b815260206004820152601760248201527f4141393220696e7465726e616c2063616c6c206f6e6c790000000000000000006044820152606401610669565b8451604081015160608201518101611388015a10156109a9577fdeaddead0000000000000000000000000000000000000000000000000000000060005260206000fd5b875160009015610a3d5760006109c6846000015160008c86611cb0565b905080610a3b5760006109da610800611cc8565b805190915015610a355784600001516001600160a01b03168a602001517f1c4fada7374c0a9ee8841fc38afe82932dc0f8e69012e927f061a8bae611a201876020015184604051610a2c9291906139a3565b60405180910390a35b60019250505b505b600088608001515a8603019050610a8f6000838b8b8b8080601f016020809104026020016040519081016040528093929190818152602001838380828437600092019190915250889250611cf4915050565b9a9950505050505050505050565b610aa5611ff6565b8160008167ffffffffffffffff811115610ac157610ac1613425565b604051908082528060200260200182016040528015610afa57816020015b610ae76132d8565b815260200190600190039081610adf5790505b50905060005b82811015610b73576000828281518110610b1c57610b1c6139bc565b60200260200101519050600080610b57848a8a87818110610b3f57610b3f6139bc565b9050602002810190610b5191906139d2565b8561204d565b91509150610b688483836000612238565b505050600101610b00565b506040516000907fbb47ee3e183a558b1a2ff0874b079f3fc5478b7454eacf2bfc5af2ff5878f972908290a160005b83811015610bfd57610bf181888884818110610bc057610bc06139bc565b9050602002810190610bd291906139d2565b858481518110610be457610be46139bc565b6020026020010151612402565b90910190600101610ba2565b50610c088482612550565b505050610c156001600255565b505050565b33600090815260208190526040902080546001600160701b0316821115610c835760405162461bcd60e51b815260206004820152601960248201527f576974686472617720616d6f756e7420746f6f206c61726765000000000000006044820152606401610669565b8054610c999083906001600160701b03166139f3565b81546dffffffffffffffffffffffffffff19166001600160701b0391909116178155604080516001600160a01b03851681526020810184905233917fd1c19fbcd4551a5edfb66d43d2e337c04837afda3482b42bdf569a8fccdae5fb910160405180910390a26000836001600160a01b03168360405160006040518083038185875af1925050503d8060008114610d4c576040519150601f19603f3d011682016040523d82523d6000602084013e610d51565b606091505b5050905080610da25760405162461bcd60e51b815260206004820152601260248201527f6661696c656420746f20776974686472617700000000000000000000000000006044820152606401610669565b50505050565b6001600160a01b038216600090815260016020908152604080832077ffffffffffffffffffffffffffffffffffffffffffffffff8516845290915290819020549082901b67ffffffffffffffff1916175b92915050565b610e07611ff6565b816000805b82811015610f945736868683818110610e2757610e276139bc565b9050602002810190610e399190613a06565b9050366000610e488380613a1c565b90925090506000610e5f604085016020860161377d565b90506000196001600160a01b03821601610ebb5760405162461bcd60e51b815260206004820152601760248201527f4141393620696e76616c69642061676772656761746f720000000000000000006044820152606401610669565b6001600160a01b03811615610f71576001600160a01b03811663e3563a4f8484610ee86040890189613a66565b6040518563ffffffff1660e01b8152600401610f079493929190613c13565b60006040518083038186803b158015610f1f57600080fd5b505afa925050508015610f30575060015b610f71576040517f86a9f7500000000000000000000000000000000000000000000000000000000081526001600160a01b0382166004820152602401610669565b610f7b8287613927565b9550505050508080610f8c9061393a565b915050610e0c565b5060008167ffffffffffffffff811115610fb057610fb0613425565b604051908082528060200260200182016040528015610fe957816020015b610fd66132d8565b815260200190600190039081610fce5790505b506040519091507fbb47ee3e183a558b1a2ff0874b079f3fc5478b7454eacf2bfc5af2ff5878f97290600090a16000805b848110156110fe5736888883818110611035576110356139bc565b90506020028101906110479190613a06565b90503660006110568380613a1c565b9092509050600061106d604085016020860161377d565b90508160005b818110156110e557600089898151811061108f5761108f6139bc565b602002602001015190506000806110b28b898987818110610b3f57610b3f6139bc565b915091506110c284838389612238565b8a6110cc8161393a565b9b505050505080806110dd9061393a565b915050611073565b50505050505080806110f69061393a565b91505061101a565b50600080915060005b858110156112175736898983818110611122576111226139bc565b90506020028101906111349190613a06565b9050611146604082016020830161377d565b6001600160a01b03167f575ff3acadd5ab348fe1855e217e0f3678f8d767d7494c9f9fefbee2e17cca4d60405160405180910390a23660006111888380613a1c565b90925090508060005b818110156111ff576111d3888585848181106111af576111af6139bc565b90506020028101906111c191906139d2565b8b8b81518110610be457610be46139bc565b6111dd9088613927565b9650876111e98161393a565b98505080806111f79061393a565b915050611191565b5050505050808061120f9061393a565b915050611107565b506040516000907f575ff3acadd5ab348fe1855e217e0f3678f8d767d7494c9f9fefbee2e17cca4d908290a261124d8682612550565b5050505050610c156001600255565b8315801561127257506001600160a01b0383163b155b156112bf5760405162461bcd60e51b815260206004820152601960248201527f41413230206163636f756e74206e6f74206465706c6f796564000000000000006044820152606401610669565b601481106113375760006112d66014828486613c90565b6112df91613cba565b60601c9050803b6000036113355760405162461bcd60e51b815260206004820152601b60248201527f41413330207061796d6173746572206e6f74206465706c6f79656400000000006044820152606401610669565b505b60405162461bcd60e51b81526020600482015260006024820152604401610669565b604051632b870d1b60e11b81526000906001600160a01b037f0000000000000000000000000000000000000000000000000000000000000000169063570e1a36906113aa9086908690600401613cef565b6020604051808303816000875af11580156113c9573d6000803e3d6000fd5b505050506040513d601f19601f820116820180604052508101906113ed9190613d03565b6040517f6ca7b8060000000000000000000000000000000000000000000000000000000081526001600160a01b0382166004820152909150602401610669565b600061143882612649565b6040805160208101929092523090820152466060820152608001604051602081830303815290604052805190602001209050919050565b3360009081526020819052604081206001810154909163ffffffff90911690036114db5760405162461bcd60e51b815260206004820152600a60248201527f6e6f74207374616b6564000000000000000000000000000000000000000000006044820152606401610669565b8054600160701b900460ff166115335760405162461bcd60e51b815260206004820152601160248201527f616c726561647920756e7374616b696e670000000000000000000000000000006044820152606401610669565b600181015460009061154b9063ffffffff1642613d20565b60018301805469ffffffffffff00000000191664010000000065ffffffffffff84169081029190911790915583546eff00000000000000000000000000001916845560405190815290915033907ffa9b3c14cc825c412c9ed81b3ba365a5b459439403f18829e572ed53a4180f0a906020016105ff565b3360009081526020819052604090208054600160781b90046001600160701b0316806116305760405162461bcd60e51b815260206004820152601460248201527f4e6f207374616b6520746f2077697468647261770000000000000000000000006044820152606401610669565b6001820154640100000000900465ffffffffffff166116915760405162461bcd60e51b815260206004820152601d60248201527f6d7573742063616c6c20756e6c6f636b5374616b6528292066697273740000006044820152606401610669565b60018201544264010000000090910465ffffffffffff1611156116f65760405162461bcd60e51b815260206004820152601b60248201527f5374616b65207769746864726177616c206973206e6f742064756500000000006044820152606401610669565b60018201805469ffffffffffffffffffff1916905581547fffffff0000000000000000000000000000ffffffffffffffffffffffffffffff168255604080516001600160a01b03851681526020810183905233917fb7c918e0e249f999e965cafeb6c664271b3f4317d296461500e71da39f0cbda3910160405180910390a26000836001600160a01b03168260405160006040518083038185875af1925050503d80600081146117c2576040519150601f19603f3d011682016040523d82523d6000602084013e6117c7565b606091505b5050905080610da25760405162461bcd60e51b815260206004820152601860248201527f6661696c656420746f207769746864726177207374616b6500000000000000006044820152606401610669565b6118206132d8565b61182985612662565b6000806118386000888561204d565b915091506000611848838361273c565b905061185343600052565b600061186160008a87612402565b905061186c43600052565b600060606001600160a01b038a16156118e257896001600160a01b03168989604051611899929190613d46565b6000604051808303816000865af19150503d80600081146118d6576040519150601f19603f3d011682016040523d82523d6000602084013e6118db565b606091505b5090925090505b8660800151838560200151866040015185856040517f8b7ac98000000000000000000000000000000000000000000000000000000000815260040161066996959493929190613d56565b6119346132d8565b61193d82612662565b60008061194c6000858561204d565b845160a00151604080518082018252600080825260208083018281526001600160a01b03958616835282825284832080546001600160701b03600160781b918290048116875260019283015463ffffffff9081169094528d51518851808a018a5287815280870188815291909a168752868652888720805493909304909116895291015490911690528351808501909452818452830152939550919350903660006119fa60408a018a613a66565b909250905060006014821015611a11576000611a2c565b611a1f601460008486613c90565b611a2891613cba565b60601c5b604080518082018252600080825260208083018281526001600160a01b0386168352908290529290208054600160781b90046001600160701b031682526001015463ffffffff1690915290915093505050506000611a8a868661273c565b9050600081600001519050600060016001600160a01b0316826001600160a01b031614905060006040518060c001604052808b6080015181526020018b6040015181526020018315158152602001856020015165ffffffffffff168152602001856040015165ffffffffffff168152602001611b078c6060015190565b905290506001600160a01b03831615801590611b2d57506001600160a01b038316600114155b15611bc6576040805180820182526001600160a01b0385168082528251808401845260008082526020808301828152938252818152908590208054600160781b90046001600160701b031683526001015463ffffffff169092529082015290517ffaecb4e4000000000000000000000000000000000000000000000000000000008152610669908390899089908c908690600401613df8565b808686896040517fe0cff05f0000000000000000000000000000000000000000000000000000000081526004016106699493929190613e78565b6001600160a01b03821660009081526020819052604081208054909190611c319084906001600160701b0316613927565b90506001600160701b03811115611c8a5760405162461bcd60e51b815260206004820152601060248201527f6465706f736974206f766572666c6f77000000000000000000000000000000006044820152606401610669565b81546dffffffffffffffffffffffffffff19166001600160701b03919091161790555050565b6000806000845160208601878987f195945050505050565b60603d82811115611cd65750815b604051602082018101604052818152816000602083013e9392505050565b6000805a855190915060009081611d0a82612808565b60a08301519091506001600160a01b038116611d295782519350611edb565b809350600088511115611edb57868202955060028a6002811115611d4f57611d4f613ecf565b14611dc157606083015160405163a9a2340960e01b81526001600160a01b0383169163a9a2340991611d89908e908d908c90600401613ee5565b600060405180830381600088803b158015611da357600080fd5b5087f1158015611db7573d6000803e3d6000fd5b5050505050611edb565b606083015160405163a9a2340960e01b81526001600160a01b0383169163a9a2340991611df6908e908d908c90600401613ee5565b600060405180830381600088803b158015611e1057600080fd5b5087f193505050508015611e22575060015b611edb57611e2e613f2c565b806308c379a003611e875750611e42613f48565b80611e4d5750611e89565b8b81604051602001611e5f9190613fd2565b60408051601f1981840301815290829052631101335b60e11b825261066992916004016139a3565b505b8a604051631101335b60e11b81526004016106699181526040602082018190526012908201527f4141353020706f73744f70207265766572740000000000000000000000000000606082015260800190565b5a85038701965081870295508589604001511015611f44578a604051631101335b60e11b815260040161066991815260406020808301829052908201527f414135312070726566756e642062656c6f772061637475616c476173436f7374606082015260800190565b6040890151869003611f568582611c00565b6000808c6002811115611f6b57611f6b613ecf565b1490508460a001516001600160a01b031685600001516001600160a01b03168c602001517f49628fd1471006c1482da88028e9ce4dbb080b815c9b0344d39e5a8e6ec1419f8860200151858d8f604051611fde949392919093845291151560208401526040830152606082015260800190565b60405180910390a45050505050505095945050505050565b60028054036120475760405162461bcd60e51b815260206004820152601f60248201527f5265656e7472616e637947756172643a207265656e7472616e742063616c6c006044820152606401610669565b60028055565b60008060005a84519091506120628682612838565b61206b8661142d565b6020860152604081015160608201516080830151171760e087013517610100870135176effffffffffffffffffffffffffffff8111156120ed5760405162461bcd60e51b815260206004820152601860248201527f41413934206761732076616c756573206f766572666c6f7700000000000000006044820152606401610669565b6000806120f984612931565b90506121078a8a8a8461297e565b8551602087015191995091935061211e9190612bdd565b6121745789604051631101335b60e11b8152600401610669918152604060208201819052601a908201527f4141323520696e76616c6964206163636f756e74206e6f6e6365000000000000606082015260800190565b61217d43600052565b60a08401516060906001600160a01b0316156121a5576121a08b8b8b8587612c2b565b975090505b60005a87039050808b60a00135101561220a578b604051631101335b60e11b8152600401610669918152604060208201819052601e908201527f41413430206f76657220766572696669636174696f6e4761734c696d69740000606082015260800190565b60408a018390528160608b015260c08b01355a8803018a608001818152505050505050505050935093915050565b60008061224485612e55565b91509150816001600160a01b0316836001600160a01b0316146122b35785604051631101335b60e11b81526004016106699181526040602082018190526014908201527f41413234207369676e6174757265206572726f72000000000000000000000000606082015260800190565b801561230b5785604051631101335b60e11b81526004016106699181526040602082018190526017908201527f414132322065787069726564206f72206e6f7420647565000000000000000000606082015260800190565b600061231685612e55565b925090506001600160a01b0381161561237b5786604051631101335b60e11b81526004016106699181526040602082018190526014908201527f41413334207369676e6174757265206572726f72000000000000000000000000606082015260800190565b81156123f95786604051631101335b60e11b81526004016106699181526040602082018190526021908201527f41413332207061796d61737465722065787069726564206f72206e6f7420647560608201527f6500000000000000000000000000000000000000000000000000000000000000608082015260a00190565b50505050505050565b6000805a90506000612415846060015190565b905030631d73275661242a6060880188613a66565b87856040518563ffffffff1660e01b815260040161244b9493929190614017565b6020604051808303816000875af1925050508015612486575060408051601f3d908101601f19168201909252612483918101906140cb565b60015b61254457600060206000803e506000517f2152215300000000000000000000000000000000000000000000000000000000810161250f5786604051631101335b60e11b8152600401610669918152604060208201819052600f908201527f41413935206f7574206f66206761730000000000000000000000000000000000606082015260800190565b600085608001515a61252190866139f3565b61252b9190613927565b905061253b886002888685611cf4565b94505050612547565b92505b50509392505050565b6001600160a01b0382166125a65760405162461bcd60e51b815260206004820152601860248201527f4141393020696e76616c69642062656e656669636961727900000000000000006044820152606401610669565b6000826001600160a01b03168260405160006040518083038185875af1925050503d80600081146125f3576040519150601f19603f3d011682016040523d82523d6000602084013e6125f8565b606091505b5050905080610c155760405162461bcd60e51b815260206004820152601f60248201527f41413931206661696c65642073656e6420746f2062656e6566696369617279006044820152606401610669565b600061265482612ea8565b805190602001209050919050565b3063957122ab6126756040840184613a66565b612682602086018661377d565b612690610120870187613a66565b6040518663ffffffff1660e01b81526004016126b09594939291906140e4565b60006040518083038186803b1580156126c857600080fd5b505afa9250505080156126d9575060015b612739576126e5613f2c565b806308c379a00361272d57506126f9613f48565b80612704575061272f565b80511561272957600081604051631101335b60e11b81526004016106699291906139a3565b5050565b505b3d6000803e3d6000fd5b50565b604080516060810182526000808252602082018190529181018290529061276284612f7b565b9050600061276f84612f7b565b82519091506001600160a01b038116612786575080515b602080840151604080860151928501519085015191929165ffffffffffff80831690851610156127b4578193505b8065ffffffffffff168365ffffffffffff1611156127d0578092505b5050604080516060810182526001600160a01b03909416845265ffffffffffff92831660208501529116908201529250505092915050565b60c081015160e082015160009190808203612824575092915050565b61283082488301612fec565b949350505050565b612845602083018361377d565b6001600160a01b0316815260208083013590820152608080830135604083015260a0830135606083015260c0808401359183019190915260e08084013591830191909152610100830135908201523660006128a4610120850185613a66565b909250905080156129245760148110156129005760405162461bcd60e51b815260206004820152601d60248201527f4141393320696e76616c6964207061796d6173746572416e64446174610000006044820152606401610669565b61290e601460008385613c90565b61291791613cba565b60601c60a0840152610da2565b600060a084015250505050565b60a081015160009081906001600160a01b031661294f576001612952565b60035b60ff16905060008360800151828560600151028560400151010190508360c00151810292505050919050565b60008060005a85518051919250906129a3898861299e60408c018c613a66565b613004565b60a08201516129b143600052565b60006001600160a01b0382166129f9576001600160a01b0383166000908152602081905260409020546001600160701b03168881116129f2578089036129f5565b60005b9150505b606084015160208a01516040517f3a871cdd0000000000000000000000000000000000000000000000000000000081526001600160a01b03861692633a871cdd929091612a4c918f91879060040161411a565b60206040518083038160008887f193505050508015612a88575060408051601f3d908101601f19168201909252612a85918101906140cb565b60015b612b1957612a94613f2c565b806308c379a003612ac55750612aa8613f48565b80612ab35750612ac7565b8b81604051602001611e5f919061413f565b505b8a604051631101335b60e11b81526004016106699181526040602082018190526016908201527f4141323320726576657274656420286f72204f4f472900000000000000000000606082015260800190565b95506001600160a01b038216612bca576001600160a01b038316600090815260208190526040902080546001600160701b0316808a1115612ba6578c604051631101335b60e11b81526004016106699181526040602082018190526017908201527f41413231206469646e2774207061792070726566756e64000000000000000000606082015260800190565b81546dffffffffffffffffffffffffffff1916908a90036001600160701b03161790555b5a85039650505050505094509492505050565b6001600160a01b038216600090815260016020908152604080832084821c808552925282208054849167ffffffffffffffff8316919085612c1d8361393a565b909155501495945050505050565b82516060818101519091600091848111612c875760405162461bcd60e51b815260206004820152601f60248201527f4141343120746f6f206c6974746c6520766572696669636174696f6e476173006044820152606401610669565b60a08201516001600160a01b038116600090815260208190526040902080548784039291906001600160701b031689811015612d0f578c604051631101335b60e11b8152600401610669918152604060208201819052601e908201527f41413331207061796d6173746572206465706f73697420746f6f206c6f770000606082015260800190565b8981038260000160006101000a8154816001600160701b0302191690836001600160701b03160217905550826001600160a01b031663f465c77e858e8e602001518e6040518563ffffffff1660e01b8152600401612d6f9392919061411a565b60006040518083038160008887f193505050508015612db057506040513d6000823e601f3d908101601f19168201604052612dad9190810190614184565b60015b612e4157612dbc613f2c565b806308c379a003612ded5750612dd0613f48565b80612ddb5750612def565b8d81604051602001611e5f9190614210565b505b8c604051631101335b60e11b81526004016106699181526040602082018190526016908201527f4141333320726576657274656420286f72204f4f472900000000000000000000606082015260800190565b909e909d509b505050505050505050505050565b60008082600003612e6b57506000928392509050565b6000612e7684612f7b565b9050806040015165ffffffffffff16421180612e9d5750806020015165ffffffffffff1642105b905194909350915050565b6060813560208301356000612ec8612ec36040870187613a66565b6132c5565b90506000612edc612ec36060880188613a66565b9050608086013560a087013560c088013560e08901356101008a01356000612f0b612ec36101208e018e613a66565b604080516001600160a01b039c909c1660208d01528b81019a909a5260608b019890985250608089019590955260a088019390935260c087019190915260e08601526101008501526101208401526101408084019190915281518084039091018152610160909201905292915050565b60408051606081018252600080825260208201819052918101919091528160a081901c65ffffffffffff8116600003612fb7575065ffffffffffff5b604080516060810182526001600160a01b03909316835260d09490941c602083015265ffffffffffff16928101929092525090565b6000818310612ffb5781612ffd565b825b9392505050565b8015610da2578251516001600160a01b0381163b1561306f5784604051631101335b60e11b8152600401610669918152604060208201819052601f908201527f414131302073656e64657220616c726561647920636f6e737472756374656400606082015260800190565b835160600151604051632b870d1b60e11b81526000916001600160a01b037f0000000000000000000000000000000000000000000000000000000000000000169163570e1a3691906130c79088908890600401613cef565b60206040518083038160008887f11580156130e6573d6000803e3d6000fd5b50505050506040513d601f19601f8201168201806040525081019061310b9190613d03565b90506001600160a01b03811661316d5785604051631101335b60e11b8152600401610669918152604060208201819052601b908201527f4141313320696e6974436f6465206661696c6564206f72204f4f470000000000606082015260800190565b816001600160a01b0316816001600160a01b0316146131d75785604051631101335b60e11b815260040161066991815260406020808301829052908201527f4141313420696e6974436f6465206d7573742072657475726e2073656e646572606082015260800190565b806001600160a01b03163b60000361323a5785604051631101335b60e11b815260040161066991815260406020808301829052908201527f4141313520696e6974436f6465206d757374206372656174652073656e646572606082015260800190565b60006132496014828688613c90565b61325291613cba565b60601c9050826001600160a01b031686602001517fd51a9c61267aa6196961883ecf5ff2da6619c37dac0fa92122513fb32c032d2d83896000015160a001516040516132b49291906001600160a01b0392831681529116602082015260400190565b60405180910390a350505050505050565b6000604051828085833790209392505050565b6040518060a0016040528061333d60405180610100016040528060006001600160a01b031681526020016000815260200160008152602001600081526020016000815260200160006001600160a01b0316815260200160008152602001600081525090565b8152602001600080191681526020016000815260200160008152602001600081525090565b60006020828403121561337457600080fd5b813563ffffffff81168114612ffd57600080fd5b803577ffffffffffffffffffffffffffffffffffffffffffffffff811681146133b057600080fd5b919050565b6000602082840312156133c757600080fd5b612ffd82613388565b6001600160a01b038116811461273957600080fd5b80356133b0816133d0565b6000806040838503121561340357600080fd5b823561340e816133d0565b915061341c60208401613388565b90509250929050565b634e487b7160e01b600052604160045260246000fd5b60a0810181811067ffffffffffffffff8211171561345b5761345b613425565b60405250565b610100810181811067ffffffffffffffff8211171561345b5761345b613425565b601f8201601f1916810167ffffffffffffffff811182821017156134a8576134a8613425565b6040525050565b600067ffffffffffffffff8211156134c9576134c9613425565b50601f01601f191660200190565b60008183036101808112156134eb57600080fd5b6040516134f78161343b565b8092506101008083121561350a57600080fd5b604051925061351883613461565b613521856133e5565b83526020850135602084015260408501356040840152606085013560608401526080850135608084015261355760a086016133e5565b60a084015260c085013560c084015260e085013560e084015282825280850135602083015250610120840135604082015261014084013560608201526101608401356080820152505092915050565b60008083601f8401126135b857600080fd5b50813567ffffffffffffffff8111156135d057600080fd5b6020830191508360208285010111156135e857600080fd5b9250929050565b6000806000806101c0858703121561360657600080fd5b843567ffffffffffffffff8082111561361e57600080fd5b818701915087601f83011261363257600080fd5b813561363d816134af565b60405161364a8282613482565b8281528a602084870101111561365f57600080fd5b8260208601602083013760006020848301015280985050505061368588602089016134d7565b94506101a087013591508082111561369c57600080fd5b506136a9878288016135a6565b95989497509550505050565b60008083601f8401126136c757600080fd5b50813567ffffffffffffffff8111156136df57600080fd5b6020830191508360208260051b85010111156135e857600080fd5b60008060006040848603121561370f57600080fd5b833567ffffffffffffffff81111561372657600080fd5b613732868287016136b5565b9094509250506020840135613746816133d0565b809150509250925092565b6000806040838503121561376457600080fd5b823561376f816133d0565b946020939093013593505050565b60006020828403121561378f57600080fd5b8135612ffd816133d0565b6000806000806000606086880312156137b257600080fd5b853567ffffffffffffffff808211156137ca57600080fd5b6137d689838a016135a6565b9097509550602088013591506137eb826133d0565b9093506040870135908082111561380157600080fd5b5061380e888289016135a6565b969995985093965092949392505050565b6000806020838503121561383257600080fd5b823567ffffffffffffffff81111561384957600080fd5b613855858286016135a6565b90969095509350505050565b6000610160828403121561387457600080fd5b50919050565b60006020828403121561388c57600080fd5b813567ffffffffffffffff8111156138a357600080fd5b61283084828501613861565b600080600080606085870312156138c557600080fd5b843567ffffffffffffffff808211156138dd57600080fd5b6138e988838901613861565b9550602087013591506138fb826133d0565b9093506040860135908082111561369c57600080fd5b634e487b7160e01b600052601160045260246000fd5b80820180821115610df957610df9613911565b60006001820161394c5761394c613911565b5060010190565b60005b8381101561396e578181015183820152602001613956565b50506000910152565b6000815180845261398f816020860160208601613953565b601f01601f19169290920160200192915050565b8281526040602082015260006128306040830184613977565b634e487b7160e01b600052603260045260246000fd5b6000823561015e198336030181126139e957600080fd5b9190910192915050565b81810381811115610df957610df9613911565b60008235605e198336030181126139e957600080fd5b6000808335601e19843603018112613a3357600080fd5b83018035915067ffffffffffffffff821115613a4e57600080fd5b6020019150600581901b36038213156135e857600080fd5b6000808335601e19843603018112613a7d57600080fd5b83018035915067ffffffffffffffff821115613a9857600080fd5b6020019150368190038213156135e857600080fd5b6000808335601e19843603018112613ac457600080fd5b830160208101925035905067ffffffffffffffff811115613ae457600080fd5b8036038213156135e857600080fd5b81835281816020850137506000828201602090810191909152601f909101601f19169091010190565b6000610160613b3b84613b2e856133e5565b6001600160a01b03169052565b60208301356020850152613b526040840184613aad565b826040870152613b658387018284613af3565b92505050613b766060840184613aad565b8583036060870152613b89838284613af3565b925050506080830135608085015260a083013560a085015260c083013560c085015260e083013560e0850152610100808401358186015250610120613bd081850185613aad565b86840383880152613be2848284613af3565b9350505050610140613bf681850185613aad565b86840383880152613c08848284613af3565b979650505050505050565b6040808252810184905260006060600586901b830181019083018783805b89811015613c7957868503605f190184528235368c900361015e19018112613c57578283fd5b613c63868d8301613b1c565b9550506020938401939290920191600101613c31565b505050508281036020840152613c08818587613af3565b60008085851115613ca057600080fd5b83861115613cad57600080fd5b5050820193919092039150565b6bffffffffffffffffffffffff198135818116916014851015613ce75780818660140360031b1b83161692505b505092915050565b602081526000612830602083018486613af3565b600060208284031215613d1557600080fd5b8151612ffd816133d0565b65ffffffffffff818116838216019080821115613d3f57613d3f613911565b5092915050565b8183823760009101908152919050565b868152856020820152600065ffffffffffff8087166040840152808616606084015250831515608083015260c060a0830152613d9560c0830184613977565b98975050505050505050565b80518252602081015160208301526040810151151560408301526000606082015165ffffffffffff8082166060860152806080850151166080860152505060a082015160c060a085015261283060c0850182613977565b6000610140808352613e0c81840189613da1565b915050613e26602083018780518252602090810151910152565b845160608301526020948501516080830152835160a08301529284015160c082015281516001600160a01b031660e0820152908301518051610100830152909201516101209092019190915292915050565b60e081526000613e8b60e0830187613da1565b9050613ea4602083018680518252602090810151910152565b8351606083015260208401516080830152825160a0830152602083015160c083015295945050505050565b634e487b7160e01b600052602160045260246000fd5b600060038510613f0557634e487b7160e01b600052602160045260246000fd5b84825260606020830152613f1c6060830185613977565b9050826040830152949350505050565b600060033d1115613f455760046000803e5060005160e01c5b90565b600060443d1015613f565790565b6040516003193d81016004833e81513d67ffffffffffffffff8160248401118184111715613f8657505050505090565b8285019150815181811115613f9e5750505050505090565b843d8701016020828501011115613fb85750505050505090565b613fc760208286010187613482565b509095945050505050565b7f4141353020706f73744f702072657665727465643a200000000000000000000081526000825161400a816016850160208701613953565b9190910160160192915050565b60006101c080835261402c8184018789613af3565b905084516001600160a01b03808251166020860152602082015160408601526040820151606086015260608201516080860152608082015160a08601528060a08301511660c08601525060c081015160e085015260e08101516101008501525060208501516101208401526040850151610140840152606085015161016084015260808501516101808401528281036101a0840152613c088185613977565b6000602082840312156140dd57600080fd5b5051919050565b6060815260006140f8606083018789613af3565b6001600160a01b03861660208401528281036040840152613d95818587613af3565b60608152600061412d6060830186613b1c565b60208301949094525060400152919050565b7f414132332072657665727465643a20000000000000000000000000000000000081526000825161417781600f850160208701613953565b91909101600f0192915050565b6000806040838503121561419757600080fd5b825167ffffffffffffffff8111156141ae57600080fd5b8301601f810185136141bf57600080fd5b80516141ca816134af565b6040516141d78282613482565b8281528760208486010111156141ec57600080fd5b6141fd836020830160208701613953565b6020969096015195979596505050505050565b7f414133332072657665727465643a20000000000000000000000000000000000081526000825161417781600f85016020870161395356fea2646970667358221220e1d460ab6e1531c6c3f4396897a65b44c3c7bc19ae84cda8584292c62cde1c5164736f6c63430008130033608060405234801561001057600080fd5b50610200806100206000396000f3fe608060405234801561001057600080fd5b506004361061002b5760003560e01c8063570e1a3614610030575b600080fd5b61004361003e3660046100f9565b61006c565b60405173ffffffffffffffffffffffffffffffffffffffff909116815260200160405180910390f35b60008061007c601482858761016b565b61008591610195565b60601c90506000610099846014818861016b565b8080601f016020809104026020016040519081016040528093929190818152602001838380828437600092018290525084519495509360209350849250905082850182875af190506000519350806100f057600093505b50505092915050565b6000806020838503121561010c57600080fd5b823567ffffffffffffffff8082111561012457600080fd5b818501915085601f83011261013857600080fd5b81358181111561014757600080fd5b86602082850101111561015957600080fd5b60209290920196919550909350505050565b6000808585111561017b57600080fd5b8386111561018857600080fd5b5050820193919092039150565b6bffffffffffffffffffffffff1981358181169160148510156101c25780818660140360031b1b83161692505b50509291505056fea2646970667358221220c79eae76cff7de1382b1236d4f9efecc81eee206eb9634936fe9760371f74abc64736f6c63430008130033",
  "linkReferences": {},
  "deployedLinkReferences": {}
}